:10073C0085DB08E5086408600302091F900006E0E9
:10074C00F53BA3E07007E53BD3947F4003753B7FFB
:10075C00E4F508900001E0F53C900000E054606086
:10076C00030208BAE53CB40B0040030208B890073A
:10077C0081F82828730208A002085B0208B8020856
:10078C00750208B80208330207A20208B802083C36
:10079C00020852020922900003E024FE6019146042
:1007AC002424E1605524217060753DFF753E16755B
:1007BC003F747508128055753DFF753E16753F8662
:1007CC0075084B8047900002E0F508E508C39404D7
:1007DC00503775F003E508A42421F582E5F03417B1
:1007EC00F583E493FB740193FA740293F98B3D8ABD
:1007FC003EF53F1204EBF5088012900004E0F5087A
:10080C00E508C39402400580007508FFE53BD395CD
:10081C0008400385083BE53BC3940840057F08026C
:10082C0008E8AF3B0208E8900002E0F53B02092221
:10083C00900000E53AF0E53BC39401500302092215
:10084C00750801020922900002E0F53A0209229093
:10085C000000E0541FFFBF020D900004E0FF1218CF
:10086C00248F0802092202091F900000E0541F6423
:10087C0002701E900003E0FE900002E0FDED4E7051
:10088C000D900004E0FF1217DD8F08020922020907
:10089C001F02091FE4900000F0A3F0E53BC3940293
:1008AC004005750802806F853B08806A8065900062
:1008BC0000E0FF54606420705DEF30E748E53C24B5
:1008CC00DF7040753D01753E00753FCA750807E540
:1008DC003BC3940840047F088002AF3B8F087E0026
:1008EC0078007C007D01AB3DAA3EA93F1204C5C334
:1008FC00E53B9508F53BE508253FF53FE4353EF52E
:10090C003E8013800EE53C24E0600B24FE600780E3
:10091C000080007508FFE508B4FF07753CFF75DC27
:08092C00CF228508DD75DCC057
:0109340022A0
:10178900E4F508E53C24FB603C147041E53BC39457
:101799000840047F088002AF3B8F087E0078007CF8
:1017A900007D01AB3DAA3EA93F1204C5C3E53B95A7
:1017B90008F53BE508253FF53FE4353EF53E85084C
:1017C900DD63DC4022E53B4480F5E38003E4F5DD9D
:0317D90075DC02BA
:0117DC0022EA
:1019420085DB08E53C6420701B30DE18AFDBFE78D7
:10195200CA7C007D017B017A0079001204C512184D
:07196200DEE4F5DD63DC802B
:01196900225B
:101674001201100100000008861A2257000102011D
:10168400000109024B000201008032080B00020233
:1016940002010309040000010202010005240010F4
:1016A40001052401000004240202052406000107A8
:1016B40005810310004009040100020A000000072C
:0D16C4000502024000000705820240000000
:10186700FF1942FF0041FF1539FF0041FF0041FF0B
:101877000041FF0041FF0041FF0041FF0041FF170A
:1018870089FF1ADFFF19FCFF0041FF0041FF073CFA
:0C189700FF0041FF0041FF0041FF004145
:01004100229C
:1013360030D965E5D9543024F0601D24F0602A24A4
:10134600F060372430704FE5D9540F75F003A424AC
:1013560067F582E434188031E5D9540F75F003A49B
:101366002476F582E434188020E5D9540F75F0030D
:10137600A42485F582E43418800FE5D9540F75F05E
:1013860003A42494F582E43418F583740193FA7463
:101396000293F91206E1C2D930D81575DC0275D26E
:1013A6001075D41275D612E4F5E3C2DAC2D9C2D8E2
:0E13B60030DA0AC2DAE5DA20E20375D8FF2247
:1017DD00EF24FE60161460262482602D24FE601610
:1017ED00047031E5D454BF44038006E5D4547F44DE
:1017FD000CF5D47F0022E5D654BF44038006E5D610
:10180D00547F440CF5D67F0022E5D254BF4403F536
:07181D00D27F00227FFF22B1
:10182400EF24FE60191460272482602924FE6014CA
:1018340004702DE5D454BC4402F5D47F002253D463
:10184400737F0022E5D654BC4402F5D67F002253B0
:10185400D6737F0022E5D254BC4402F5D27F002225
:031864007FFF22E1
:1016D10004030904140343004800350035003200B7
:1016E10020004300440043002603550041005200FE
:1016F1005400500072006F00670020006F006E0000
:101701002000430048003500350032005400120328
:1017110041006E006400720065006A0043006800C9
:0C172100FF16D1FF16E9FF170FFF16D5C9
:101A770043970443960443971043961043B0044397
:031A8700B010227A
:10196A0043B01043B0047F057E00121AD153B0EF82
:10197A007F057E00121AD153B0FB7F057E00021A42
:01198A00D18B
:1019E1007F057E00121AD143B0047F057E00121AD2
:0B19F100D143B0107F057E00021AD128
:0214C5008F1F77
:1014C700E4F520F521C374079521FF74017E00A878
:1014D70007088005C333CE33CED8F9FFEF551F6019
:1014E7000543B010800353B0EF7F057E00121AD179
:1014F70043B0047F057E00121AD153B0FB0521E5E6
:1015070021C3940840BF43B0107F057E00121AD153
:1015170043B004E5B030E4037520017F057E001277
:101527001AD153B0FB7F057E00121AD153B0EFAF2B
:011537002093
:011538002290
:0215A9008F1C95
:1015AB00E4F51E43B010F51D7F057E00121AD143E2
:1015BB00B0047F057E00121AD1E5B030E413C3747A
:1015CB0007951DFF7401A807088002C333D8FC429E
:1015DB001E53B0FB051DE51DC3940840CBE51C60F5
:1015EB000543B010800353B0EF7F057E00121AD174
:1015FB0043B0047F057E00121AD153B0FB7F057EEA
:09160B0000121AD153B0EFAF1E1A
:0116140022B3
:021A8A008F12B9
:0F1A8C0012196AAF121214C58F131219E1AF139A
:011A9B002228
:08172D008F128C138D148B1533
:1017350012196AAF121214C5E515D394014006E5D6
:1017450013FF1214C5AF141214C5E4F51DF51EC31D
:10175500E51E951AE51D95195024E51E251CFFE586
:101765001D351BAB16AA17A9188F82F58312050420
:10177500FF1214C5051EE51E70D5051D80D1121971
:03178500E17F0001
:01178800223E
:08117C008F0F8D108A118B12F8
:1011840012196AAF0F1214C5E510D394014006E595
:1011940011FF1214C5AF121214C512196AE50F44D7
:1011A40001FF1214C5E4F51AF51BE51924FFFBE54C
:1011B4001834FFFAE51734FFF9E51634FFF8AE1AD0
:1011C400AF1BEE3395E0FDFCD3120657401FE4FF3E
:1011D4001215A9AB13AA14A915851B82851A83EFCE
:1011E400120531051BE51B70C1051A80BD7F011274
:1011F40015A974FF2519F58274FF3518F583AB130F
:0D120400AA14A915EF1205311219E17F009F
:0112110022BA
:101A9C0075A15575A1AAE5B954F84406F5B9E4F554
:021AAC00A12275
:10000300C2EAE4F5E275EC0053EAF375DC0275EE3F
:100013000A53EAEF43EA4075D21275E44A53EBFE02
:1000230043EB0443EB0875D41275D8FF75E107D28F
:0E003300EAF5E375E22943D101F5D3F5D522B4
:10145000C29FD29EC29DC2CDC2CC438780E4754359
:1014600004754201F541F5407B0AFAF9F8AF43AE45
:1014700042AD41AC401205C5AF038F44AF43AE420D
:10148000AD41AC40E47B0AFAF9F81205C58F438EF2
:10149000428D418C40E544C394054011EF2401F591
:1014A00043E43EF542E43DF541E43CF540E5895432
:1014B0000F4420F58943C9A0E543F404F58DD28E8D
:0414C000D299D29C4F
:0114C4002205
:101A1700121A9C7F057E00121A49121A77121A3081
:091A27001219C5120003D2AF220E
:101AAE00121A60121A17E53660FC120046E4F5367B
:021ABE0080F4B2
:030043000218A3FD
:1018A300C0E0C0F0C083C082C0D075D000C000C00B
:1018B30001C002C003C004C005C006C0071213362E
:1018C300D007D006D005D004D003D002D001D00079
:0B18D300D0D0D082D083D0F0D0E03223
:01004200229B
:0E1AD100EF4E600905A1EF1F70F61E80F32294
:101A4900AD07AC06ED4C600E7FE87E03121AD1EDAE
:071A59001D70F11C80EE225C
:10198B0001480001470001450001460001360001F6
:0C199B0037000238000004320000000099
:101A6000E49000CAF0A374E1F0E4A3F0A3F0A3F0C3
:071A7000A3F0A37408F022AB
:1018DE009000CDE0F5329000CCE0F5339000CBE0F7
:1018EE00F5349000CAE0F5357F3F7E427D0F7C00D7
:1018FE00AB35AA34A933A832D3120657400AE4F501
:09190E00357534E1F533F53222A0
:0C1ADF00E4F5D3E5D254FC4402F5D22219
:1019FC00E4F5D57847E6600653D4FCE4F622E5D44A
:0B1A0C0054FC4402F5D4E47848F622B4
:1015390030DE6CA9DBE4FFFEE9FDC3EF9D7480F8A2
:101549006E985027744A2FF58274003EF583E0FDAA
:10155900E5392FFBE5383EFA74DB2BF58274013A45
:10156900F583EDF00FBF00010E80CDAF01E92539FC
:10157900F539E43538F5389001DCE02403FFE4332C
:10158900FEC3E5399FE5389E4012E4F538F539A3E5
:0F159900E0B43D05753701800375360153D4F377
:0115A8002220
:040F6A008C1D8D1E2F
:100F6E00E47849F608F6E51E451D7003021024C309
:100F7E00E51E9440E51D940040507848E670FBE471
:100F8E00784BF6784BE6FFC394405020EF1826FFBF
:100F9E00E418368F82F583120504FF784BE6248A17
:100FAE00F582E43400F583EFF00680D775D5405313
:100FBE00D4FC74C0251EF51E74FF351DF51D784A30
:100FCE00744026F618E436F680427848E670FBE464
:100FDE00784BF6784BE6FF7E00C3951EEE951D50BE
:100FEE0020EF1826FFEE18368F82F583120504FFC8
:100FFE00784BE6248AF582E43400F583EFF0068020
:10100E00D2851ED553D4FCE4F51DF51E7848760125
:06101E00187601020F74B8
:0110240022A9
:1019C5004393105392EF53925F4393A04392404346
:0C19D5009340E4F5FC75FB0875FAE02275
:081AEB008FF930FBFDAFF92279
:101A30004397015396FE4397085396F743970253F3
:091A400096FD5393FD5392FD2223
:011AF90022CA
:1019A8009001DB74FEF0A37401F0A374CCF0E4A3FF
:0D19B800F07B017A0179DB7D04FC020F6AEF
:061AF300ED7C00020F6A09
:101615007B017A0079D1751900751A80850D1B85B6
:041625000E1C7FE038
:1016290090026374FEF0A3E51AF0A3EFF0E4FFEF74
:10163900FD7C00C3951AEC9519501EE51C2DFDEC97
:10164900351B8D82F583120504FE74662FF582E43D
:101659003402F583EEF00F80D67B017A027963E5D7
:0B1669001A2403FDE43519FC020F6A8F
:100046009001DDE012068E02B7B00300B1036BB279
:10005600036EBC007ECC0081E00097E100C2E200A6
:10006600C5F00111F1015BF201E1F30239F4027905
:10007600F502B4F6000003F40219A89001DEE0FED2
:10008600A3E0FDEDFFE48F278E26F525F524020972
:10009600359001DEE0FEA3E0FDEDFFE48F278E261E
:1000A600F525F524F52FF52EF52DF52C9001DB74AD
:0F00B600FEF0A37401F0A374E202022A020B040D
:1000C500E4F509F50AF50B5390EF7F9F121AEBE45F
:1000D500FF121AEB8F0BE4FF121AEB8F09E4FF12E4
:1000E5001AEB8F0A4390109001DB74FEF0A37403A2
:1000F500F0A374F0F0A3E509F0A3E50AF0A3E50B7E
:0C010500F07B017A0179DB7D060203F13A
:10011100E4F509F50A5390EF7F05121AEBE4FF129B
:100121001AEB8F094390105390EF7F35121AEBE4CD
:10013100FF121AEB8F0A4390109001DB74FEF0A3BB
:100141007402F0A374F1F0A3E509F0A3E50AF07BD2
:0A015100017A0179DB7D050203F15C
:10015B009001DEE0FE3395E07527008E26F525F540
:10016B0024AF27FDAC24780812067B8F278E268DB3
:10017B00258C24780812067B8F278E268D258C24C0
:10018B00A3E0FE3395E0750C008E0BF50AF509AF75
:10019B000CFDAC09780812067B8F0C8E0B8D0A8C2C
:1001AB0009E527450CF527E526450BF526E52545FD
:1001BB000AF525E5244509F524A3E0FEA3E0FDEDB2
:1001CB00FFE5274FF527E5264EF526E525F525E531
:0601DB0024F524021025AA
:1001E1009001DEE0F509A3E0F50A5390EF7F50128C
:1001F1001AEB439010121AC0EF30E1F95390EF7FE0
:1002010001121AEBAF0A121AEBAF09121AEB439063
:10021100105390EF7F04121AEB4390109001DB749E
:10022100FEF0A37401F0A374F3F0E4A3F07B017A70
:080231000179DB7D040203F1F9
:100239005390EF7F06121AEB439010121AC0EF3059
:10024900E1F95390EF7FC7121AEB439010121AC0CD
:10025900EF30E1F99001DB74FEF0A37401F0A374AF
:10026900F4F0E4A3F07B017A0179DB7D040203F168
:100279009001DEE0FEA3E0FDEEF530EDF531A3E0FF
:10028900F528E4F529F52AF52FF52EF52DF52C900D
:1002990001DB74FEF0A37401F0A374F6F0E4A3F09B
:1002A9007B017A0179DB7D040203F1020C5590018F
:1002B900DEE0FEA3E0FDEEF522EDF5238522F01246
:1002C90006B402E3008002E8010002F5020002FA26
:1002D900040002FA0800000002FD752B0680159043
:1002E90001E0E070028005752B078008752B0880F6
:1002F90003752B0A0210DB9001DEE0FEA3E0FDEEA0
:10030900F522EDF5238522F01206B4032C008003B3
:10031900310100033E0200034304000345080000C5
:10032900000348752B0680179001E0E070028005F4
:10033900752B07800A752B0880058000752B0A7DAF
:1003490013AF2B1212129001DB74FEF0A37401F0AB
:10035900A374B2F0E4A3F07B017A0179DB7D040296
:1003690003F10212A79001DEE0FEA3E0FDEEF52203
:10037900EDF5238522F01206B4039A0080039F014C
:100389000003AC020003B1040003B308000000033A
:10039900B6752B0680179001E0E070028005752B79
:1003A90007800A752B0880058000752B0A7D13AF1D
:1003B9002B1212127D12AF2B1212127F647E0012C1
:1003C9001AD1121917EF70FA7D10AF2B1212129071
:1003D90001DB74FEF0A37401F0A374BCF0E4A3F094
:0C03E9007B017A0179DB7D04121AF322FB
:10093500E47F80FEFDFCAB27AA26A925A824C312C7
:100945000657704E7513017514007515D185271955
:10095500852618852517852416FBFA7D017FA012AB
:10096500117CE4F50DF50EAE0DAF0EEE3395E0FD01
:10097500FCAB27AA26A925A824D3120657500302A3
:100985000B031216157480250EF50EE4350DF50DC5
:1009950080D5E4FF7E01FDFCAB27AA26A925A82466
:1009A500C312065770557513017514007515D18559
:1009B5002719852618852517852416FBFA7D017FBD
:1009C500A012117CE4F50DF50EAE0DAF0EEE3395CC
:1009D500E0FDFCAB27AA26A925A824D3120657506B
:1009E50003020B03121615E53760FCE4F537748036
:1009F500250EF50EE4350DF50D80CEE4FF7E01FDE7
:100A0500FCAB27AA26A925A824D312065750030212
:100A15000A9EE4FF7E08FDFCA824D31206575079F0
:100A2500E4F50DF50EAE0DAF0EEE3395E0FDFCAB26
:100A350027AA26A925A824D31206575003020B037B
:100A4500E50EAE0D7807CEA2E713CE13D8F8540EF7
:100A550044A0FF7A00AB0E7513017514007515D10E
:100A6500E4751980F518F517F5167D0112117C7BD3
:100A7500017A0079D1751900751A80E4F51BF51C0A
:100A85007FE0121629E53760FCE4F5377480250E02
:100A9500F50EE4350DF50D808CE4F50DF50EAE0D76
:100AA500AF0EEE3395E0FDFCAB27AA26A925A824B9
:100AB500D312065740487513017514007515D1E416
:100AC500751980F518F517F516AB0EAA0D7D027F81
:100AD500A012117C7B017A0079D1751900751A80F5
:100AE500E4F51BF51C7FE0121629E53760FCE4F5FB
:0E0AF500377480250EF50EE4350DF50D80A04A
:010B030022CF
:100B04009001DEE0FEA3E0FDEEF50DEDF50EE4FF51
:100B14007E01FDFCAB27AA26A925A824D3120657DB
:100B24005059E4F50FF510C3E5109420E50F6480E7
:100B340094804003020C39E510250EFDE50F350DB8
:100B4400FC7A0179DB7516017517017518DB7519C7
:100B540000751A08E5102405F51CE4350FF51B7B18
:100B6400017FA012172D7FA0121A8AEF70F8740863
:100B74002510F510E4350FF50F80ACE4FF7E01FD80
:100B8400FCAB27AA26A925A824D3120657407AE449
:0D0B9400FF7E08FDFCA824D3120657506C0C
:100BA100E4F50FF510C3E5109420E50F64809480FF
:100BB1004003020C39E50E2510FDE50D350FFCED66
:100BC100AE047807CEC313CE13D8F9540EF51144F1
:100BD100A0FF7C007A0179DB751601751701751884
:100BE100DB751900751A10E5102405F51CE4350FA5
:100BF100F51B7B0112172D7FA0121A8AEF70F87472
:0C0C0100102510F510E4350FF50F809958
:100C0D007A0179DB7516017517017518DB751900F9
:100C1D00751A20751B00751C057B02AD0EAC0D7F82
:100C2D00A012172D7FA0121A8AEF70F89001DB74B5
:100C3D00FEF0A37401F0A374E2F0E4A3F07B017A5B
:080C4D000179DB7D04021AF3BA
:101AC0005390EF7F05121AEBE4FF121AEB439010CC
:011AD00022F3
:101025005390EF7F03121AEBE4FF121AEBE4FF1261
:101035001AEBE4FF121AEBE4F510F50FF50EF50DBA
:10104500AF27AE26AD25AC24AB10AA0FA90EA80D6F
:10105500C3120657507CE4F514F513F512F511E4A7
:101065007F80FEFDFCAB14AA13A912A811C31206BA
:1010750057502A7FFF121AEB74D12514F58274009C
:101085003513F583EFF0E5142401F514E43513F574
:1010950013E43512F512E43511F51180C27B017A9E
:1010A5000079D1751900751A80E4F51BF51C7FF2DE
:1010B500121629E53760FCE4F537E5102480F510B4
:1010C500E4350FF50FE4350EF50EE4350DF50D029B
:0510D5001045439010DE
:0110DA0022F3
:100C5500E4FFFE9001DCE0FDC3EF9D7480F86E9823
:100C6500502774DE2FF58274013EF583E0FDE52AF9
:100C75002FFBE5293EFA74D12BF58274003AF583F2
:100C8500EDF00FBF00010E80CA9001DCE0252AF5CA
:100C95002AE43529F529E0FFE4FCFDFEE52F2FF5D3
:100CA5002FEE352EF52EED352DF52DEC352CF52CBD
:100CB500C3E52A9531E52995305003020D73AE3011
:100CC500AF31AB07AA06E52F9BF510E52E9AF50F78
:100CD500E52D9400F50EE52C9400F50D5390EF7F6E
:100CE50006121AEB439010121AC0EF30E1F9539037
:100CF500EF7F02121AEBE528B40210AF10AE0FAD6C
:100D05000EAC0D7818120668121AEBAF10AE0FADC7
:100D15000EAC0D7810120668E4121AEBAF10AE0F88
:100D2500AD0EAC0D7808120668E4121AEBE510FF5B
:100D3500E4121AEBE4F511F512C3E5129531E5114C
:100D45009530501B74D12512F58274003511F58349
:100D5500E0FF121AEB0512E5127002051180DA4365
:100D65009010121AC0EF20E0F9E4F529F52A900158
:100D7500DB74FEF0A37401F0A374F6F0E4A3F07B3A
:0A0D8500017A0179DB7D04021AF304
:1010DB00E4F50FF510C3E5109523E50F95224003BA
:1010EB0002117BE4F50DF50EAE0FAF107C007D0207
:1010FB00120553E50E2FFDE50D3EFCAF2B120D8FA8
:10110B00AD07AC06EFFBE50E25E0FFE50D33FE74F6
:10111B00D12FF58274003EF583EBF0ECFBE50E2549
:10112B00E0FFE50D33FE74D22FF58274003EF5839C
:10113B00EBF0050EE50E7002050DC39440E50D6452
:10114B0080948040A37B017A0079D1751900751AC0
:10115B0080E4F51BF51C7FB0121629E53760FCE423
:10116B00F53774802510F510E4350FF50F0210E0FC
:01117B002251
:1012A7009001DEE0FEA3E0FDEEF50DEDF50EE4F5B1
:1012B7000FF510E50DC313FEE50E132510FDE50F21
:1012C7003EFCE51025E0FFE50F33FE74E12FF582C4
:1012D70074013EF583E0FAE51025E0FFE50F33FEE4
:1012E70074E02FF58274013EF583E0FFEFFBAF2B2F
:1012F700120E7D121917EF70FA7F0F7E00121A492E
:101307000510E5107002050FC39410E50F64809473
:101317008040A09001DB74FEF0A37401F0A374B2C7
:0F132700F0E4A3F07B017A0179DB7D04021AF375
:020D8F008F11C2
:100D9100E4F514F515E51104FF74067E00A80708B3
:100DA1008005C333CE33CED8F9FBAA06ED25E0FF8B
:100DB100EC334AF512EF4BF51343B0017F147E007B
:100DC100121AD1E4F516F517E5112404FFE433FEF8
:100DD100C3E5179FEE6480F8E5166480985049E5F5
:100DE100112403C39517FF74017E00A8070880052D
:100DF100C333CE33CED8F9FFE5125EFEE5135F4E65
:100E0100600543B008800353B0F77F147E00121AC7
:100E1100D143B0027F147E00121AD153B0FD0517E1
:100E2100E51770A4051680A0E4F516F5177F147E6A
:100E310000121AD1E59030E11BC3740F9517FF74AE
:100E4100017E00A807088005C333CE33CED8F9420E
:100E510015EE421443B0027F147E00121AD153B032
:100E6100FD0517E51770020516C39410E516648099
:0B0E7100948040B953B0FEAE14AF15E2
:010E7C002253
:060E7D008F118A128B1395
:100E830074057E00A807088005C333CE33CED8F996
:100E9300FFEE4CF514EF4DF51543B0017F147E00C2
:100EA300121AD1E4F516F517E5112403FFE433FE16
:100EB300C3E5179FEE6480F8E5166480985049E512
:100EC300112402C39517FF74017E00A8070880054B
:100ED300C333CE33CED8F9FFE5145EFEE5155F4E7E
:100EE300600543B008800353B0F77F147E00121AE5
:100EF300D143B0027F147E00121AD153B0FD0517FF
:100F0300E51770A4051680A0E4F516F517C3740F52
:100F13009517FF74017E00A807088005C333CE33FD
:100F2300CED8F9FFE5125EFEE5135F4E600543B0D0
:100F330008800353B0F77F147E00121AD143B00226
:100F43007F147E00121AD153B0FD0517E517700206
:100F53000516C39410E5166480948040B053B0FE28
:070F63007F647E00021AD139
:021212008F0D3E
:10121400AF057E00E50D24FEFDEFA805088005C39B
:1012240033CE33CED8F9F50F8E0E43B0017F147E42
:1012340000121AD1E4F510F511E50D2403FFE4338F
:10124400FEC3E5119FEE6480F8E510648098504970
:10125400E50D2402C39511FF74017E00A8070880E0
:1012640005C333CE33CED8F9FFE50E5EFEE50F5F3E
:101274004E600543B008800353B0F77F147E00121C
:101284001AD143B0027F147E00121AD153B0FD0567
:1012940011E51170A4051080A053B0FE7F647E0098
:0312A400021AD15A
:1019170043B0017F907E01121AD1E59070047F01D8
:1019270080027F00EF30E10D7F327E00121AD15323
:0B193700B0FE7F012253B0FE7F0022B3
:030000000213C424
:0C13C400787FE4F6D8FD75814B02140B15
:1003F500E709F608DFFA8046E709F208DFFA803EEA
:1004050088828C83E709F0A3DFFA8032E309F608D6
:10041500DFFA8078E309F208DFFA807088828C833E
:10042500E309F0A3DFFA806489828A83E0A3F608F2
:10043500DFFA805889828A83E0A3F208DFFA804CCC
:1004450080D280FA80C680D4806980F280338010A3
:1004550080A680EA809A80A880DA80E280CA80330C
:1004650089828A83ECFAE493A3C8C582C8CCC58384
:10047500CCF0A3C8C582C8CCC583CCDFE9DEE78054
:100485000D89828A83E493A3F608DFF9ECFAA9F0D3
:10049500EDFB2289828A83ECFAE0A3C8C582C8CC29
:1004A500C583CCF0A3C8C582C8CCC583CCDFEADE42
:1004B500E880DB89828A83E493A3F208DFF980CCA4
:1004C50088F0EF60010E4E60C388F0ED2402B4049D
:1004D5000050B9F582EB2402B4040050AF23234544
:0604E50082239004457320
:1004EB00BB010689828A83E0225002E722BBFE020F
:0904FB00E32289828A83E4932242
:10050400BB010CE58229F582E5833AF583E02250AC
:1005140006E92582F8E622BBFE06E92582F8E222F6
:0D052400E58229F582E5833AF583E4932210
:10053100F8BB010DE58229F582E5833AF583E8F000
:10054100225006E92582C8F622BBFE05E92582C8AC
:02055100F22294
:10055300C2D5EC30E709B2D5E4C39DFDE49CFCEEC3
:1005630030E715B2D5E4C39FFFE49EFE1206E7C34E
:10057300E49DFDE49CFC80031206E730D507C3E449
:060583009FFFE49EFE2232
:1005890075F008758200EF2FFFEE33FECD33CDCC29
:1005990033CCC58233C5829BED9AEC99E5829840AC
:1005A9000CF582EE9BFEED9AFDEC99FC0FD5F0D689
:1005B900E4CEFBE4CDFAE4CCF9A88222B800C1B9B3
:1005C9000059BA002DEC8BF084CFCECDFCE5F0CBF1
:1005D900F97818EF2FFFEE33FEED33FDEC33FCEB2A
:1005E90033FB10D703994004EB99FB0FD8E5E4F9E5
:1005F900FA227818EF2FFFEE33FEED33FDEC33FCD2
:10060900C933C910D7059BE99A4007EC9BFCE99AC5
:10061900F90FD8E0E4C9FAE4CCFB2275F010EF2F0A
:10062900FFEE33FEED33FDCC33CCC833C810D7070A
:100639009BEC9AE899400AED9BFDEC9AFCE899F845
:0E0649000FD5F0DAE4CDFBE4CCFAE4C8F922D8
:10065700EB9FF5F0EA9E42F0E99D42F0E89C45F0F9
:010667002270
:10066800E8600FECC313FCED13FDEE13FEEF13FF70
:03067800D8F12294
:10067B00E8600FEFC333FFEE33FEED33FDEC33FCDD
:03068B00D8F12281
:10068E00D083D082F8E4937012740193700DA3A3FB
:10069E0093F8740193F5828883E47374029368600F
:0606AE00EFA3A3A380DF0F
:1006B400D083D082F8E4937012740193700DA3A3D5
:1006C40093F8740193F5828883E473740293B5F00C
:0D06D400067403936860E9A3A3A3A380D874
:0606E1008A838982E473A4
:1013D000021AAEE493A3F8E493A34003F68001F26B
:1013E00008DFF48029E493A3F85407240CC8C3331E
:1013F000C4540F4420C8834004F456800146F6DFED
:10140000E4800B010204081020408090198BE47ED8
:10141000019360BCA3FF543F30E509541FFEE493E1
:10142000A360010ECF54C025E060A840B8E493A3A8
:10143000FAE493A3F8E493A3C8C582C8CAC583CAD3
:10144000F0A3C8C582C8CAC583CADFE9DEE780BE8B
:0119A700003F
:1006E700BC000BBE0029EF8DF084FFADF022E4CCF7
:1006F700F875F008EF2FFFEE33FEEC33FCEE9DECC0
:10070700984005FCEE9DFE0FD5F0E9E4CEFD22ED05
:10071700F8F5F0EE8420D21CFEADF075F008EF2F4F
:10072700FFED33FD4007985006D5F0F222C398FD40
:050737000FD5F0EA22DD
:00000001FF
