:040000005DEF00F0C0
:100008004E82D9CF05F0DACF06F09EAA0EEF00F0A7
:1000180010EF00F057EF00F0000E4D24D96EDA6AA9
:10002800020EDA22AECFDFFF4D2A030E4D18D8A4F8
:1000380020EF00F022EF00F024EF00F001C24BF0B7
:100048004B50D8B42AEF00F02CEF00F056EF00F038
:100058004D50016E026A4B50036E046A030E03266C
:10006800000E04220150031807E102500418D8A416
:1000780040EF00F042EF00F056EF00F0000E4D6E3A
:10008800000E4B6E02C2E8FF3D0AD8A44EEF00F006
:1000980050EF00F054EF00F0010E4A6E56EF00F0FA
:1000A800010E4C6E9E9A06C0DAFF05C0D9FF4E922B
:0600B80011002DEF13F012
:10100000000037EF0BF083EC13F078EF0BF003C226
:1010100027F02750296E286A22EE04F0DF502A6E4E
:101020002B6A28502A102C6E29502B102D6E2CC0A4
:101030003EF02DC03FF0000E3FBEFF0E406E416EF1
:1010400079EC0BF078EF0BF003C227F02750296EF4
:10105000286A22EE04F0DF502A6E2B6A28502A10EC
:101060002C6E29502B102D6E2CC03EF02DC03FF061
:10107000000E3FBEFF0E406E416E000E3A6E000E37
:101080003B6E000E3C6E000E3D6EFE0EE8CF00F291
:10109000010EE8CF01F2E20EE8CF02F2000EE8CF37
:1010A00003F2000E086E020E096E040E0A6E09ECC1
:1010B00013F078EF0BF0EEEC0CF078EF0BF003C2CE
:1010C00027F02750296E286A22EE04F0DF502A6E9E
:1010D0002B6A28502A10426E29502B10436E8BEF3A
:1010E00008F0060E486EC9EF08F022EE05F0DF505A
:1010F000D8A47DEF08F07FEF08F083EF08F0080E2A
:10110000486EC9EF08F0070E486EC9EF08F00A0EE6
:10111000486EC9EF08F042C027F043C028F02850BD
:10112000000AD8B4A6EF08F0010AD8B4ADEF08F071
:10113000030AD8B4B4EF08F0060AD8B4BBEF08F03D
:101140000C0AD8B4C2EF08F0C9EF08F02750800AA3
:10115000D8B471EF08F0C9EF08F02750000AD8B4EE
:1011600075EF08F0C9EF08F02750000AD8B47FEFF8
:1011700008F0C9EF08F02750000AD8B487EF08F04C
:10118000C9EF08F02750000AD8B487EF08F0C9EF7C
:1011900008F0F4EC10F078EF0BF003C227F02750C2
:1011A000296E286A22EE04F0DF502A6E2B6A28503E
:1011B0002A10426E29502B10436EF9EF08F0060EEC
:1011C000486E37EF09F022EE05F0DF50D8A4EBEFC0
:1011D00008F0EDEF08F0F1EF08F0080E486E37EF79
:1011E00009F0070E486E37EF09F00A0E486E37EF28
:1011F00009F042C027F043C028F02850000AD8B4B4
:1012000014EF09F0010AD8B41BEF09F0030AD8B4AF
:1012100022EF09F0060AD8B429EF09F00C0AD8B475
:1012200030EF09F037EF09F02750800AD8B4DFEF2C
:1012300008F037EF09F02750000AD8B4E3EF08F0C0
:1012400037EF09F02750000AD8B4EDEF08F037EF78
:1012500009F02750000AD8B4F5EF08F037EF09F08D
:101260002750000AD8B4F5EF08F037EF09F0130E55
:10127000076E485064EC11F0FE0EE8CF00F2010E4C
:10128000E8CF01F2B20EE8CF02F24EEF08F083ECA5
:1012900010F078EF0BF003C227F02750296E286A70
:1012A00022EE04F0DF502A6E2B6A28502A10426E7C
:1012B00029502B10436E77EF09F0060E486EB5EFFC
:1012C00009F022EE05F0DF50D8A469EF09F06BEFCA
:1012D00009F06FEF09F0080E486EB5EF09F0070E40
:1012E000486EB5EF09F00A0E486EB5EF09F042C03E
:1012F00027F043C028F02850000AD8B492EF09F034
:10130000010AD8B499EF09F0030AD8B4A0EF09F0A4
:10131000060AD8B4A7EF09F00C0AD8B4AEEF09F06A
:10132000B5EF09F02750800AD8B45DEF09F0B5EFAA
:1013300009F02750000AD8B461EF09F0B5EF09F0C1
:101340002750000AD8B46BEF09F0B5EF09F0275029
:10135000000AD8B473EF09F0B5EF09F02750000A7E
:10136000D8B473EF09F0B5EF09F0130E076E4850CB
:1013700064EC11F0120E076E485064EC11F0A60EEA
:10138000E82EFED700D069EC13F00009D8A4CBEF0B
:1013900009F0CDEF09F0C3EF09F0100E076E4850C9
:1013A00064EC11F0FE0EE8CF00F2010EE8CF01F27E
:1013B000BC0EE8CF02F24EEF08F0000E326E000EC7
:1013C000336E809A9F0EC5EC13F0000EC5EC13F03F
:1013D000336E000EC5EC13F0316E000EC5EC13F049
:1013E000326E808AFE0EE8CF00F2030EE8CF01F2E3
:1013F000F00EE8CF02F222EE03F031C0DFFF22EE62
:1014000004F032C0DFFF22EE05F033C0DFFF000E34
:10141000086E020E096E060E0A6E09EC13F078EFE4
:101420000BF0000E356E809A050EC5EC13F0000E21
:10143000C5EC13F0346E808A809A350EC5EC13F03B
:10144000000EC5EC13F0356E808AFE0EE8CF00F278
:10145000020EE8CF01F2F10EE8CF02F222EE03F025
:1014600034C0DFFF22EE04F035C0DFFF000E086E4F
:10147000020E096E050E0A6E09EC13F078EF0BF000
:1014800003C227F02750296E286A28C03EF029C0E1
:101490003FF0000E3FBEFF0E406E416E3EC028F092
:1014A0003FC029F040C02AF0276A27C03EF028C07C
:1014B0003FF029C040F02AC041F03EC028F03FC0B4
:1014C00029F040C02AF0276A27C03EF028C03FF02C
:1014D00029C040F02AC041F004C227F02750296EED
:1014E000286A28C036F029C037F0000E37BEFF0E3C
:1014F000386E396E36C028F037C029F038C02AF06F
:10150000276A27C036F028C037F029C038F02AC033
:1015100039F036503E1237503F1238504012395091
:10152000411206C227F0275005C228F028C029F032
:101530002A6A29C02AF0296A29102B6E2A502C6E9B
:101540002D6A2CBE2D062D502E6E2B503E122C5087
:101550003F122D5040122E504112FFEC0FF078EF49
:101560000BF003C22FF004C230F0809A500EC5EC8D
:1015700013F0808AD1EC13F0276E27A2C2EF0AF095
:10158000C4EF0AF0BAEF0AF0809A010EC5EC13F02E
:101590003050C5EC13F02F50C5EC13F0808A809AC0
:1015A000040EC5EC13F0808AFE0EE8CF00F2010EA7
:1015B000E8CF01F2F30EE8CF02F24EEF08F0809A86
:1015C000060EC5EC13F0808AD1EC13F0276E27A22B
:1015D000ECEF0AF0EEEF0AF0E4EF0AF0809AC70EA3
:1015E000C5EC13F0808AD1EC13F0276E27A2FBEF35
:1015F0000AF0FDEF0AF0F3EF0AF0FE0EE8CF00F27A
:10160000010EE8CF01F2F40EE8CF02F2000EE8CFAF
:1016100003F251EF08F004C227F0275003C228F06C
:1016200028C029F02A6A29C02AF0296A2910466EA2
:101630002A50476E05C249F0000E456E000E446EFA
:10164000000E3A6E000E3B6E000E3C6E000E3D6EBC
:10165000FE0EE8CF00F2010EE8CF01F2F60EE8CF61
:1016600002F24EEF08F0DCEC0DF078EF0BF022EE1A
:1016700002F0DF50B00AD8B45FEF08F0010AD8B426
:10168000CDEF08F0030AD8B447EF09F00E0AD8B43A
:101690004BEF09F0700AD8B403EF08F02C0AD8B465
:1016A00007EF08F0010AD8B424EF08F0030AD8B411
:1016B0005BEF08F0120AD8B4DDEF09F0010AD8B4E4
:1016C00011EF0AF0030AD8B440EF0AF0010AD8B4C7
:1016D000B1EF0AF0070AD8B4DFEF0AF0010AD8B474
:1016E0000BEF0BF0030AD8B433EF0BF078EF0BF0ED
:1016F0001200800E3E183F1040104110D8A483EF16
:101700000BF085EF0BF0CDEF0BF0010E096E000E24
:101710000B6E000E0A6E000E0C6E010E0D6E3EC0BA
:101720000EF03FC00FF040C010F041C011F0A00E0D
:1017300031EC12F0000E206E000E1F6EB3EF0BF0B6
:10174000000E086E010E096E000E0B6E800E0A6E02
:101750001FC00CF020C00DF0E00EDCEC12F0800E8B
:101760001F26000E20221FC01BF020C01CF0000E00
:101770001CBEFF0E1D6E1E6E3E501B5C3F501C5863
:1017800040501D5841501E58D8A0C9EF0BF0CBEF68
:101790000BF0A0EF0BF0EDEF0CF03F043E1040100B
:1017A0004110D8A4D6EF0BF0D8EF0BF028EF0CF0D7
:1017B000010E096E000E0B6E000E0A6E000E0C6E0E
:1017C000010E0D6E3EC00EF03FC00FF040C010F095
:1017D00041C011F0A00E31EC12F0000E226E000E8E
:1017E000216E0EEF0CF0000E086E010E096E000E59
:1017F0000B6E800E0A6E21C00CF022C00DF0E00EC0
:10180000DCEC12F0210E1B6E760EE82EFED71B2E9E
:10181000FCD700D0800E2126000E222221C01BF012
:1018200022C01CF0000E1CBEFF0E1D6E1E6E3E5030
:101830001B5C3F501C5840501D5841501E58D8A0AA
:1018400024EF0CF026EF0CF0F3EF0BF0EDEF0CF0C3
:10185000415040100AE13E04010E3F58D8A033EF3A
:101860000CF035EF0CF09FEF0CF04150401008E108
:101870003E04080E3F58D8B040EF0CF042EF0CF099
:101880009FEF0CF0000E266E000E256E85EF0CF01B
:10189000010E096E25500A6E0B6A000E0C6E010EC9
:1018A0000D6E800E0E6E000E0F6E000E106E000E8E
:1018B000116E25C01BF026C01CF0070E1D6E1C34D7
:1018C0001C321B321D2E5FEF0CF01B500E0BA009BB
:1018D00031EC12F0000E086E010E096E000E0B6E58
:1018E000800E0A6E000E0D6E000E0C6EE00EDCEC2B
:1018F00012F0210E1B6E760EE82EFED71B2EFCD7A3
:1019000000D0800E2526000E262225C01BF026C002
:101910001CF0000E1CBEFF0E1D6E1E6E3E501B5CAA
:101920003F501C5840501D5841501E58D8A09BEFA6
:101930000CF09DEF0CF048EF0CF0EDEF0CF0000E0A
:10194000246E000E236ED5EF0CF0020E096E23C03C
:101950000AF024C00BF0000E0C6E010E0D6E800E0E
:101960000E6E000E0F6E000E106E000E116EA00EA9
:1019700031EC12F0000E086E010E096E000E0B6EB7
:10198000800E0A6E000E0D6E000E0C6EE00EDCEC8A
:1019900012F0210E1B6E760EE82EFED71B2EFCD702
:1019A00000D0800E2326000E242223C01BF024C06A
:1019B0001CF0000E1CBEFF0E1D6E1E6E3E501B5C0A
:1019C0003F501C5840501D5841501E58D8A0EBEFB6
:1019D0000CF0EDEF0CF0A5EF0CF0120004C21BF0C0
:1019E0001B5003C21CF01CC01DF01E6A1DC01EF05F
:1019F0001D6A1D10206E1E50216E4150401008E1DE
:101A00003E04010E3F58D8B008EF0DF00AEF0DF07C
:101A100043EF0DF0000E236E000E226E20502224A4
:101A2000096E215023200A6E010E0B6E000E0C6E03
:101A3000020E0D6E000E0F6E080E0E6E050E2224A5
:101A4000106E000E2320116EA00E91EC12F0410ECC
:101A50001B6EEE0EE82EFED71B2EFCD700D0080E14
:101A60002226000E232223BE3FEF0DF0235009E172
:101A7000200E225CD8A03FEF0DF041EF0DF00EEFED
:101A80000DF0C7EF0DF0415040100AE13E04010E89
:101A90003F58D8A04EEF0DF050EF0DF0AAEF0DF02B
:101AA0004150401008E13E04080E3F58D8B05BEFAB
:101AB0000DF05DEF0DF0AAEF0DF0000E256E000E9B
:101AC000246E205024241B6E215025201C6E070EEE
:101AD0001D6ED8901C321B321D2E69EF0DF01B506D
:101AE0000E0B1F6E205024241B6E215025201C6ECF
:101AF0001B50096E0A6A010E0B6E000E0C6E020E70
:101B00000D6E000E0F6E100E0E6E050E2424106E5C
:101B1000000E2520116E1F50A00991EC12F0620EEC
:101B20001B6E660EE82EFED71B2EFCD7100E242649
:101B3000000E252225BEA6EF0DF0255009E1200E4E
:101B4000245CD8A0A6EF0DF0A8EF0DF061EF0DF02A
:101B5000C7EF0DF020C009F021C00AF0020E0B6E95
:101B6000000E0C6E020E0D6E000E0F6E200E0E6E2D
:101B7000000E116E050E106EA00E91EC12F0A30E69
:101B80001B6E550EE82EFED71B2EFCD70000FE0E56
:101B9000E8CF00F2010EE8CF01F2E20EE8CF02F248
:101BA000000EE8CF03F2000E086E020E096E040E5E
:101BB0000A6E09EC13F01200000E176E000E166E7E
:101BC000FAEF0DF0030E1624D96E020E1720DA6E0E
:101BD000000E106E010E116E1650102617501122B5
:101BE00044501024E16E45501120E26EDFCFE7FF34
:101BF000164A172A22EE01F0DF50106E116A1050BB
:101C0000165C1750800A126E1150800A1258D8A024
:101C10000CEF0EF00EEF0EF0E2EF0DF001C210F03F
:101C200010504426000E452201C210F010503A26F2
:101C3000000E3B223C223D224650441807E147500B
:101C40004518D8A426EF0EF028EF0EF08DEF0EF019
:101C50004650106E4750116E126A136A10503A5C6B
:101C6000186E11503B58196E12503C581A6E135092
:101C70003D581B6E809A060EC5EC13F0808AD1EC9D
:101C800013F0106E10A247EF0EF049EF0EF03FEF89
:101C90000EF0809A020EC5EC13F0020E4918D8A47B
:101CA00054EF0EF056EF0EF059EF0EF01B50C5EC4E
:101CB00013F01A50C5EC13F01950C5EC13F018507E
:101CC000C5EC13F0000E156E000E146E73EF0EF0DF
:101CD000000E1424D96E010E1520DA6EDF50C5EC0B
:101CE00013F0144A152A4650145C47501558D8A0D2
:101CF0007CEF0EF07EEF0EF068EF0EF0808AD1ECF4
:101D000013F0106E10B087EF0EF089EF0EF07FEF3A
:101D10000EF0000E456E000E446EFE0EE8CF00F28F
:101D2000010EE8CF01F2F60EE8CF02F2000EE8CF86
:101D300003F2000E086E020E096E040E0A6E09EC24
:101D400013F012001C6E000E196E000E186E1CC0EF
:101D500011F0010E1126060E126E000E136E112ADE
:101D6000B5EF0EF0D89012361336112EB2EF0EF0FA
:101D70000FC014F010C015F0D8901436153612505C
:101D80001410166E13501510176E8484210EE82E51
:101D9000FED70000000E1B6E000E1A6EFFEF0EF055
:101DA0001A501C5C116E030E1126010E126E000EED
:101DB000136E112ADFEF0EF0D89012361336112E63
:101DC000DCEF0EF0165012161750131612501310A7
:101DD000D8B4EDEF0EF0EFEF0EF0F2EF0EF08488D6
:101DE000F3EF0EF08498210EE82EFED70000848ACF
:101DF000210EE82EFED70000849A1A4A1B2A1C5096
:101E0000116E126A040E1126000E122211501A5C75
:101E10001B50800A136E1250800A1358D8A013EF7B
:101E20000FF015EF0FF0D0EF0EF0000E1E6E000E4B
:101E30001D6E210EE82EFED7000084A622EF0FF0C3
:101E400024EF0FF038EF0FF01D500F08116E010E48
:101E5000126E000E136E112A31EF0FF0D890123669
:101E60001336112E2EEF0FF01250181213501912B4
:101E7000848A210EE82EFED70000849A1D4A1E2A6D
:101E80001EBE4CEF0FF01E5009E1100E1D5CD8A0D5
:101E90004CEF0FF04EEF0FF019EF0FF0849418C0D5
:101EA0000FF019C010F01200126E12C00BF0050EE8
:101EB0000C6E000E0D6E0B2A61EF0FF0D8900C36F1
:101EC0000D360B2E5EEF0FF007500C100E6E085003
:101ED0000D100F6E8484210EE82EFED70000000E38
:101EE000116E000E106EA4EF0FF01050125C0B6E0E
:101EF000020E0B26010E0C6E000E0D6E0B2A84EFE7
:101F00000FF0D8900C360D360B2E81EF0FF00E50DF
:101F10000C160F500D160C500D10D8B492EF0FF098
:101F200094EF0FF097EF0FF0848898EF0FF08498FC
:101F3000210EE82EFED70000848A210EE82EFED75F
:101F40000000849A104A112A12500B6E0C6A030E7C
:101F50000B26000E0C220B50105C1150800A0D6EE7
:101F60000C50800A0D58D8A0B8EF0FF0BAEF0FF060
:101F700075EF0FF0000E146E000E136E13500F0865
:101F80000B6E010E0C6E000E0D6E0B2ACBEF0FF0D8
:101F9000D8900C360D360B2EC8EF0FF009500C16EA
:101FA0000A500D160C500D10D8B4D9EF0FF0DBEF1E
:101FB0000FF0DEEF0FF08488DFEF0FF08498210E32
:101FC000E82EFED70000848A210EE82EFED70000FE
:101FD000849A134A142A14BEF7EF0FF0145009E143
:101FE000100E135CD8A0F7EF0FF0F9EF0FF0BEEF73
:101FF0000FF08494A60EE82EFED700D01200809A2F
:102000003E04000E3F58000E4058010E4158D8B013
:102010000CEF10F00EEF10F01CEF10F0030EC5ECFB
:1020200013F0000EC5EC13F0000EC5EC13F0000E1B
:10203000C5EC13F02BEF10F0330EC5EC13F0000ECF
:10204000C5EC13F0000EC5EC13F0000EC5EC13F058
:10205000000EC5EC13F0000E136E000E146E000E91
:10206000156E000E166E72EF10F0000E186E000E58
:10207000176E000E1724D96E010E1820DA6E030EAB
:10208000C5EC13F0DF6E174A182A18BE51EF10F096
:10209000185009E1800E175CD8A051EF10F053EFF3
:1020A00010F039EF10F0000E086E010E096E000EF0
:1020B0000B6E800E0A6E000E0D6E000E0C6EF20E90
:1020C000DCEC12F04A50D8B468EF10F06AEF10F070
:1020D00062EF10F0000E4A6E800E1326000E1422DE
:1020E000152216223E50135C3F501458405015588C
:1020F00041501658D8A07FEF10F081EF10F035EF67
:1021000010F0808A120004C215F0155003C216F0B8
:1021100016C017F0186A17C018F0176A17101A6E51
:1021200018501B6E000E1D6E000E1C6ED8901B30DA
:10213000166E1A30156E1C501524076E1D50162091
:10214000086ED8901C34D96E1D34DA6E050ED9266F
:10215000020EDA22DF50176ED8901C34D96E1D346F
:10216000DA6E060ED926020EDA22DF50186E1750EC
:10217000096E18C00AF0485054EC0FF069EC13F0E7
:102180000009D8A4C6EF10F0C8EF10F0BEEF10F0B1
:10219000620E156E660EE82EFED7152EFCD71C4A71
:1021A0001D2A1DBEDDEF10F01D5009E1100E1C5C54
:1021B000D8A0DDEF10F0DFEF10F096EF10F0FE0E7C
:1021C000E8CF00F2010EE8CF01F2B20EE8CF02F242
:1021D000000EE8CF03F2000E086E020E096E040E28
:1021E0000A6E09EC13F01200000E226E000E216E32
:1021F00058EF11F0000E246E000E236E21C007F080
:1022000022C008F0000E0A6E020E096ECFEC11F02B
:10221000235007240F6E24500820106E4850A2EC63
:102220000EF00FC01FF010C020F0D8902334D96EEC
:102230002434DA6E000ED926010EDA221FC0DFFF29
:10224000D8902334D96E2434DA6E010ED926010ECB
:10225000DA222050DF6E234A242A24BE39EF11F0FF
:10226000245009E1400E235CD8A039EF11F03BEF78
:1022700011F0FEEF10F0000E086E010E096E000E58
:102280000B6E800E0A6E000E0D6E000E0C6EB00E00
:10229000DCEC12F04A50D8B450EF11F052EF11F0CC
:1022A0004AEF11F0000E4A6E800E2126000E222207
:1022B0004250215C43502258D8A061EF11F063EFE7
:1022C00011F0FAEF10F012000F6E0FC008F0FE0EC2
:1022D00008260750096E0A6A082A72EF11F0D89092
:1022E00009360A36082E6FEF11F009C00BF00AC04C
:1022F0000CF08484210EE82EFED70000000E0E6E36
:10230000000E0D6EB3EF11F00D500F5C086E020E53
:102310000826010E096E000E0A6E082A93EF11F0CE
:10232000D89009360A36082E90EF11F00B50091696
:102330000C500A1609500A10D8B4A1EF11F0A3EFFF
:1023400011F0A6EF11F08488A7EF11F08498210E08
:10235000E82EFED70000848A210EE82EFED700006A
:10236000849A0D4A0E2A0F50086E096A030E082639
:10237000000E092208500D5C0E50800A0A6E0950AA
:10238000800A0A58D8A0C7EF11F0C9EF11F084EF06
:1023900011F08494A60EE82EFED700D01200000E95
:1023A0000C6E0ABED8EF11F0D6EF11F0DEEF11F08F
:1023B000096C0A1ED8B00A2A010E0C6E08BEE5EFA1
:1023C00011F0E3EF11F0EBEF11F0076C081ED8B03D
:1023D000082A010E0C1A000E0E6E000E0D6E09502A
:1023E0000A10D8B4F6EF11F0F8EF11F020EF12F068
:1023F000010E0B6E00EF12F0D89009360A360B2A48
:102400000AAE05EF12F007EF12F0FCEF11F0D890D2
:102410000D360E360950075C0A500858D8A013EF45
:1024200012F015EF12F01AEF12F00950075E0A5081
:10243000085A0D80D8900A3209320B2E07EF12F09D
:102440000C50D8B426EF12F028EF12F02CEF12F057
:102450000D6C0E1ED8B00E2A0DC007F00EC008F08D
:102460001200166E18EC14F016500EEC14F0010E5B
:1024700009643DEF12F03FEF12F042EF12F00B5003
:1024800008EC14F00A5008EC14F018EC14F0165094
:1024900001090EEC14F0000E176E000E186E000EFF
:1024A000196E000E1A6E64EF12F017500C24D96EDC
:1024B00018500D20DA6EB8EC13F0DF6E010E1726FF
:1024C000000E182219221A22FF0E0E24126EFF0E81
:1024D0000F20136EFF0E1020146EFF0E1120156ECC
:1024E0001250175C135018581450195815501A5898
:1024F000D8A07DEF12F07FEF12F055EF12F00E50E2
:102500000C24126E0F500D20136EFF0E1224D96E84
:10251000FF0E1320DA6EABEC13F0DF6E14EC14F048
:102520001200166E18EC14F016500EEC14F0010E9A
:102530000B649DEF12F09FEF12F0A2EF12F00A5021
:1025400008EC14F0095008EC14F0000E176E000EA1
:10255000186E000E196E000E1A6EC4EF12F01050B5
:102560000C24126E11500D20136E17501224D96EC8
:1025700018501320DA6EDF5008EC14F0010E172605
:10258000000E182219221A220E50126E0F50136ECE
:10259000146A156A1250175C1350185814501958C1
:1025A00015501A58D8A0D7EF12F0D9EF12F0AFEFAC
:1025B00012F014EC14F01200106EFE0EDCEC13F0AE
:1025C0000A50DCEC13F01050DCEC13F0000E126E2D
:1025D000000E116EFDEF12F0115008240E6E125015
:1025E00009200F6E0C500E24D96E0D500F20DA6E9C
:1025F000DF50DCEC13F0114A122A0A50115C0B5028
:102600001258D8A006EF13F008EF13F0ECEF12F019
:102610001200000E0F6E000E0E6E1AEF13F00E5029
:102620000824D96E0F500920DA6EDF50DCEC13F06D
:102630000E4A0F2A0A500B6E0C6A0B500E5C0F509C
:10264000800A0D6E0C50800A0D58D8A02AEF13F0A6
:102650002CEF13F00FEF13F0120002EE00F011EE6A
:1026600004F0EE6AE550E150FCE1E250FAE101EEDF
:1026700000F011EE00F0EE6AE550E150FCE1E250AE
:10268000FAE100EE3AF0140EEE6AE806FDE14E9033
:102690004E92000EF86E00014EEF13F0E7EC13F0CF
:1026A000FAEC13F0F1EC13F002EC14F0F28EF28C71
:1026B0004C50D8B45EEF13F060EF13F064EF13F0FA
:1026C00001EC08F0000E4C6E000058EF13F05DEFC7
:1026D00000F08484030E076E980EE82EFED7072EB6
:1026E000FCD784B676EF13F078EF13F080EF13F099
:1026F000530EE82EFED700008494010E82EF13F0F3
:102700008494000E1200FE0EE8CF00F2010EE8CF16
:1027100001F2CC0EE8CF02F2000EE8CF03F2000E79
:10272000086E020E096E040E0A6E09EC13F0120018
:1027300066CF07F01F0E0716D8A4A1EF13F0A3EF82
:1027400013F098EF13F068B4A8EF13F0AAEF13F0AA
:1027500098EF13F0120098EC13F0668698EC13F0E3
:102760006ACF08F098EC13F0668A66880850120069
:1027700098EC13F0668698EC13F06ACF08F098ECAA
:1027800013F0669A668808501200076E07C0C9FFEA
:10279000C7A0CDEF13F0CFEF13F0C8EF13F0C9507F
:1027A0001200809A050EC5EC13F0000EC5EC13F074
:1027B000086E808A08501200076EACA2E2EF13F098
:1027C000E4EF13F0DDEF13F007C0ADFF1200949CAF
:1027D000948E150EAF6E240EAC6E900EAB6E9D8A6D
:1027E0001200600E9512310E696E280E676E000E93
:1027F000666E1200D70E94169488929A808A200EE4
:10280000C66E1200969A96868486969896941200C2
:10281000086E98EC13F008C06AFF1200086E98EC7E
:1028200013F008C06AFF120098EC13F066841200DF
:0828300098EC13F06680120021
:020000040020DA
:08000000FFFFFFFFFFFFFFFF00
:020000040030CA
:0E0000001D027F7F018991FF0FC00FE00F40AE
:00000001FF
