:020000040800F2
:10000000000002201D1E0008851D00088D1D00082F
:10001000951D00089D1D0008A51D0008000000009A
:10002000000000000000000000000000AD1D0008FE
:10003000BB1D000800000000C91D0008D71D0008F6
:100040006D1E00086D1E00086D1E00086D1E000864
:100050006D1E00086D1E00086D1E00086D1E000854
:100060006D1E00086D1E00086D1E00086D1E000844
:100070006D1E00086D1E00086D1E00086D1E000834
:100080006D1E00086D1E00086D1E000800000000B7
:100090000000000000000000000000006D1E0008CD
:1000A0006D1E00086D1E00086D1E00086D1E000804
:1000B0006D1E00086D1E00086D1E00086D1E0008F4
:1000C0006D1E00086D1E00086D1E00086D1E0008E4
:1000D0006D1E00086D1E00086D1E00080000000067
:1000E0006D1E00086D1E00086D1E00080000000057
:1000F0000000000000000000000000006D1E00086D
:10010000000000006D1E00086D1E00086D1E000836
:1001100000000000000000000000000000000000DF
:100120006D1E00086D1E00086D1E00086D1E000883
:100130006D1E00080000000000000000000000002C
:10014000000000000000000000000000E51D0008A5
:100150006D1E00086D1E00086D1E00086D1E000853
:100160006D1E00086D1E0008000000000000000069
:10017000000000000000000000000000000000007F
:10018000000000006D1E00080000000000000000DC
:080190006D1E00086D1E000841
:1001980010B5054C237833B9044B13B10448AFF3B9
:1001A80000800123237010BDFC0000200000000027
:1001B800EC95000808B5034B1BB103490348AFF39E
:1001C800008008BD0000000000010020EC95000838
:1001D80053B94AB9002908BF00281CBF4FF0FF31A6
:1001E8004FF0FF3000F06AB9ADF1080C6DE904CEAC
:1001F80000F006F8DDF804E0DDE9022304B07047FA
:100208002DE9F047089D0C46002B4ED194468C45AD
:100218008646B2FA82F262D94AB1C2F1200391400D
:1002280020FA03F30CFA02FC194300FA02FE4FEA23
:100238001C471FFA8CF6B1FBF7F44FEA1E4307FB85
:10024800141143EA014304FB06F199420AD91CEB55
:10025800030304F1FF3080F01281994240F20F81CC
:10026800023C6344591A1FFA8EF3B1FBF7F007FBFF
:10027800101143EA014300FB06F69E420AD91CEB23
:10028800030300F1FF3180F0FC809E4240F2F980C8
:10029800634402389B1B40EA044000211DB1D3404F
:1002A8000022C5E90032BDE8F0878B4205D90DB1BF
:1002B800C5E9000100210846F5E7B3FA83F10029F2
:1002C80046D1A34202D39042C0F0F080861A64EB74
:1002D80003030120002DE6D0C5E90063E3E7002A07
:1002E80040F09080A1EB0C044FEA1C481FFA8CF7F1
:1002F8000121B4FBF8F64FEA1E4308FB164443EA13
:10030800044307FB06F0984208D91CEB030306F1E7
:10031800FF3402D2984200F2CD8026461C1A1FFAFA
:100328008EF3B4FBF8F008FB104443EA044300FBE7
:1003380007F79F4208D91CEB030300F1FF3402D2F0
:100348009F4200F2B0802046DB1B40EA0640A5E74A
:10035800C1F120068B4022FA06F71F4320FA06FC5B
:1003680004FA01F343EA0C03F44000FA01F8380CEC
:100378004FEA1349B4FBF0FE1FFA87FC00FB1E444A
:1003880049EA04440EFB0CF9A14502FA01F20AD924
:100398003C190EF1FF3A80F08480A14540F281803B
:1003A800AEF1020E3C44A4EB09041FFA83F9B4FB36
:1003B800F0F300FB134449EA044403FB0CFCA44596
:1003C80007D93C1903F1FF3067D2A44565D9023B30
:1003D8003C4443EA0E40A0FB0293A4EB0C049C426D
:1003E800CE469C4651D34ED055B1B8EB0E0364EBC4
:1003F8000C0404FA06F6CB401E43CC40C5E9006461
:10040800002150E7C2F1200320FA03F10CFA02FCA4
:1004180024FA03F394400C434FEA1C4800FA02FE06
:100428001FFA8CF7B3FBF8F008FB1031230C43EAF2
:10043800014300FB07F1994208D91CEB030300F1C3
:10044800FF362CD299422AD9023863445B1AA4B2E7
:10045800B3FBF8F108FB113344EA034401FB07F34B
:10046800A34208D91CEB040401F1FF3613D2A342BE
:1004780011D902396444E41A41EA004139E70446D3
:10048800F0E6084606E7C845AED2B9EB020E63EBC4
:10049800070C0138A8E73146EDE7034699E73046EF
:1004A800D4E7D6467FE7634402384DE7064623463D
:1004B80008460FE7023E634430E700BF704700BFBD
:1004C80080B400AF084B1B6C074A43F00403136465
:1004D800064B63229A62054B08221A6000BFBD468C
:1004E8005DF8047B704700BF0038024000080040F8
:1004F80080B483B000AF78600D4A7B68D3620C4B40
:1005080000225A620A4B01221A6000BF084B1B697D
:1005180003F00103002BF9D0054B1B69044A23F0B3
:100528000103136100BF0C37BD465DF8047B7047BB
:100538000008004080B483B000AF00237B60104BFC
:100548001B6B0F4A43F0800313630D4B1B6B03F0C7
:1005580080037B607B6800233B60094B1B6B084A68
:1005680043F001031363064B1B6B03F001033B606D
:100578003B6800BF0C37BD465DF8047B704700BF81
:100588000038024080B500AF2B4B1B6C2A4A43F45D
:1005980000131364284B1B6B274A43F002031363B1
:1005A800264B1B68254A23F470431360234B1B68B2
:1005B800224A43F420431360204B5B681F4A43F0F0
:1005C800C00353601D4B9B681C4A23F4704393601F
:1005D8001A4B9B68194A43F420439360174B1B6AD4
:1005E800164A43F080631362144B1B6A134A43F0A4
:1005F80080431362124B134A1A60114B4FF4804226
:100608001A610F4B104A5A600D4B00225A610C4B6D
:1006180000229A600A4B0022DA61094B80221A6292
:10062800074BFE22DA60064BFE229A61044801F06D
:1006380061FF00BF80BD00BF0038024000040240D7
:100648001801002000540040A08601002DE9F04365
:100658008BB004AF3B600346FB710B46BB8013466F
:10066800BB71BB8F002B52D06B461E46398F0B4691
:10067800013B3B618BB20022984691464FF0000245
:100688004FF000034FEAC90343EA58734FEAC80220
:100698008BB200221C4615464FF000024FF00003B3
:1006A800EB0043EA5473E2000B460733DB08DB0038
:1006B800ADEB030D04AB0033FB6000237B610EE060
:1006C800BA8F7B6913441A463B6813441978FA6851
:1006D8007B6913440A461A707B6901337B613B8F3F
:1006E8007A699A42ECDBFB7999B2BB799BB2DB0061
:1006F80098B2BA884FF47A7302933B8F0193FB68E0
:10070800009303460E4802F043F8B54611E0FB7922
:1007180099B2BB799BB2DB0098B2BA884FF47A736E
:1007280002933B8F01933B6800930346044802F011
:100738002FF8002318461C37BD46BDE8F08300BFDC
:100748001801002090B587B004AF3B600346FB71E9
:100758000B46BB711346BB80FB7999B2BB799BB240
:10076800DB0098B2BB699BB2BA884FF47A740294E2
:1007780001933B6800930346034802F003F9002302
:1007880018460C37BD4690BD1801002080B500AF53
:1007980001F06AFB00F01AF8FFF7CCFE08F0AEF99A
:1007A80001F0CAF9FFF7EEFE00F07EF8FFF788FEC9
:1007B800054B1B78002B04D000F0E8FA024B00220E
:1007C8001A7000BFF4E700BF7408002080B594B029
:1007D80000AF07F1200330220021184608F0D6FEAA
:1007E80007F10C0300221A605A609A60DA601A61F5
:1007F8000023BB60274B1B6C264A43F080531364CD
:10080800244B1B6C03F08053BB60BB6800237B60E8
:10081800214B1B68204A43F4404313601E4B1B685E
:1008280003F440437B607B6801233B624FF48033D1
:100838007B620223BB634FF48003FB6319233B6491
:10084800C0237B640223BB640423FB6407F12003F9
:10085800184604F0FBF80346002B01D000F01EF800
:100868000F23FB6002233B6100237B614FF480531D
:10087800BB610023FB6107F10C030321184604F058
:100888005DFB0346002B01D000F008F800BF50378D
:10089800BD4680BD003802400070004080B400AF03
:1008A80072B600BF00BFFDE780B586B000AF174B3A
:1008B8001B6B164A43F00203136304237B60012376
:1008C800BB6002233B613B1D1946114801F074FCD3
:1008D80008237B603B1D19460D4801F06DFC012380
:1008E8007B603B1D19460A4801F066FC02237B60C9
:1008F8000023BB600123FB603B1D1946044801F03F
:100908005BFC00BF1837BD4680BD00BF0038024001
:100918000004024080B586B000AF03463960FB8012
:1009280000237B61FB880133062202FA03F31A468F
:100938003B685B001343BB60012201213C4801F086
:10094800BFFD1420FFF7D4FD00233B6129E0FA889E
:100958003B69D31A0333012202FA03F31A46BB6830
:100968001340002B05D001220421314801F0A8FDD5
:1009780004E0002204212E4801F0A2FD1420FFF714
:10098800B7FD012208212A4801F09AFD1420FFF73B
:10099800AFFD00220821264801F092FD3B69013392
:1009A8003B61FB8804331A463B699342CFD300234B
:1009B800FB6022E01420FFF79BFD1D4B1B6903F031
:1009C8000203002B09D0FB68C3F10F03012202FACE
:1009D80003F31A467B6913437B61012208211448FB
:1009E80001F06EFD1420FFF783FD00220821104856
:1009F80001F066FDFB680133FB60FB680F2BD9D95A
:100A08001420FFF775FD00220121094801F058FD67
:100A180000220421064801F053FD00220821044861
:100A280001F04EFD7B699BB218461837BD4680BD64
:100A38000004024080B586B000AF03463960FB7100
:100A48001346BB80FB79052202FA03F31A463B687A
:100A58001343FB60012201213F4801F031FD1420BE
:100A6800FFF746FD00237B6129E0FA797B69D31AF9
:100A78000233012202FA03F31A46FB681340002BE3
:100A880005D001220421344801F01AFD04E00022B7
:100A98000421314801F014FD1420FFF729FD01223B
:100AA80008212D4801F00CFD1420FFF721FD00223C
:100AB8000821294801F004FD7B6901337B61FB793A
:100AC80003331A467B699342CFD300233B6127E067
:100AD800BA883B69C3F10F0342FA03F303F0010339
:100AE800002B05D0012204211B4801F0E9FC04E099
:100AF80000220421184801F0E3FC1420FFF7F8FC59
:100B080001220821144801F0DBFC1420FFF7F0FC57
:100B180000220821104801F0D3FC3B6901333B61F6
:100B28003B690F2BD4D91420FFF7E2FC00220121E6
:100B3800094801F0C5FC00220421074801F0C0FC67
:100B480000220821044801F0BBFC6420FFF7D0FC18
:100B580000BF1837BD4680BD0004024080B584B090
:100B680000AF03460A46FB711346BB71BA79FB799D
:100B7800023B02FA03F37B8101220121264801F09E
:100B88009FFC1420FFF7B4FC0023FB6028E07A895F
:100B9800FB79991CFB68CB1A42FA03F303F00103B3
:100BA800002B05D0012204211B4801F089FC04E038
:100BB80000220421184801F083FC1420FFF798FC58
:100BC80001220821144801F07BFC1420FFF790FC57
:100BD80000220821104801F073FCFB680133FB6018
:100BE800FB790233FA689A42D1DD002201210A48D2
:100BF80001F066FC00220421074801F061FC002294
:100C08000821054801F05CFC6420FFF771FC00BF77
:100C18001037BD4680BD00BF0004024080B500AF5C
:100C2800012201210F4801F04BFC4FF4C870FFF777
:100C38005FFC0C4B1B6903F00203002B09D1322027
:100C4800FFF756FC00220121064801F039FC012378
:100C580005E000220121034801F032FC0023184678
:100C680080BD00BF0004024080B500AF084BFE22E3
:100C78001A70074B01225A70054BCC229A70044B0C
:100C88000022DA700421024800F004F800BF80BD99
:100C98006C01002080B584B000AF78600B467B8083
:100CA8007B881946786808F01FF80346FB7397F9A4
:100CB8000F30002BF4D100BF00BF1037BD4680BDF8
:100CC8002DE9F04389B000AFB96011461A460346D2
:100CD800FB730B46BB811346FB806B461E46BB89E4
:100CE800D91C4B1EBB610A460023904699464FF01B
:100CF80000024FF000034FEAC90343EA58734FEA72
:100D0800C8020A46002314461D464FF000024FF061
:100D18000003EB0043EA5473E2000B460733DB0899
:100D2800DB00ADEB030D6B4600337B617B69FE2274
:100D38001A70BB89DAB27B695A707B69FA7B9A7040
:100D48000023FB610AE0FB69BA681A44FB690333B4
:100D580011787A69D154FB690133FB61BB89FA695F
:100D68009A42F0DBBB8903339BB21946786907F0D6
:100D7800BBFF0346FB7497F91330002BF2D1B5463D
:100D880000BF2437BD46BDE8F083000080B582B0BF
:100D980000AFBA4B9B78B03B462B00F2678301A2A9
:100DA80052F823F031120008BB1200089313000810
:100DB80075140008751400087514000875140008E7
:100DC80075140008751400087514000875140008D7
:100DD80075140008991300087514000875140008A4
:100DE80075140008751400087514000875140008B7
:100DF80075140008751400087514000875140008A7
:100E08007514000875140008751400087514000896
:100E180075140008C90E0008751400087514000838
:100E28007514000875140008751400087514000876
:100E38007514000875140008751400087514000866
:100E48007514000875140008751400087514000856
:100E58007514000875140008751400087514000846
:100E680075140008CF0E0008E90E00082B0F0008C3
:100E78007514000875140008751400087514000826
:100E88007514000875140008751400087514000816
:100E98007514000875140008751400087514000806
:100EA80075140008310F0008BB0F00085B1000081C
:100EB8009D10000843110008DD1100082B120008DE
:100EC800FFF7D2FED3E26D4B1B791A466B4BDB78EA
:100ED8001B0213431A466A4B1A6000F0D3FAC6E2A3
:100EE800664B1B791A46654BDB781B0213431A467F
:100EF800634B1A60634B00221A60322001F026F817
:100F0800614BFE221A70604B01225A705E4BE2223E
:100F18009A705D4B0022DA7004215B48FFF7BAFE35
:100F2800A5E200F061FBA2E20023FB700023BB7086
:100F380000237B70554B9B69544A43F4801393619B
:100F480000219F2000F0CCFE0021002000F0C8FE08
:100F580003467B700021002000F0C2FE0346FB70B0
:100F68000021002000F0BCFE0346BB70484B9B6884
:100F780003F08003002BF9D1444B9B69434A43F0AB
:100F8800100393613D4BFE221A703C4B03225A70AA
:100F98003A4BF0229A70394AFB78D370374ABB78BB
:100FA8001371364A7B78537106213448FFF772FE75
:100FB8005DE200237B7100233B71344B9B69334A0C
:100FC80043F4801393610021052000F089FE00217D
:100FD800002000F085FE03467B712D4B9B6803F0D3
:100FE8008003002BF9D1294B9B69284A43F0100351
:100FF8009361264B9B69254A43F480139361002132
:10100800352000F06DFE0021002000F069FE034647
:101018003B711F4B9B6803F08003002BF9D11B4BDE
:101028009B691A4A43F010039361144BFE221A700D
:10103800124B02225A70114BF1229A700F4A7B7997
:10104800D3700E4A3B79137105210C48FFF722FE35
:101058000DE20A4BDB781A06084B1B791B041A436E
:10106800064B5B791B021343044A927913431A46D1
:10107800034B1A6000F06CFBF9E100BF6C01002023
:101088007C05002084050020740300200000024035
:1010980000300140A44BDB78FB71A34B1B79BB717B
:1010A800A24B9B69A14A43F480139361002150200D
:1010B80000F016FE9E4B9B6803F08003002BF9D1CD
:1010C8009A4B9B69994A43F010039361322000F0D0
:1010D8003DFF964B9B69954A43F480139361002129
:1010E800012000F0FDFDBB790021184600F0F8FD55
:1010F800FB790021184600F0F3FD8D4B9B6803F047
:101108008003002BF9D1894B9B69884A43F010036F
:101118009361322000F01AFF834BFE221A70824B33
:1011280001225A70804BF3229A707F4B0022DA70AA
:1011380004217D48FFF7AEFD99E17C4B9B697B4A12
:1011480043F4801393610021062000F0C9FD784B19
:101158009B6803F08003002BF9D1744B9B69734A99
:1011680043F01003936100BF00F0CAFA034603F08E
:101178000203002BF8D06D4B9B696C4A43F4801333
:1011880093610021C72000F0ABFD694B9B6803F019
:101198008003002BF9D1654B9B69644A43F0100327
:1011A800936100BF00F0ACFA034603F00203002B82
:1011B800F8D05D4BFE221A705B4B01225A705A4BD5
:1011C800F4229A70584B0022DA7004215648FFF72F
:1011D80061FD4CE1544BDB781B021AB2524B1B7970
:1011E8001BB213431BB29AB2524B1A804E4B5A7918
:1011F800514B1A70514B00221A80514B00221A6031
:10120800494BFE221A70484B01225A70464BF6226F
:101218009A70454B0022DA7004214348FFF73AFDE3
:1012280025E100F015FB22E13F4B1B791AB23E4B3A
:10123800DB781B021BB213431BB29AB2414B1A80D4
:10124800404B1B88B3F5006F2CD0B3F5006F2DDC35
:10125800B3F5806F22D0B3F5806F27DCB3F5007F3C
:1012680018D0B3F5007F21DC802B03D0B3F5807F45
:1012780004D01BE0344B06221A7017E02A4B5B7926
:10128800002B03D1304B08221A700FE02E4B072297
:101298001A700BE02C4B08221A7007E02A4B0A221E
:1012A8001A7003E0284B0A221A7000BF00F09EFB58
:1012B800DDE01D4B1B791AB21B4BDB781B021BB2FE
:1012C80013431BB29AB21F4B1A801E4B1B88B3F5EF
:1012D800006F3FD0B3F5006F40DCB3F5806F35D0B9
:1012E800B3F5806F3ADCB3F5007F18D0B3F5007F13
:1012F80034DC802B03D0B3F5807F04D02EE0124B72
:1013080006221A702AE0084B5B79002B03D10E4B9A
:1013180008221A7022E00C4B07221A701EE00A4BB2
:1013280008221A701AE000BF6C0100200000024079
:10133800003001408005002082050020880500203B
:10134800840500208C0500208A0500204A4B0A22CB
:101358001A7003E0484B0A221A7000BF464B1B78EC
:1013680013211846FFF7FAFB444BFE221A70434B31
:1013780001225A70414BB2229A70404B0022DA7017
:1013880004213E48FFF786FC71E000F081FB6EE027
:101398003A4B1B791AB2394BDB781B021BB2134349
:1013A8001BB29AB2364B1A80354B1B88B3F5006FC7
:1013B8002CD0B3F5006F2DDCB3F5806F22D0B3F5D8
:1013C800806F27DCB3F5007F18D0B3F5007F21DCF0
:1013D800802B03D0B3F5807F04D01BE0264B062278
:1013E8001A7017E0254B5B79002B03D1224B08229A
:1013F8001A700FE0204B07221A700BE01E4B0822D0
:101408001A7007E01C4B0A221A7003E01A4B0A22D2
:101418001A7000BF184B1B7813211846FFF79EFB64
:10142800154B1B7812211846FFF798FB6420FFF72D
:101438005FF800BFFFF7F2FB0346002BFAD10E4B13
:101448001B7810211846FFF789FB0C4BFE221A70F7
:101458000A4B01225A70094BBC229A70074B002292
:10146800DA7004210548FFF715FC00E000BF00BF53
:101478000837BD4680BD00BF8A0500206C010020EA
:101488008C05002080B586B002AF544B1B68802BBA
:101498001BD1524B1B680093514B00220121A02005
:1014A800FFF750F90023FB6009E0FB689BB280223C
:1014B8004B49E020FFF704FCFB688033FB60FA68C7
:1014C800464B1B689A42F0D383E0444B1B68B3F544
:1014D800807F23D1414B1B680093414B002201219F
:1014E800A020FFF72FF90023BB6011E0BB689BB277
:1014F80080223B49E020FFF7E3FB00BF394B1B7814
:10150800002BFBD0374B00221A70BB688033BB60BE
:10151800BA68324B1B689A42E8D35AE02F4B1B68D3
:10152800B3F5807F32D92D4B1B68B3F5006F2DD8EA
:1015380000237B6024E07B68DB115BB203F00E03C1
:101548005BB263F05F035BB2D8B27B689BB2DBB27D
:101558009AB280230093224B0121FFF7F3F800236E
:1015680080221F49E020FFF7ABFB00BF1D4B1B7813
:10157800002BFBD01B4B00221A707B6880337B60EA
:101588007A68164B1B689A42D5D322E000233B6049
:1015980019E03B689AB280230093114B0221A020E6
:1015A800FFF7D0F8002380220D49E020FFF788FBE1
:1015B80000BF0C4B1B78002BFBD00A4B00221A7083
:1015C8003B6880333B603A68044B1B689A42E0D31F
:1015D800FFE700BF1037BD4680BD00BF7C05002077
:1015E800740300207508002080B586B002AF414B17
:1015F800DB781B021AB23F4B1B791BB213431BB299
:10160800FB803D4B1B68B3F5807F1DD80023FB6032
:1016180016E0FB689AB2FB88134499B2FB689BB248
:1016280005339BB2019308230093324B0122A0207B
:10163800FFF70CF8052000F089FCFB680833FB6015
:10164800FB681F2BE5DD41E02B4B1B68B3F5807F62
:101658002FD9294B1B68B3F5006F2AD80023BB602C
:1016680023E0FA88BB681344DB11DBB203F00E03F6
:101678007B717B7963F05F03D8B2BB689AB2FB8851
:1016880013449BB2DBB299B2BB689BB205339BB2E1
:10169800019310230093174B0122FEF7D7FF052073
:1016A80000F054FCBB681033BB60BB681F2BD8DD4F
:1016B8000CE0F98805230193202300930D4B0222A7
:1016C800A020FEF7C3FF052000F040FC0B4BFE22D4
:1016D8001A700A4B01225A70084BE2229A70074B83
:1016E8000022DA7004210548FFF7D4FA00BF10374A
:1016F800BD4680BD6C0100207C05002074030020DD
:1017080080B582B000AF104B9B690F4A43F4801339
:1017180093610021052000F0E3FA0021002000F089
:10172800DFFA0346FB71094B9B6803F08003002B2B
:10173800F9D1054B9B69044A43F010039361FB7987
:1017480018460837BD4680BD000002400030014001
:1017580090B583B000AF394B9B69384A43F4801386
:101768009361374B1B68B3F1807F10D800210320A9
:1017780000F0B6FA0021002000F0B2FA00210020A3
:1017880000F0AEFA0021002000F0AAFA13E00021D0
:10179800132000F0A5FA0021002000F0A1FA002192
:1017A800002000F09DFA0021002000F099FA0021A5
:1017B800002000F095FA00237B602AE000233B60BC
:1017C8000CE03B68DC1C0021032000F089FA03468A
:1017D8001A461C4B1A553B6801333B603B687F2B0C
:1017E800EFDD184BFE221A70164B80225A70154BEB
:1017F800F2229A7083211348FFF74CFA00BF124B6C
:101808001B78002BFBD0104B00221A707B688033AA
:101818007B600B4B1B687A689A42CFD30B4B9B6853
:1018280003F08003002BF9D1044B9B69034A43F072
:101838001003936100BF0C37BD4690BD0000024005
:101848007C0500207403002075080020003001404A
:1018580080B584B000AF0023FB600DE0FB68DA1CA4
:101868005A4B1B881946FB680B445949895C594AED
:10187800D154FB680133FB60554B5B781A46FB6813
:101888009342EBDB524B5B781A46504B1B88134450
:101898009AB24E4B1A804E4B5B781A464E4B1B68D9
:1018A80013444D4A1360494B1A884C4B1B889A4283
:1018B80077D1494B1B68494A12889B1A7B60484B71
:1018C8009B69474A43F4801393610021062000F086
:1018D80007FA444B9B6803F08003002BF9D1404B77
:1018E8009B693F4A43F01003936100BFFFF708FF6D
:1018F800034603F00203002BF8D0394B9B69384AA2
:1019080043F4801393610021022000F0E9F9364B7B
:101918001B78022B06D17B681B0EDBB20021184610
:1019280000F0DEF97B681B0CDBB20021184600F0E2
:10193800D7F97B681B0ADBB20021184600F0D0F902
:101948007B68DBB20021184600F0CAF90023BB60AF
:101958000AE0204ABB6813441B780021184600F0AF
:10196800BFF9BB680133BB601C4B1B881A46BB68B8
:101978009342EEDB1B4B9B6803F08003002BF9D1ED
:10198800174B9B69164A43F01003936100BFFFF79A
:10199800B7FE034603F00103012BF8D00B4B0022DE
:1019A8001A800B4BFE221A70094B01225A70084B01
:1019B800F6229A70064B0022DA7004210448FFF7D9
:1019C80069F900BF1037BD4680BD00BF88050020FB
:1019D8006C0100207403002084050020800500208D
:1019E80000000240003001408205002080B584B02C
:1019F80000AF0023FB6037E00023BB6020E0204BF2
:101A08001B781846FB68DA0F13445B101A46BB684C
:101A180013441946FEF77EFF0346FB80BB685B0054
:101A2800FA88D1B2174AD154FB881B0A9AB2BB680C
:101A38005B000133D1B2134AD154BB680133BB6098
:101A4800BB683F2BDBDD002380220E49B020FFF767
:101A580037F900BF0C4B1B78002BFBD00A4B002238
:101A68001A70FB688033FB60084B1B881A46FB68BA
:101A78009342C1DB00BF00BF1037BD4680BD00BF29
:101A88008A05002074030020750800208C050020BA
:101A980090B583B000AF264BDB781B021AB2244BFB
:101AA8001B791BB213431BB27B8000237B6028E0A9
:101AB800204B18787B885B089BB21A467B681344D6
:101AC8001C467B685B000533194AD35C1AB27B68F5
:101AD80003335B001649CB5C1B021BB213431BB2DA
:101AE8009BB21A462146FEF7A5FF00BFFFF796F8FE
:101AF8000346002BFAD10F2000F028FA7B68013347
:101B08007B607B680F2BD3DD094BFE221A70084BD4
:101B180001225A70064BB2229A70054B0022DA70E5
:101B280004210348FFF7B6F800BF0C37BD4690BD47
:101B38006C0100208A05002080B400AF654B1B6B48
:101B4800644A43F001031363624B5B6C614A43F4DC
:101B580080535364604B1B685F4A23F440631360EF
:101B68005D4B1B685C4A43F4006313605A4B5B6827
:101B7800594A23F020035360574B9B68564A43F455
:101B880040639360544B1B6A534A43F4A0031362A7
:101B9800514B1B68504A23F4404313604E4B1B685B
:101BA8004D4A43F4004313604B4B5B684A4A23F0A9
:101BB80080035360484B9B68474A43F44043936013
:101BC800454B1B6A444A43F0A0431362424B1B68CF
:101BD800414A23F4405313603F4B1B683E4A43F489
:101BE800005313603C4B5B683B4A23F0400353604F
:101BF800394B9B68384A43F440539360364B1B6A11
:101C0800354A43F0A0631362334B1B68324A23F40E
:101C180040731360304B1B682F4A43F48073136082
:101C28002D4B5B682C4A23F0100353602A4B9B68AA
:101C3800294A43F440739360284B1B68274A43F0B2
:101C480038031360254B1B68244A23F020031360D4
:101C5800224B1B68214A23F0100313601F4B1B689B
:101C68001E4A23F0020313601C4B1B681B4A23F017
:101C780001031360194B1B68184A23F400631360AF
:101C8800164B1B68154A23F080031360134B1B681F
:101C9800124A43F440731360104B1B680F4A43F019
:101CA800040313600D4B1B680C4A43F04003136098
:101CB8000A4B9B6803F08003002BF9D1064B9B6904
:101CC800054A43F01003936100BFBD465DF8047BED
:101CD800704700BF00380240000002400030014059
:101CE80080B485B000AF03460A46FB711346BB714A
:101CF80000BF0D4B9B6803F00203002BF9D00A4A82
:101D0800FB79D36000BF084B9B6803F00103002BED
:101D1800F9D0054BDB68FB73FB7B18461437BD46CF
:101D28005DF8047B704700BF0030014080B483B089
:101D380000AF00237B60104B5B6C0F4A43F4804379
:101D480053640D4B5B6C03F480437B607B6800231A
:101D58003B60094B1B6C084A43F080531364064BE5
:101D68001B6C03F080533B603B6800BF0C37BD46DB
:101D78005DF8047B704700BF0038024080B400AFB4
:101D880000BFFDE780B400AF00BFFDE780B400AF3F
:101D980000BFFDE780B400AF00BFFDE780B400AF2F
:101DA80000BFFDE780B400AF00BFBD465DF8047B0F
:101DB800704780B400AF00BFBD465DF8047B704734
:101DC80080B400AF00BFBD465DF8047B704780B5A6
:101DD80000AF00F09BF800BF80BD000080B500AFE9
:101DE800024801F005FD00BF80BD00BF780B002050
:101DF80080B400AF064BD3F88830054A43F470032B
:101E0800C2F8883000BFBD465DF8047B704700BF4C
:101E180000ED00E0DFF834D00D480E490E4A0023EB
:101E280002E0D458C4500433C4188C42F9D30B4A86
:101E38000B4C002301E013600432A242FBD3FFF7EE
:101E4800D7FF07F0ABFBFEF7A1FC704700000220AC
:101E580000000020FC00002074960008FC00002010
:101E6800A4120020FEE7000080B500AF0E4B1B68EF
:101E78000D4A43F4007313600B4B1B680A4A43F482
:101E880080631360084B1B68074A43F48073136030
:101E9800032000F04FF90F2000F008F8FFF746FF85
:101EA8000023184680BD00BF003C024080B582B0C8
:101EB80000AF7860124B1A68124B1B7819464FF422
:101EC8007A73B3FBF1F3B2FBF3F3184600F067F94A
:101ED8000346002B01D001230EE07B680F2B0AD8A4
:101EE800002279684FF0FF3000F02FF9064A7B682E
:101EF8001360002300E0012318460837BD4680BD63
:101F080000000020080000200400002080B400AF7A
:101F1800064B1B781A46064B1B681344044A136089
:101F280000BFBD465DF8047B704700BF0800002075
:101F38009005002080B400AF034B1B681846BD46CF
:101F48005DF8047B704700BF9005002080B584B021
:101F580000AF7860FFF7EEFFB8607B68FB60FB6856
:101F6800B3F1FF3F05D00A4B1B781A46FB681344B0
:101F7800FB6000BFFFF7DEFF0246BB68D31AFA68B2
:101F88009A42F7D800BF00BF1037BD4680BD00BFDA
:101F98000800002080B485B000AF78607B6803F04B
:101FA8000703FB600C4BDB68BB60BA684FF6FF03A6
:101FB8001340BB60FB681A02BB68134343F0BF635E
:101FC80043F40033BB60044ABB68D36000BF1437D6
:101FD800BD465DF8047B704700ED00E080B400AFBB
:101FE800044BDB681B0A03F007031846BD465DF87F
:101FF800047B704700ED00E080B483B000AF034677
:10200800FB7197F90730002B0BDBFB7903F01F02FC
:10201800074997F907305B09012000FA02F241F8F5
:10202800232000BF0C37BD465DF8047B704700BF16
:1020380000E100E080B483B000AF03463960FB7173
:1020480097F90730002B0ADB3B68DAB20C4997F99D
:1020580007301201D2B20B4483F800230AE03B6830
:10206800DAB20849FB7903F00F03043B1201D2B23C
:102078000B441A7600BF0C37BD465DF8047B7047E9
:1020880000E100E000ED00E080B489B000AFF86046
:10209800B9607A60FB6803F00703FB61FB69C3F171
:1020A8000703042B28BF0423BB61FB690433062BF9
:1020B80002D9FB69033B00E000237B614FF0FF324C
:1020C800BB6902FA03F3DA43BB681A407B699A409A
:1020D8004FF0FF317B6901FA03F3D9437B680B406A
:1020E800134318462437BD465DF8047B704700004B
:1020F80080B582B000AF78607B68013BB3F1807F28
:1021080001D301230FE00A4A7B68013B53600F218A
:102118004FF0FF30FFF78EFF054B00229A60044B0B
:1021280007221A60002318460837BD4680BD00BF45
:1021380010E000E080B582B000AF78607868FFF703
:1021480029FF00BF0837BD4680BD80B586B000AF07
:102158000346B9607A60FB7300237B61FFF73EFF9B
:1021680078617A68B9687869FFF78EFF024697F94F
:102178000F3011461846FFF75DFF00BF1837BD4600
:1021880080BD80B582B000AF0346FB7197F9073078
:102198001846FFF731FF00BF0837BD4680BD80B540
:1021A80082B000AF78607868FFF7A2FF0346184650
:1021B8000837BD4680BD000080B489B000AF7860A4
:1021C800396000237B6100233B610023BB6100234E
:1021D800FB6159E10122FB6902FA03F37B613B6869
:1021E8001B687A6913403B613A697B699A4240F0FF
:1021F80048813B685B6803F00303012B05D03B680B
:102208005B6803F00303022B30D17B689B68BB61DA
:10221800FB695B00032202FA03F3DB43BA6913404C
:10222800BB613B68DA68FB695B0002FA03F3BA69D1
:102238001343BB617B68BA699A607B685B68BB6162
:102248000122FB6902FA03F3DB43BA691340BB615D
:102258003B685B681B0903F00102FB6902FA03F3A0
:10226800BA691343BB617B68BA695A603B685B68AB
:1022780003F00303032B17D07B68DB68BB61FB69A2
:102288005B00032202FA03F3DB43BA691340BB6124
:102298003B689A68FB695B0002FA03F3BA69134367
:1022A800BB617B68BA69DA603B685B6803F003036B
:1022B800022B23D1FB69DA087B68083253F82230F5
:1022C800BB61FB6903F007039B000F2202FA03F3CB
:1022D800DB43BA691340BB613B681A69FB6903F0C9
:1022E80007039B0002FA03F3BA691343BB61FB6956
:1022F800DA087B680832B96943F822107B681B68E2
:10230800BB61FB695B00032202FA03F3DB43BA6992
:102318001340BB613B685B6803F00302FB695B0029
:1023280002FA03F3BA691343BB617B68BA691A609E
:102338003B685B6803F44033002B00F0A280002365
:10234800FB60574B5B6C564A43F480435364544BD1
:102358005B6C03F48043FB60FB68524AFB699B0893
:10236800023352F82330BB61FB6903F003039B007F
:102378000F2202FA03F3DB43BA691340BB617B689F
:10238800494A934219D07B68484A934213D07B68E4
:10239800474A93420DD07B68464A934207D07B68F0
:1023A800454A934201D1042308E0072306E00323AA
:1023B80004E0022302E0012300E00023FA6902F0AE
:1023C800030292009340BA691343BB613549FB6924
:1023D8009B080233BA6941F82320384B9B68BB61DC
:1023E8003B69DB43BA691340BB613B685B6803F434
:1023F8008013002B03D0BA693B691343BB612F4A92
:10240800BB6993602D4BDB68BB613B69DB43BA69F1
:102418001340BB613B685B6803F40013002B03D0D7
:10242800BA693B691343BB61244ABB69D360234B38
:102438005B68BB613B69DB43BA691340BB613B68BE
:102448005B6803F40033002B03D0BA693B6913437C
:10245800BB611A4ABB695360184B1B68BB613B6977
:10246800DB43BA691340BB613B685B6803F48033A4
:10247800002B03D0BA693B691343BB610F4ABB69A0
:102488001360FB690133FB61FB690F2B7FF6A2AE7A
:1024980000BF00BF2437BD465DF8047B704700BF0E
:1024A80000380240003801400000024000040240A9
:1024B80000080240000C024000100240003C0140AD
:1024C80080B483B000AF78600B467B8013467B7086
:1024D8007B78002B03D07A887B689A6103E07B883D
:1024E8001A047B689A6100BF0C37BD465DF8047B0F
:1024F8007047000080B584B000AF78607B68002B1F
:1025080001D101232BE17B6893F83D30DBB2002B2E
:1025180006D17B68002283F83C20786800F02EF909
:102528007B68242283F83D207B681B681A687B68D7
:102538001B6822F001021A607B681B681A687B68B6
:102548001B6842F400421A607B681B681A687B6843
:102558001B6822F400421A6002F0A8FEF8607B684B
:102568005B68814A934207D8FB68804A934294BFCC
:1025780001230023DBB206E0FB687D4A934294BF47
:1025880001230023DBB2002B01D00123E7E0FB6825
:10259800784AA2FB03239B0CBB607B681B685B68C3
:1025A80023F03F017B681B68BA680A435A607B685E
:1025B8001B681B6A23F03F017B685B686A4A934289
:1025C80002D8BB68013309E0BB684FF4967202FB7E
:1025D80003F3694AA2FB03239B0901337A68126853
:1025E8000B4313627B681B68DB6923F44F4222F0BC
:1025F800FF027B685B685C498B4219D8FB68591EEF
:102608007B685B685B00B1FBF3F3591C40F6FC7315
:102618000B40002B0AD0FB68591E7B685B685B0087
:10262800B1FBF3F30133C3F30B0351E004234FE091
:102638007B689B68002B11D1FB68581E7B68596822
:102648000B465B000B44B0FBF3F30133C3F30B03FE
:10265800002B0CBF01230023DBB212E0FB68581EDD
:102668007B6859680B469B000B4499000B44B0FBF0
:10267800F3F30133C3F30B03002B0CBF0123002337
:10268800DBB2002B01D0012322E07B689B68002B82
:102698000ED1FB68581E7B6859680B465B000B44DB
:1026A800B0FBF3F30133C3F30B0343F400430FE030
:1026B800FB68581E7B6859680B469B000B449900C1
:1026C8000B44B0FBF3F30133C3F30B0343F4404370
:1026D800796809681343CB617B681B681B6823F022
:1026E800C0017B68DA697B681B6A1A437B681B68D0
:1026F8000A431A607B681B689B6823F4034323F032
:10270800FF037A6811697A68D26811437A68126897
:102718000B4393607B681B68DB6823F0FF017B68D1
:102728005A697B689B691A437B681B680A43DA60AD
:102738007B681B681A687B681B6842F001021A6094
:102748007B6800221A647B68202283F83D207B681E
:1027580000221A637B68002283F83E200023184673
:102768001037BD4680BD00BFA08601007F841E00D3
:10277800FF083D0083DE1B43D34D621080B483B055
:1027880000AF786000BF0C37BD465DF8047B70472A
:1027980080B588B002AFF860084611461A4603466D
:1027A8007B810B463B811346FB80FFF7C3FB7861B7
:1027B800FB6893F83D30DBB2202B40F0D9807B6971
:1027C8000093192301226D49F86800F08BFC034639
:1027D800002B01D00223CCE0FB6893F83C30012B9E
:1027E80001D10223C5E0FB68012283F83C20FB6885
:1027F8001B681B6803F00103012B07D0FB681B68EB
:102808001A68FB681B6842F001021A60FB681B68C3
:102818001A68FB681B6822F400621A60FB682122B0
:1028280083F83D20FB68402283F83E20FB680022A5
:102838001A64FB683A6A5A62FB68BA8C5A85FB6864
:102848005B8D9AB2FB681A85FB684D4ADA62F88894
:102858003A8979897B690193BB6A00930346F868D2
:1028680000F0C2FA0346002B52D0012381E07A69B6
:10287800B96AF86800F050FD0346002B0DD0FB68DC
:102888001B6C042B07D1FB681B681A68FB681B6864
:1028980042F400721A6001236BE0FB685B6A1A78E5
:1028A800FB681B681A61FB685B6A5A1CFB685A6202
:1028B800FB681B8D013B9AB2FB681A85FB685B8D30
:1028C8009BB2013B9AB2FB685A85FB681B685B693F
:1028D80003F00403042B1BD1FB681B8D002B17D0BE
:1028E800FB685B6A1A78FB681B681A61FB685B6A9D
:1028F8005A1CFB685A62FB681B8D013B9AB2FB6845
:102908001A85FB685B8D9BB2013B9AB2FB685A85BE
:10291800FB681B8D002BAAD17A69B96AF86800F0A8
:1029280043FD0346002B0DD0FB681B6C042B07D11D
:10293800FB681B681A68FB681B6842F400721A601F
:10294800012316E0FB681B681A68FB681B6842F4E1
:1029580000721A60FB68202283F83D20FB68002281
:1029680083F83E20FB68002283F83C20002300E027
:10297800022318461837BD4680BD00BF020010006C
:102988000000FFFF80B58CB002AFF8600846114622
:102998001A4603467B810B463B811346FB80FFF7B3
:1029A800C9FA7862FB6893F83D30DBB2202B40F01F
:1029B80014827B6A0093192301227B49F86800F08E
:1029C80091FB0346002B01D0022307E2FB6893F832
:1029D8003C30012B01D1022300E2FB68012283F87D
:1029E8003C20FB681B681B6803F00103012B07D020
:1029F800FB681B681A68FB681B6842F001021A60D2
:102A0800FB681B681A68FB681B6822F400621A607E
:102A1800FB68222283F83D20FB68402283F83E2091
:102A2800FB6800221A64FB683A6B5A62FB68BA8E2C
:102A38005A85FB685B8D9AB2FB681A85FB685B4A0E
:102A4800DA62F8883A8979897B6A0193BB6B0093CB
:102A58000346F86800F05EFA0346002B01D0012314
:102A6800BCE1FB681B8D002B13D100233B62FB6884
:102A78001B685B693B62FB681B689B693B623B6A3E
:102A8800FB681B681A68FB681B6842F400721A60CE
:102A980090E1FB681B8D012B1BD1FB681B681A6832
:102AA800FB681B6822F480621A600023FB61FB68E4
:102AB8001B685B69FB61FB681B689B69FB61FB69C1
:102AC800FB681B681A68FB681B6842F400721A608E
:102AD80070E1FB681B8D022B1BD1FB681B681A6811
:102AE800FB681B6822F480621A60FB681B681A681E
:102AF800FB681B6842F400621A600023BB61FB6834
:102B08001B685B69BB61FB681B689B69BB61BB6930
:102B180050E100237B61FB681B685B697B61FB6894
:102B28001B689B697B617B6944E1FB681B8D032BF8
:102B380000F2F180FB681B8D012B23D17A6AB96BF7
:102B4800F86800F079FC0346002B01D0012345E129
:102B5800FB681B681A69FB685B6AD2B21A70FB686B
:102B68005B6A5A1CFB685A62FB681B8D013B9AB270
:102B7800FB681A85FB685B8D9BB2013B9AB2FB68C8
:102B88005A8517E1FB681B8D022B4ED17B6A009397
:102B9800BB6B00220649F86800F0A4FA0346002B34
:102BA80008D001231AE100BF020010000000FFFF57
:102BB80004000100FB681B681A68FB681B6842F484
:102BC80000721A60FB681B681A69FB685B6AD2B2FC
:102BD8001A70FB685B6A5A1CFB685A62FB681B8D9B
:102BE800013B9AB2FB681A85FB685B8D9BB2013B7F
:102BF8009AB2FB685A85FB681B681A69FB685B6AAE
:102C0800D2B21A70FB685B6A5A1CFB685A62FB688E
:102C18001B8D013B9AB2FB681A85FB685B8D9BB2E2
:102C2800013B9AB2FB685A85C4E07B6A0093BB6B90
:102C380000226C49F86800F055FA0346002B01D0D1
:102C48000123CBE0FB681B681A68FB681B6822F449
:102C580080621A60FB681B681A69FB685B6AD2B2FB
:102C68001A70FB685B6A5A1CFB685A62FB681B8D0A
:102C7800013B9AB2FB681A85FB685B8D9BB2013BEE
:102C88009AB2FB685A857B6A0093BB6B0022554950
:102C9800F86800F027FA0346002B01D001239DE0D5
:102CA800FB681B681A68FB681B6842F400721A60AC
:102CB800FB681B681A69FB685B6AD2B21A70FB680A
:102CC8005B6A5A1CFB685A62FB681B8D013B9AB20F
:102CD800FB681A85FB685B8D9BB2013B9AB2FB6867
:102CE8005A85FB681B681A69FB685B6AD2B21A705E
:102CF800FB685B6A5A1CFB685A62FB681B8D013BC8
:102D08009AB2FB681A85FB685B8D9BB2013B9AB24D
:102D1800FB685A854EE07A6AB96BF86800F08CFB5C
:102D28000346002B01D0012358E0FB681B681A6991
:102D3800FB685B6AD2B21A70FB685B6A5A1CFB6854
:102D48005A62FB681B8D013B9AB2FB681A85FB68C7
:102D58005B8D9BB2013B9AB2FB685A85FB681B6886
:102D68005B6903F00403042B24D1FB681B8D032B40
:102D780007D1FB681B681A68FB681B6822F480622D
:102D88001A60FB681B681A69FB685B6AD2B21A7022
:102D9800FB685B6A5A1CFB685A62FB681B8D013B27
:102DA8009AB2FB681A85FB685B8D9BB2013B9AB2AD
:102DB800FB685A85FB681B8D002B7FF4B6AEFB6859
:102DC800202283F83D20FB68002283F83E20FB6820
:102DD800002283F83C20002300E00223184628370D
:102DE800BD4680BD0400010080B588B002AFF86020
:102DF800084611461A4603467B810B463B8113461B
:102E0800FB80FB681B681A68FB681B6842F48072C9
:102E18001A607B6A00933B6A00224FF00111F86840
:102E280000F060F90346002B0DD0FB681B681B6897
:102E380003F48073B3F5807F03D1FB684FF400720D
:102E48001A6403235FE07B89DBB21A46FB681B68C0
:102E580002F0FE021A617B6A3A6A2D49F86800F0AE
:102E6800BBF90346002B01D001234CE000237B6112
:102E7800FB681B685B697B61FB681B689B697B61FE
:102E88007B697A6A396AF86800F046FA0346002BCB
:102E98000DD0FB681B6C042B07D1FB681B681A68F4
:102EA800FB681B6842F400721A6001232BE0FB8860
:102EB800012B05D13B89DAB2FB681B681A6121E056
:102EC8003B891B0A9BB2DAB2FB681B681A617A6AF3
:102ED800396AF86800F020FA0346002B0DD0FB6829
:102EE8001B6C042B07D1FB681B681A68FB681B68FE
:102EF80042F400721A60012305E03B89DAB2FB68EC
:102F08001B681A61002318461837BD4680BD00BFEC
:102F18000200010080B588B002AFF860084611468B
:102F28001A4603467B810B463B811346FB80FB68B0
:102F38001B681A68FB681B6842F480621A60FB68A9
:102F48001B681A68FB681B6842F480721A607B6A07
:102F580000933B6A00224FF00111F86800F0C2F8B4
:102F68000346002B0DD0FB681B681B6803F48073B5
:102F7800B3F5807F03D1FB684FF400721A64032312
:102F8800AAE07B89DBB21A46FB681B6802F0FE02E6
:102F98001A617B6A3A6A5249F86800F01DF90346DB
:102FA800002B01D0012397E000237B61FB681B689D
:102FB8005B697B61FB681B689B697B617B697A6ADB
:102FC800396AF86800F0A8F90346002B0DD0FB68B1
:102FD8001B6C042B07D1FB681B681A68FB681B680D
:102FE80042F400721A60012376E0FB88012B05D1B8
:102FF8003B89DAB2FB681B681A6121E03B891B0A2E
:103008009BB2DAB2FB681B681A617A6A396AF86897
:1030180000F082F90346002B0DD0FB681B6C042BD3
:1030280007D1FB681B681A68FB681B6842F40072CA
:103038001A60012350E03B89DAB2FB681B681A6109
:103048007A6A396AF86800F067F90346002B0DD0F0
:10305800FB681B6C042B07D1FB681B681A68FB68AC
:103068001B6842F400721A60012335E0FB681B6894
:103078001A68FB681B6842F480721A607B6A0093C6
:103088003B6A00224FF00111F86800F02BF8034664
:10309800002B0DD0FB681B681B6803F48073B3F525
:1030A800807F03D1FB684FF400721A64032313E096
:1030B8007B89DBB243F00103DAB2FB681B681A6153
:1030C8007B6A3A6A0649F86800F086F80346002BDE
:1030D80001D0012300E0002318461837BD4680BD03
:1030E8000200010080B584B000AFF860B9603B60B1
:1030F8001346FB7148E03B68B3F1FF3F44D0FEF74D
:1031080019FF0246BB69D31A3A689A4202D33B6850
:10311800002B39D1BB681B0CDBB2012B0DD1FB682E
:103128001B685B69DA43BB6813409BB2002B0CBF7A
:1031380001230023DBB21A460CE0FB681B689B697D
:10314800DA43BB6813409BB2002B0CBF012300235A
:10315800DBB21A46FB799A4216D1FB6800221A6341
:10316800FB68202283F83D20FB68002283F83E207C
:10317800FB681B6C43F02002FB681A64FB680022A2
:1031880083F83C20012323E0BB681B0CDBB2012B36
:103198000DD1FB681B685B69DA43BB6813409BB2BF
:1031A800002B0CBF01230023DBB21A460CE0FB689E
:1031B8001B689B69DA43BB6813409BB2002B0CBFAA
:1031C80001230023DBB21A46FB799A4293D00023ED
:1031D80018461037BD4680BD80B584B000AFF86092
:1031E800B9607A603B6071E0FB681B685B6903F457
:1031F8008063B3F5806F23D1FB681B681A68FB688E
:103208001B6842F400721A60FB681B686FF48062E6
:103218005A61FB6800221A63FB68202283F83D206C
:10322800FB68002283F83E20FB681B6C43F0040215
:10323800FB681A64FB68002283F83C20012367E0DE
:103248007B68B3F1FF3F41D0FEF774FE02463B684E
:10325800D31A7A689A4202D37B68002B36D1BB68AE
:103268001B0CDBB2012B0CD1FB681B685B69DA43D2
:10327800BB6813409BB2002B14BF01230023DBB2B1
:103288000BE0FB681B689B69DA43BB6813409BB281
:10329800002B14BF01230023DBB2002B16D0FB68E0
:1032A80000221A63FB68202283F83D20FB68002275
:1032B80083F83E20FB681B6C43F02002FB681A640D
:1032C800FB68002283F83C20012321E0BB681B0C2B
:1032D800DBB2012B0CD1FB681B685B69DA43BB6866
:1032E80013409BB2002B14BF01230023DBB20BE079
:1032F800FB681B689B69DA43BB6813409BB2002BD1
:1033080014BF01230023DBB2002B7FF46DAF002331
:1033180018461037BD4680BD80B584B000AFF86050
:10332800B9607A6034E0F86800F0E3F80346002BEF
:1033380001D0012334E0BB68B3F1FF3F28D0FEF78A
:10334800F9FD02467B68D31ABA689A4202D3BB6871
:10335800002B1DD1FB681B685B6903F08003802B81
:1033680016D0FB6800221A63FB68202283F83D20F0
:10337800FB68002283F83E20FB681B6C43F02002A8
:10338800FB681A64FB68002283F83C20012307E0ED
:10339800FB681B685B6903F08003802BC3D10023A3
:1033A80018461037BD4680BD80B584B000AFF860C0
:1033B800B9607A6034E0F86800F09BF80346002BA7
:1033C80001D0012334E0BB68B3F1FF3F28D0FEF7FA
:1033D800B1FD02467B68D31ABA689A4202D3BB6829
:1033E800002B1DD1FB681B685B6903F00403042BE9
:1033F80016D0FB6800221A63FB68202283F83D2060
:10340800FB68002283F83E20FB681B6C43F0200217
:10341800FB681A64FB68002283F83C20012307E05C
:10342800FB681B685B6903F00403042BC3D100230A
:1034380018461037BD4680BD80B584B000AFF8602F
:10344800B9607A6049E0FB681B685B6903F01003A8
:10345800102B19D1FB681B686FF010025A61FB68CA
:1034680000221A63FB68202283F83D20FB680022B3
:1034780083F83E20FB681A6CFB681A64FB6800221C
:1034880083F83C20012330E0FEF754FD02467B68B8
:10349800D31ABA689A4202D3BB68002B1DD1FB68C5
:1034A8001B685B6903F04003402B16D0FB680022C1
:1034B8001A63FB68202283F83D20FB68002283F80A
:1034C8003E20FB681B6C43F02002FB681A64FB6813
:1034D800002283F83C20012307E0FB681B685B6936
:1034E80003F04003402BAED1002318461037BD46E9
:1034F80080BD80B483B000AF78607B681B685B696F
:1035080003F48063B3F5806F1BD17B681B686FF48D
:1035180080625A617B6800221A637B68202283F8E4
:103528003D207B68002283F83E207B681B6C43F0BB
:1035380004027B681A647B68002283F83C2001231C
:1035480000E0002318460C37BD465DF8047B704741
:10355800F0B58FB00AAF78607B68002B01D10123EA
:103568000FE17B681B68BB607B6893F8BD34DBB2F6
:10357800002B06D17B68002283F8BC24786805F00C
:10358800FBFC7B68032283F8BD24BB68DB6B03F478
:103598008073002B02D17B6800221A617B681B684C
:1035A800184601F0ACFF7B681B683B607E686D467F
:1035B80006F110040FCC0FC50FCC0FC594E803001B
:1035C80085E80300331D0ECB386801F083FE0346FF
:1035D800002B05D07B68022283F8BD240123D0E0AC
:1035E8007B681B680021184601F09AFF0023FB73D3
:1035F8004AE0FA7B79681346DB0013449B000B44CE
:103608003D3301221A70FA7B79681346DB001344B4
:103618009B000B443C33FA7B1A70FA7BFB7B98B215
:1036280079681346DB0013449B000B44443302467D
:103638001A80FA7B79681346DB0013449B000B441D
:10364800403300221A70FA7B79681346DB00134472
:103658009B000B44483300221A60FA7B79681346B2
:10366800DB0013449B000B444C3300221A60FA7BA6
:1036780079681346DB0013449B000B445433002243
:103688001A60FB7B0133FB73FA7B7B685B689A42A9
:10369800AFD30023FB7344E0FA7B79681346DB0061
:1036A80013449B000B4403F27D2300221A70FA7B1B
:1036B80079681346DB0013449B000B4403F51F7322
:1036C800FA7B1A70FA7B79681346DB0013449B0077
:1036D8000B4403F5207300221A70FA7B79681346AD
:1036E800DB0013449B000B4403F5227300221A608D
:1036F800FA7B79681346DB0013449B000B4403F5FF
:10370800237300221A60FA7B79681346DB0013449E
:103718009B000B4403F5257300221A60FB7B0133E1
:10372800FB73FA7B7B685B689A42B5D37B681B683E
:103738003B607E686D4606F110040FCC0FC50FCCB8
:103748000FC594E8030085E80300331D0ECB3868E5
:1037580001F032FF0346002B05D07B68022283F874
:10376800BD2401230DE07B68002283F838207B68A4
:10377800012283F8BD247B681B68184603F081F892
:10378800002318461437BD46F0BD80B584B000AF9D
:1037980078607B681B68FB607B6893F8BC34012BFE
:1037A80001D1022320E07B68012283F8BC247B68D6
:1037B8009B6A012B09D17B689B69012B05D0FB68AB
:1037C8009B6B43F48032FB689A637B681B681846DE
:1037D80001F084FE7B681B68184603F031F87B68AB
:1037E800002283F8BC24002318461037BD4680BD4C
:1037F80090B58DB000AF78607B681B683B623B6A10
:10380800FB617B681B68184603F0EFF80346002B42
:1038180040F08A847B681B68184603F053F8034617
:10382800002B00F08084FB6903F500639B681B0A8A
:10383800C3F30D027B68C3F8FC247B681B68184639
:1038480003F040F8034603F00203022B07D17B681C
:103858001B685A697B681B6802F002025A617B6820
:103868001B68184603F02EF8034603F01003102BCC
:1038780061D17B681B689A697B681B6822F010021B
:103888009A613B6A1B6ABB61BB6903F00F0213466E
:10389800DB0013449B0003F51E737A68134404335A
:1038A8007B61BB695B0C03F00F03022B24D1BA695F
:1038B80047F6F0731340002B35D07B691969BB6953
:1038C8001B099BB2C3F30A039BB21A46386A02F07B
:1038D80065FE7B691A69BB691B09C3F30A031A44AD
:1038E8007B691A617B691A6ABB691B09C3F30A03FE
:1038F8001A447B691A6216E0BB695B0C03F00F037C
:10390800062B10D17B6803F2C44308221946386A93
:1039180002F044FE7B691A6ABB691B09C3F30A03F8
:103928001A447B691A627B681B689A697B681B6802
:1039380042F010029A617B681B68184602F0C2FFC9
:10394800034603F40023B3F5002F40F0A7800023BB
:103958007B627B681B68184602F0C7FFB86299E073
:10396800BB6A03F00103002B00F08E807B681B68A4
:103978007A6AD2B21146184602F0EBFF38613B6909
:1039880003F00103002B0CD07B6A5A01FB69134436
:1039980003F530631A4601239360796A786800F06A
:1039A800C3FE3B6903F00803002B0CD07B6A5A0165
:1039B800FB69134403F530631A4608239360796A58
:1039C800786800F099FF3B6903F01003002B08D0DA
:1039D8007B6A5A01FB69134403F530631A461023C6
:1039E80093603B6903F00203002B30D03B6A5B69AC
:1039F80003F08003802B09D1FB6903F500635B6842
:103A0800FA6902F5006243F4806353607A6A1346E8
:103A1800DB0013449B0003F51E737A6813440433D8
:103A28007B617B69DB78012B08D17B690022DA7026
:103A38007B6ADBB21946786805F09AFB7B6A5A0103
:103A4800FB69134403F530631A46022393603B690C
:103A580003F02003002B08D07B6A5A01FB6913444A
:103A680003F530631A46202393603B6903F400533F
:103A7800002B09D07B6A5A01FB69134403F53063B4
:103A88001A464FF4005393607B6A01337B62BB6A2A
:103A98005B08BB62BB6A002B7FF462AF7B681B6864
:103AA800184602F00FFF034603F48023B3F5802F76
:103AB80040F0DB807B681B68184602F030FFB86274
:103AC80000237B62CDE0BB6A03F00103002B00F00A
:103AD800C2807B681B687A6AD2B21146184602F027
:103AE80056FF38613B6903F00103002B57D07B6A0E
:103AF80003F00F03012202FA03F3FB60FB6903F5ED
:103B080000635A6BFB68DB43F96901F500611340F8
:103B18004B637B6A5A01FB69134403F510631A4629
:103B2800012393607B681B69012B32D179687A6A1B
:103B38001346DB0013449B000B444C331968786828
:103B48007A6A1346DB0013449B00034448331B681E
:103B5800194478687A6A1346DB0013449B000344CF
:103B68004C3319607B6A002B13D179687A6A134643
:103B7800DB0013449B000B4454331B68002B08D113
:103B88007B6818687B6803F2C4431A46012102F077
:103B98005DFF7B6ADBB21946786805F06EFA3B690F
:103BA80003F00803002B08D07B6A5A01FB69134411
:103BB80003F510631A46082393603B6903F010036A
:103BC800002B08D07B6A5A01FB69134403F5106384
:103BD8001A46102393603B6903F04003002B08D07A
:103BE8007B6A5A01FB69134403F510631A464023A4
:103BF80093603B6903F00203002B23D0796A386A8B
:103C080001F03EFE7A6A1346DB0013449B0038330A
:103C18007A68134404337B617B69DB78012B08D114
:103C28007B690022DA707B6ADBB21946786805F096
:103C3800B1FA7B6A5A01FB69134403F510631A460B
:103C4800022393603B6903F08003002B03D0796A59
:103C5800786800F0DBFC7B6A01337B62BB6A5B0837
:103C6800BB62BB6A002B7FF42EAF7B681B681846CB
:103C780002F028FE034603F00043B3F1004F22D1BF
:103C8800FB6903F500635B68FA6902F5006223F0DB
:103C9800010353607B6893F8F434012B08D17B68E7
:103CA800002283F8F4240021786800F0C3FE02E0C3
:103CB800786805F04FFA7B681B685A697B681B684F
:103CC80002F000425A617B681B68184602F0FAFD50
:103CD800034603F40063B3F5006F12D1FB6903F5E3
:103CE80000639B6803F00103012B02D1786805F09B
:103CF8000BFA7B681B685A697B681B6802F40062D0
:103D08005A617B681B68184602F0DCFD034603F421
:103D18008053B3F5805F40F0B780FB6903F500631B
:103D28005B68FA6902F5006223F0010353607B685F
:103D38001B681021184601F0A3FD0023FB6246E032
:103D4800FB6A5A01FB69134403F510631A464FF6E0
:103D58007F339360FB6A5A01FB69134403F51063D0
:103D68001B68FA6A5101FA690A4402F5106223F4E1
:103D780000131360FB6A5A01FB69134403F53063AF
:103D88001A464FF67F339360FB6A5A01FB69134466
:103D980003F530631B68FA6A5101FA690A4402F5AF
:103DA800306223F400131360FB6A5A01FB69134461
:103DB80003F530631B68FA6A5101FA690A4402F58F
:103DC800306243F000631360FB6A0133FB627B6877
:103DD8005B68FA6A9A42B3D3FB6903F50063DB694F
:103DE800FA6902F5006243F00113D3617B681B6B2B
:103DF800002B16D0FB6903F50063D3F88430FA6909
:103E080002F5006243F00B03C2F88430FB6903F546
:103E180000635B6CFA6902F5006243F00B035364BC
:103E280015E0FB6903F500635B69FA6902F5006256
:103E380043F4005343F02B035361FB6903F500631C
:103E48001B69FA6902F5006243F00B031361FB6911
:103E580003F500631B68FA6902F5006223F4FE6348
:103E680013607B6818687B681B69D9B27B6803F2AA
:103E7800C4431A4602F0EAFD7B681B685A697B68EE
:103E88001B6802F480525A617B681B68184602F06E
:103E980019FD034603F40053B3F5005F24D17B6892
:103EA8001B68184602F0AFFD7B681B68184601F0D6
:103EB80064FD03461A467B68DA607B681C6801F07B
:103EC800E9F901467B68DB68DBB21A46204601F057
:103ED80063FA786805F0F9F87B681B685A697B68AB
:103EE8001B6802F400525A617B681B68184602F08E
:103EF800E9FC034603F00803082B0AD1786805F0AB
:103F0800D6F87B681B685A697B681B6802F0080250
:103F18005A617B681B68184602F0D4FC034603F01C
:103F28008003802B22D13B6A9B6923F080023B6A85
:103F38009A6101237B6214E079687A6A1346DB0090
:103F480013449B000B4403F27F231B78012B05D1FC
:103F58007B6ADBB21946786800F027FB7B6A01337D
:103F68007B627B685B687A6A9A42E5D37B681B68E8
:103F7800184602F0A7FC034603F48013B3F5801F2C
:103F88003BD101237B622BE07B6A5A01FB69134416
:103F980003F510631B68BB6179687A6A1346DB0016
:103FA80013449B000B4440331B78012B15D1BB698C
:103FB800002B12DA79687A6A1346DB0013449B00F7
:103FC8000B443F3301221A707B6ADBB263F07F0334
:103FD800DBB21946786800F0E8FA7B6A01337B6245
:103FE8007B685B687A6A9A42CED37B681B685A6999
:103FF8007B681B6802F480125A617B681B6818464C
:1040080002F060FC034603F40013B3F5001F55D11A
:1040180001237B6245E07B6A5A01FB69134403F57F
:1040280030631B68BB6179687A6A1346DB00134406
:104038009B000B4403F520731B78012B2ED1BB6921
:10404800002B2BDABB6903F480327B68D3F8FC348D
:1040580003F001039A4221D179687A6A1346DB009A
:1040680013449B000B4403F27F2301221A703B6A1E
:104078009B6943F080023B6A9A613B6A5B6903F083
:104088008003002B0AD1FB6903F500635B68FA69BA
:1040980002F5006243F40073536007E07B6A013362
:1040A8007B627B685B687A6A9A42B4D37B681B68D8
:1040B8005A697B681B6802F400125A617B681B68A6
:1040C800184602F0FFFB034603F08043B3F1804F2C
:1040D8000AD1786805F070F87B681B685A697B68B4
:1040E8001B6802F080425A617B681B68184602F020
:1040F800E9FB034603F00403042B15D17B681B6816
:104108005B68BB61BB6903F00403002B02D07868CD
:1041180005F060F87B681B6859687B681B68BA699A
:104128000A435A6000E000BF3437BD4690BD80B5F1
:1041380082B000AF78600B46FB707B6893F8BC34A4
:10414800012B01D1022313E07B68012283F8BC24F0
:104158007B68FA7883F838207B681B68FA78114600
:10416800184602F047FB7B68002283F8BC24002332
:1041780018460837BD4680BD80B584B000AF78606A
:10418800084611461A460346FB700B463B80134609
:10419800BB700023FB7297F90330002B0FDAFB7812
:1041A80003F00F021346DB0013449B0038337A6890
:1041B80013440433FB60FB6801225A700FE0FB785C
:1041C80003F00F021346DB0013449B0003F51E7334
:1041D8007A6813440433FB60FB6800225A70FB784A
:1041E80003F00F03DAB2FB681A703A88FB68DA60EA
:1041F800FB68BA781A71FB685B78002B04D0FB68FF
:104208001B781A46FB681A81BB78022B02D1FB681F
:1042180000225A717B6893F8BC34012B01D1022328
:104228000EE07B68012283F8BC247B681B68F96870
:10423800184601F0C7FB7B68002283F8BC24FB7A90
:1042480018461037BD4680BD80B584B000AF786091
:104258000B46FB7097F90330002B0FDAFB7803F05D
:104268000F021346DB0013449B0038337A6813446B
:104278000433FB60FB6801225A700FE0FB7803F0FF
:104288000F021346DB0013449B0003F51E737A6884
:1042980013440433FB60FB6800225A70FB7803F078
:1042A8000F03DAB2FB681A707B6893F8BC34012BF1
:1042B80001D102230EE07B68012283F8BC247B68CD
:1042C8001B68F968184601F005FC7B68002283F832
:1042D800BC24002318461037BD4680BD80B586B083
:1042E80000AFF8607A603B600B46FB72FB7A03F024
:1042F8000F021346DB0013449B0003F51E73FA6894
:10430800134404337B617B697A681A617B693A6874
:104318009A617B6900221A627B6900225A70FB7AD3
:1043280003F00F03DAB27B691A70FB681B69012B73
:1043380002D17A687B695A61FB7A03F00F03002B7C
:1043480009D1FB681868FB681B69DBB21A467969F2
:1043580001F0E4FE08E0FB681868FB681B69DBB243
:104368001A46796901F092FC002318461837BD46B1
:1043780080BD80B483B000AF78600B46FB70FB78DB
:1043880003F00F0279681346DB0013449B000B44CB
:1043980003F527731B6818460C37BD465DF8047B88
:1043A800704780B586B000AFF8607A603B600B4616
:1043B800FB72FB7A03F00F021346DB0013449B00E9
:1043C8003833FA68134404337B617B697A681A616D
:1043D8007B693A689A617B6900221A627B690122CB
:1043E8005A70FB7A03F00F03DAB27B691A70FB6824
:1043F8001B69012B02D17A687B695A61FB7A03F049
:104408000F03002B09D1FB681868FB681B69DBB236
:104418001A46796901F082FE08E0FB681868FB68B3
:104428001B69DBB21A46796901F030FC0023184693
:104438001837BD4680BD80B584B000AF78600B46A4
:10444800FB70FB7803F00F027B685B689A4201D926
:10445800012350E097F90330002B0FDAFB7803F0C3
:104468000F021346DB0013449B0038337A68134469
:104478000433FB60FB6801225A700DE0FA7813469A
:10448800DB0013449B0003F51E737A68134404335E
:10449800FB60FB6800225A70FB6801229A70FB7867
:1044A80003F00F03DAB2FB681A707B6893F8BC3428
:1044B800012B01D102231EE07B68012283F8BC2472
:1044C8007B681B68F968184602F0C0F8FB7803F0AF
:1044D8000F03002B0AD17B6818687B681B69D9B267
:1044E8007B6803F2C4431A4602F0B0FA7B680022E4
:1044F80083F8BC24002318461037BD4680BD80B51C
:1045080084B000AF78600B46FB70FB7803F00F02B5
:104518007B685B689A4201D9012342E097F903302E
:10452800002B0FDAFB7803F00F021346DB0013446D
:104538009B0038337A6813440433FB60FB6801221C
:104548005A700FE0FB7803F00F021346DB001344A8
:104558009B0003F51E737A6813440433FB60FB6801
:1045680000225A70FB6800229A70FB7803F00F0350
:10457800DAB2FB681A707B6893F8BC34012B01D15E
:1045880002230EE07B68012283F8BC247B681B6849
:10459800F968184602F0C8F87B68002283F8BC2442
:1045A800002318461037BD4680BD80B584B000AFE3
:1045B80078600B46FB7097F90330002B0CDAFB7818
:1045C80003F00F021346DB0013449B0038337A686C
:1045D80013440433FB600CE0FB7803F00F0213462E
:1045E800DB0013449B0003F51E737A6813440433FD
:1045F800FB607B681B68F968184601F0E7FE034614
:10460800FB72FB7A18461037BD4680BD80B58AB06C
:1046180002AF786039607B681B687B617B693B61AE
:104628003A681346DB0013449B0038337A68134416
:104638000433FB60FB681A6AFB689B699A4201D9DC
:1046480001236CE0FB689A69FB681B6AD31AFB615B
:10465800FB68DB68FA699A4202D9FB68DB68FB6190
:10466800FB6903339B08BB612BE0FB689A69FB6815
:104678001B6AD31AFB61FB68DB68FA699A4202D9A4
:10468800FB68DB68FB61FB6903339B08BB61FB6864
:1046980019693B68DAB2FB6998B27B681B69DBB2BF
:1046A80000930346786901F03BFFFB681A69FB69D0
:1046B8001A44FB681A61FB681A6AFB691A44FB68AA
:1046C8001A623B685A013B69134403F510639B69FE
:1046D8009BB2BA699A4209D8FB681A6AFB689B6957
:1046E8009A4203D2FB689B69002BBED1FB689A698A
:1046F800FB681B6A9A4211D83B6803F00F0301223A
:1047080002FA03F3BB603B6903F500635A6BBB68AD
:10471800DB43396901F5006113404B6300231846F8
:104728002037BD4680BD000080B588B000AF7860F6
:1047380039607B681B68FB61FB69BB61FB693C33C3
:1047480004331B687B613B685A01BB69134403F55A
:1047580030639B683B617B681B69012B7BD13B699C
:1047680003F00803002B15D07B69614A934240F29D
:10477800B9803B6903F40043002B00F0B3803B6829
:104788005A01BB69134403F530631A464FF40043DA
:104798009360A7E03B6903F02003002B09D03B6836
:1047A8005A01BB69134403F530631A46202393600A
:1047B80098E03B6903F02803002B40F093807B6965
:1047C8004B4A93420FD93B6903F40043002B0AD0AC
:1047D8003B685A01BB69134403F530631A464FF42A
:1047E800004393607EE03A681346DB0013449B0065
:1047F80003F51E737A6813440433FB60FB68DA69B7
:104808003B685901BB690B4403F530631B69C3F36B
:104818001203D21AFB681A623B68002B14D1FB689A
:104828009B69002B09D17B6818687B6803F2C44335
:104838001A46012102F00AF906E0FB681A69FB68CA
:104848001B6A1A44FB681A613B68DBB21946786830
:1048580004F0F8FB46E07B69264A934224D13B6981
:1048680003F40043002B0AD03B685A01BB69134488
:1048780003F530631A464FF40043936032E03B6916
:1048880003F02003002B08D03B685A01BB6913448E
:1048980003F530631A46202393603B68DBB2194660
:1048A800786804F0CFFB1DE03B68002B14D17968D1
:1048B8003A681346DB0013449B000B4403F5257349
:1048C8001B68002B08D17B6818687B6803F2C44317
:1048D8001A46002102F0BAF83B68DBB2194678683C
:1048E80004F0B0FB002318462037BD4680BD00BF4A
:1048F8000A30544F0A31544F80B586B000AF786003
:1049080039607B681B687B617B693B617B693C33F1
:1049180004331B68FB603B685A013B69134403F589
:1049280030639B68BB60FB68154A93420ED9BB682D
:1049380003F40043002B09D03B685A013B69134438
:1049480003F530631A464FF400439360786804F027
:1049580067FBFB680A4A93420CD97B681B69012BE9
:1049680008D17B6818687B6803F2C4431A460121A2
:1049780002F06CF8002318461837BD4680BD00BF0A
:104988000A30544F80B485B000AF78600B46FB7096
:1049980013463B807B681B685B6ABB60FB78002B17
:1049A80007D13B8819047B681B68BA680A439A6276
:1049B80028E07B681B689B6A1B0CBA681344BB60C1
:1049C8000023FB730DE07B681A68FB7B40339B0078
:1049D80013445B681B0CBA681344BB60FB7B013350
:1049E800FB73FA7BFB78013B9A42ECD33B881804B3
:1049F8007B681968FB78013BBA68024340339B0027
:104A08000B445A60002318461437BD465DF8047BF2
:104A1800704780B483B000AF78600B467B807B68BA
:104A28001B687A885A62002318460C37BD465DF821
:104A3800047B704780B483B000AF78600B46FB708E
:104A480000BF0C37BD465DF8047B704780B586B063
:104A580000AF78607B68002B01D1012367E27B6897
:104A68001B6803F00103002B75D0884B9B6803F08B
:104A78000C03042B0CD0854B9B6803F00C03082B0C
:104A880012D1824B5B6803F48003B3F5800F0BD11E
:104A98007E4B1B6803F40033002B5BD07B685B689C
:104AA800002B57D1012342E27B685B68B3F5803F56
:104AB80006D1764B1B68754A43F4803313601DE0BA
:104AC8007B685B68B3F5A02F0CD1704B1B686F4AED
:104AD80043F4802313606D4B1B686C4A43F48033A6
:104AE80013600BE0694B1B68684A23F4803313603A
:104AF800664B1B68654A23F4802313607B685B68F8
:104B0800002B13D0FDF716FA386108E0FDF712FA0A
:104B180002463B69D31A642B01D9032307E25B4B96
:104B28001B6803F40033002BF0D014E0FDF702FA01
:104B3800386108E0FDF7FEF902463B69D31A642B99
:104B480001D90323F3E1514B1B6803F40033002B15
:104B5800F0D100E000BF7B681B6803F00203002B64
:104B680063D04A4B9B6803F00C03002B0BD0474BD8
:104B78009B6803F00C03082B1CD1444B5B6803F4BF
:104B88008003002B16D1414B1B6803F00203002B56
:104B980005D07B68DB68012B01D00123C7E13B4BC3
:104BA8001B6823F0F8027B681B69DB003749134355
:104BB8000B603AE07B68DB68002B20D0344B012285
:104BC8001A60FDF7B7F9386108E0FDF7B3F9024656
:104BD8003B69D31A022B01D90323A8E12B4B1B688D
:104BE80003F00203002BF0D0284B1B6823F0F802D7
:104BF8007B681B69DB00254913430B6015E0244BD8
:104C080000221A60FDF796F9386108E0FDF792F97D
:104C180002463B69D31A022B01D9032387E11B4BB8
:104C28001B6803F00203002BF0D17B681B6803F0BC
:104C38000803002B36D07B685B69002B16D0154B18
:104C480001221A60FDF776F9386108E0FDF772F97C
:104C580002463B69D31A022B01D9032367E10B4BA8
:104C68005B6F03F00203002BF0D01BE0094B00221E
:104C78001A60FDF75FF938610EE0FDF75BF902464F
:104C88003B69D31A022B07D9032350E100380240AD
:104C980000004742800E4742884B5B6F03F00203D7
:104CA800002BEAD17B681B6803F00403002B00F09B
:104CB80097800023FB75814B1B6C03F08053002BFE
:104CC8000FD10023BB607D4B1B6C7C4A43F08053A3
:104CD80013647A4B1B6C03F08053BB60BB680123E1
:104CE800FB75774B1B6803F48073002B18D1744B4A
:104CF8001B68734A43F480731360FDF71BF938612E
:104D080008E0FDF717F902463B69D31A022B01D9CF
:104D180003230CE16A4B1B6803F48073002BF0D06B
:104D28007B689B68012B06D1644B1B6F634A43F079
:104D3800010313671CE07B689B68052B0CD15F4B54
:104D48001B6F5E4A43F0040313675C4B1B6F5B4A9F
:104D580043F0010313670BE0584B1B6F574A23F0CE
:104D680001031367554B1B6F544A23F00403136761
:104D78007B689B68002B15D0FDF7DCF838610AE0EA
:104D8800FDF7D8F802463B69D31A41F288329342BC
:104D980001D90323CBE0494B1B6F03F00203002B1F
:104DA800EED014E0FDF7C6F838610AE0FDF7C2F866
:104DB80002463B69D31A41F28832934201D9032350
:104DC800B5E03E4B1B6F03F00203002BEED1FB7DD9
:104DD800012B05D1394B1B6C384A23F080531364DF
:104DE8007B689B69002B00F0A180344B9B6803F023
:104DF8000C03082B5CD07B689B69022B41D1314B9B
:104E080000221A60FDF796F8386108E0FDF792F87D
:104E180002463B69D31A022B01D9032387E0274BAB
:104E28001B6803F00073002BF0D17B68DA697B689C
:104E38001B6A1A437B685B6A9B011A437B689B6AFF
:104E48005B08013B1B041A437B68DB6A1B061B4992
:104E580013434B601B4B01221A60FDF76BF8386156
:104E680008E0FDF767F802463B69D31A022B01D91F
:104E780003235CE0114B1B6803F00073002BF0D098
:104E880054E0104B00221A60FDF754F8386108E02E
:104E9800FDF750F802463B69D31A022B01D90323C8
:104EA80045E0064B1B6803F00073002BF0D13DE092
:104EB8007B689B69012B07D1012338E00038024049
:104EC80000700040600047421B4B5B68FB607B68DA
:104ED8009B69012B28D0FB6803F480027B68DB699F
:104EE8009A4221D1FB6803F03F027B681B6A9A4211
:104EF8001AD1FA6847F6C07313407A68526A920169
:104F0800934211D1FB6803F440327B689B6A5B08CB
:104F1800013B1B049A4207D1FB6803F070627B686F
:104F2800DB6A1B069A4201D0012300E000231846E1
:104F38001837BD4680BD00BF0038024080B584B038
:104F480000AF786039607B68002B01D10123CCE089
:104F5800684B1B6803F007033A689A420CD9654B03
:104F68003A68D2B21A70634B1B6803F007033A68B9
:104F78009A4201D00123B8E07B681B6803F0020362
:104F8800002B20D07B681B6803F00403002B05D09E
:104F9800594B9B68584A43F4E05393607B681B68FD
:104FA80003F00803002B05D0534B9B68524A43F487
:104FB80060439360504B9B6823F0F0027B689B68CA
:104FC8004D4913438B607B681B6803F00103002B7A
:104FD80044D07B685B68012B07D1474B1B6803F4FF
:104FE8000033002B19D101237FE07B685B68022B1B
:104FF80003D07B685B68032B07D13F4B1B6803F02A
:105008000073002B09D101236FE03B4B1B6803F0B1
:105018000203002B01D1012367E0374B9B6823F083
:1050280003027B685B68344913438B60FCF782FF9B
:10503800F8600AE0FCF77EFF0246FB68D31A41F2EB
:105048008832934201D903234FE02B4B9B6803F02E
:105058000C027B685B689B009A42EBD1254B1B686E
:1050680003F007033A689A420CD2224B3A68D2B24C
:105078001A70204B1B6803F007033A689A4201D064
:10508800012332E07B681B6803F00403002B08D07F
:10509800194B9B6823F4E0527B68DB68164913437D
:1050A8008B607B681B6803F00803002B09D0124B48
:1050B8009B6823F460427B681B69DB000E4913433D
:1050C8008B6000F021F802460B4B9B681B0903F02C
:1050D8000F030A49CB5C22FA03F3094A1360094B10
:1050E8001B681846FCF7E2FE002318461037BD4639
:1050F80080BD00BF003C0240003802404C960008CA
:1051080000000020040000202DE9B04F90B000AF4F
:1051180000237B630023FB6300233B630023BB6303
:10512800594B9B6803F00C03082B0DD0082B00F299
:10513800A180002B02D0042B03D09BE0534BBB6310
:105148009BE0534BBB6398E04F4B5B6803F03F0316
:105158007B634D4B5B6803F48003002B28D04A4BDC
:105168005B689B0900223B627A623B6AC3F30800D2
:105178000021474B03FB01F2002300FB03F3134418
:10518800434AA0FB0212FA620A46BA62FA6A134458
:10519800FB627B6B0022BB61FA61D7E90623D7E982
:1051A8000A01FBF715F802460B461346FB6353E06A
:1051B800354B5B689B0900223B617A613B69C3F30D
:1051C800080A4FF0000B52465B464FF000004FF0C4
:1051D8000001590141EAD261500102460B46B2EB87
:1051E8000A0863EB0B094FF000024FF000034FEA87
:1051F800891343EA98634FEA8812B2EB080463EB19
:1052080009054FF000024FF00003EB0043EA547326
:10521800E20014461D4614EB0A033B6045EB0B0302
:105228007B604FF000024FF00003D7E900452946A4
:105238008B02214643EA915321468A0210461946B9
:105248007B6B0022BB60FA60D7E90223FAF7C0FF44
:1052580002460B461346FB630B4B5B681B0C03F0C3
:10526800030301335B003B63FA6B3B6BB2FBF3F365
:10527800BB6302E0054BBB6300BFBB6B18464037FE
:10528800BD46BDE8B08F00BF003802400024F400DE
:1052980040787D0180B400AF034B1B681846BD46BB
:1052A8005DF8047B704700BF0000002080B500AFA8
:1052B800FFF7F0FF0246054B9B689B0A03F00703C4
:1052C8000349CB5C22FA03F3184680BD003802403C
:1052D8005C96000884B080B584B000AF786007F1B0
:1052E8001C0080E80E003B6B012B22D17B689B6B76
:1052F80023F480327B689A637B68DB6823F4840339
:1053080023F040037A68D3607B68DB6823F440129B
:105318007B68DA60FB6C012B05D17B68DB6843F4A2
:1053280080127B68DA60786801F0EEFB0346FB7355
:105338001AE07B68DB6843F040027B68DA607868D3
:1053480001F0E2FB0346FB733B6C002B06D17B6844
:105358009B6B43F480327B689A6305E07B689B6BA8
:1053680023F480327B689A63BB6A012B0BD17B687C
:105378009B6843F006027B689A607B689B6843F0F1
:1053880020027B689A60FB7B18461037BD46BDE853
:10539800804004B07047000080B487B000AFF86068
:1053A800B9601346FB71FB79022B65D1BB68414A92
:1053B800934206D9BB68404A934202D20F237B61CD
:1053C80062E0BB683C4A934206D3BB683B4A9342BF
:1053D80002D20E237B6157E0BB68384A934206D35A
:1053E800BB68374A934202D20D237B614CE0BB680D
:1053F800334A934206D3BB68324A934202D80C23FD
:105408007B6141E0BB682F4A934206D9BB682E4AAC
:10541800934202D80B237B6136E0BB682A4A934249
:1054280006D9BB68294A934202D80A237B612BE03C
:10543800BB68264A934206D9BB68254A934202D2E2
:1054480009237B6120E0BB68214A934206D3BB68ED
:10545800204A934202D808237B6115E0BB681D4AA5
:10546800934206D9BB681C4A934202D207237B6148
:105478000AE006237B6107E0FB79002B02D10923B0
:105488007B6101E009237B61FB68DB6823F47052D0
:10549800FB68DA60FB68DA687B699B0203F4705387
:1054A8001A43FB68DA60002318461C37BD465DF8CE
:1054B800047B7047BFACD800C0E1E4000024F400CE
:1054C800807306019F491A01FF2C31013FA44C014A
:1054D80000366E011FABA6010048E80180B483B016
:1054E80000AF78607B689B6843F001027B689A6034
:1054F800002318460C37BD465DF8047B704780B41E
:1055080083B000AF78607B689B6823F001027B68FA
:105518009A60002318460C37BD465DF8047B704737
:1055280080B584B000AF78600B46FB700023FB6049
:105538007B68DB6823F0C0427B68DA60FB78012B6C
:1055480015D17B68DB6843F000527B68DA60012084
:10555800FCF7FCFCFB680133FB60786801F045FA56
:105568000346012B1ED0FB68312BF0D91AE0FB78DB
:10557800002B15D17B68DB6843F080427B68DA60DA
:105588000120FCF7E3FCFB680133FB60786801F05D
:105598002CFA0346002B05D0FB68312BF0D901E02B
:1055A800012305E0FB68322B01D1012300E0002331
:1055B80018461037BD4680BD84B080B586B000AFB0
:1055C800786007F1240080E80E000023FB757B68F3
:1055D800FB6000233B6109E07A683B6940339B002C
:1055E800134400225A603B6901333B613B690E2B2F
:1055F800F2D9FB6C002B1CD1FB6803F500635B68D8
:10560800FA6802F5006243F0020353607B689B6B03
:1056180043F400127B689A637B689B6B23F4002237
:105628007B689A637B689B6B23F480227B689A6310
:105638000BE07B689B6B23F400127B689A637B68A2
:105648009B6B43F400227B689A63FB6803F56063F5
:105658001A4600231360FB6803F500631946FB68CC
:1056680003F500631A460B681360BB6B012B0CD162
:10567800FB6A002B04D10021786800F065F908E086
:105688000121786800F060F903E00321786800F0F0
:105698005BF91021786800F0F3F80346002B01D07D
:1056A8000123FB75786800F01FF90346002B01D031
:1056B8000123FB75FB6803F500631A460023136199
:1056C800FB6803F500631A4600235361FB6803F582
:1056D80000631A460023D36100233B6143E03B6922
:1056E8005A01FB68134403F510631B6803F0004379
:1056F800B3F1004F18D13B69002B0AD13B695A011D
:10570800FB68134403F510631A464FF000631360F7
:1057180013E03B695A01FB68134403F510631A460A
:105728004FF09043136008E03B695A01FB6813444B
:1057380003F510631A46002313603B695A01FB689E
:10574800134403F510631A46002313613B695A0199
:10575800FB68134403F510631A464FF67F339360D2
:105768003B6901333B617B6A3A699A42B7D30023AC
:105778003B6143E03B695A01FB68134403F530631E
:105788001B6803F00043B3F1004F18D13B69002BAD
:105798000AD13B695A01FB68134403F530631A4682
:1057A8004FF00063136013E03B695A01FB68134430
:1057B80003F530631A464FF09043136008E03B69E5
:1057C8005A01FB68134403F530631A46002313603B
:1057D8003B695A01FB68134403F530631A460023FA
:1057E80013613B695A01FB68134403F530631A4699
:1057F8004FF67F3393603B6901333B617B6A3A69BB
:105808009A42B7D3FB6803F500631B69FA6802F58F
:10581800006223F4807313617B6800229A617B68BD
:105828006FF080425A613B6B002B05D17B689B6906
:1058380043F010027B689A617B689A690F4B1343A7
:105848007A689361FB6B002B05D07B689B6943F0FA
:1058580008027B689A61FB6C012B07D17B689B6906
:1058680043F0804343F004037A689361FB7D184654
:105878001837BD46BDE8804004B0704700383C800A
:1058880080B485B000AF786039600023FB60FB68A6
:105898000133FB60FB68134A934201D903231BE0E1
:1058A8007B681B69002BF2DA0023FB603B689B01D5
:1058B80043F020027B681A61FB680133FB60FB68D8
:1058C800084A934201D9032306E07B681B6903F069
:1058D8002003202BF0D0002318461437BD465DF86E
:1058E800047B7047400D030080B485B000AF78603A
:1058F8000023FB60FB680133FB60FB68114A93429D
:1059080001D9032318E07B681B69002BF2DA002316
:10591800FB607B6810221A61FB680133FB60FB683F
:10592800084A934201D9032306E07B681B6903F008
:105938001003102BF0D0002318461437BD465DF82D
:10594800047B7047400D030080B485B000AF7860D9
:105958000B46FB707B68FB60FB6803F500631A6805
:10596800FB78F96801F5006113430B6000231846C2
:105978001437BD465DF8047B704780B487B000AF2C
:1059880078607B683B613B6903F500639B6803F0C3
:105998000603FB60FB68002B02D10023FB750AE0BD
:1059A800FB68022B02D0FB68062B02D10223FB7591
:1059B80001E00F23FB75FB7D18461C37BD465DF8DB
:1059C800047B704780B485B000AF786039607B682D
:1059D800FB603B681B78BB603B685B78012B3AD166
:1059E800FB6803F50063DA693B681B7803F00F0373
:1059F800012101FA03F39BB2F96801F50061134331
:105A0800CB61BB685A01FB68134403F510631B683C
:105A180003F40043002B55D1BB685A01FB681344BB
:105A280003F510631A683B68DB68C3F30A013B6837
:105A38001B799B041943BB689B050B431343BA6846
:105A48005101FA680A4402F5106243F0805343F4A6
:105A58000043136036E0FB6803F50063DA693B68CE
:105A68001B7803F00F03012101FA03F31B04F96803
:105A780001F500611343CB61BB685A01FB6813440D
:105A880003F530631B6803F40043002B1AD1BB688D
:105A98005A01FB68134403F530631A683B68DB68F6
:105AA800C3F30A013B681B799B040B431343BA6891
:105AB8005101FA680A4402F5306243F0805343F416
:105AC80000431360002318461437BD465DF8047B75
