:020000040800F2
:100000000050002055190008DD180008E518000808
:10001000ED180008F5180008FD18000800000000A1
:1000200000000000000000000000000005190008AA
:1000300011190008000000001D1900082919000806
:100040009D1900089D1900089D1900089D190008B8
:100050009D1900089D1900089D1900089D190008A8
:100060009D1900089D1900089D1900089D19000898
:100070009D1900089D1900089D1900089D19000888
:100080009D1900089D1900089D1900089D19000878
:10009000351900089D1900089D1900089D190008D0
:1000A0009D1900089D1900089D1900089D19000858
:1000B0009D1900089D1900089D1900089D19000848
:1000C0009D1900089D1900089D1900089D19000838
:1000D0009D1900089D1900089D1900089D19000828
:1000E0009D1900089D1900089D19000800000000D6
:1000F0000000000000000000000000000000000000
:0C01000000000000000000005FF808F1A3
:10010C0010B5054C237833B9044B13B10448AFF345
:10011C0000800123237010BD7C0100200000000032
:10012C0038A5000808B5034B1BB103490348AFF3CE
:10013C00008008BD000000008001002038A50008E8
:10014C0080B400AF074BDB69064A43F00403D3616C
:10015C00054B47229A62044B08221A6000BFBD4629
:10016C0080BC7047001002400008004080B483B08F
:10017C0000AF78600D4A7B68D3620C4B00225A6248
:10018C000A4B01221A6000BF084B1B6903F00103E4
:10019C00002BF9D0054B1B69044A23F001031361B2
:1001AC0000BF0C37BD4680BC704700BF0008004044
:1001BC0080B588B000AF07F1100300221A605A60B6
:1001CC009A60DA602D4B9B692C4A43F020039361B3
:1001DC002A4B9B6903F02003FB60FB68274B9B6950
:1001EC00264A43F004039361244B9B6903F00403F8
:1001FC00BB60BB68214B9B69204A43F008039361A9
:10020C001E4B9B6903F008037B607B68012208216D
:10021C001B4801F0D7FE00220B211A4801F0D2FE38
:10022C0008233B6101237B610023BB610323FB613A
:10023C0007F110031946124801F040FD0B233B61F6
:10024C0001237B610023BB610323FB6107F11003D6
:10025C0019460C4801F032FD4FF480633B610023DA
:10026C007B610123BB6107F110031946054801F0BE
:10027C0025FD00BF2037BD4680BD00BF00100240E9
:10028C0000080140000C014080B500AF124B134A2E
:10029C001A60114B124A5A600F4B00229A600E4B97
:1002AC000022DA600C4B4FF480421A610A4B002298
:1002BC005A61094B00229A61074B0022DA61064B06
:1002CC0000221A62044801F095FE0346002B01D06F
:1002DC0000F05EF900BF80BD980100200054004082
:1002EC00A086010080B588B000AF786007F11003DC
:1002FC0000221A605A609A60DA607B681B68154AA3
:10030C00934223D1144B9B69134A43F00803936126
:10031C00114B9B6903F00803FB60FB68C0233B6136
:10032C0012237B610323FB6107F1100319460B4871
:10033C0001F0C4FC084BDB69074A43F40013D3619A
:10034C00054BDB6903F40013BB60BB6800BF2037AF
:10035C00BD4680BD0054004000100240000C01401E
:10036C002DE9F0438BB004AF3B600346FB710B46A9
:10037C00BB801346BB71BB8F002B52D06B461E4605
:10038C00398F0B46013B3B618BB20022984691465C
:10039C004FF000024FF000034FEAC90343EA5873D1
:1003AC004FEAC8028BB200221C4615464FF00002E1
:1003BC004FF00003EB0043EA5473E2000B460733A3
:1003CC00DB08DB00ADEB030D04AB0033FB6000235B
:1003DC007B610EE0BA8F7B6913441A463B68134469
:1003EC001978FA687B6913440A461A707B690133E1
:1003FC007B613B8F7A699A42ECDBFB7999B2BB79D2
:10040C009BB2DB0098B2BA884FF47A7302933B8F9D
:10041C000193FB68009303460E4801F02FFFB5468D
:10042C0011E0FB7999B2BB799BB2DB0098B2BA8828
:10043C004FF47A7302933B8F01933B68009303460E
:10044C00044801F01BFF002318461C37BD46BDE8CD
:10045C00F08300BF9801002090B587B004AF3B60DB
:10046C000346FB710B46BB711346BB80FB7999B2FB
:10047C00BB799BB2DB0098B2BB699BB2BA884FF4D4
:10048C007A74029401933B6800930346034801F08D
:10049C00EFFF002318460C37BD4690BD9801002095
:1004AC0080B500AF01F076FA00F018F8FFF780FE87
:1004BC00FFF7EAFE01F044F909F038FBFFF740FEC4
:1004CC00054B1B78002B04D000F0A4FA024B002241
:1004DC001A7000BFF4E700BF3409002080B594B057
:1004EC0000AF07F1280328220021184609F0F2FF7B
:1004FC0007F1140300221A605A609A60DA601A61DC
:10050C003B1D00221A605A609A60DA600123BB62BC
:10051C004FF48033FB6200233B630123BB63022354
:10052C007B644FF48033BB644FF4E013FB6407F13E
:10053C002803184604F024FB0346002B01D000F0DE
:10054C0027F80F237B610223BB610023FB614FF46F
:10055C0080633B6200237B6207F11403022118467F
:10056C0004F090FD0346002B01D000F011F810238D
:10057C007B6000233B613B1D184604F0FDFE0346E7
:10058C00002B01D000F004F800BF5037BD4680BDF1
:10059C0080B400AF72B600BF00BFFDE780B586B077
:1005AC0000AF03463960FB8000237B61FB8801337D
:1005BC00062202FA03F31A463B685B001343BB6046
:1005CC00012201213C4801F0FDFC1420FFF7CEFD77
:1005DC0000233B6129E0FA883B69D31A03330122DB
:1005EC0002FA03F31A46BB681340002B05D0012214
:1005FC000221314801F0E6FC04E0002202212E48E1
:10060C0001F0E0FC1420FFF7B1FD012208212A487B
:10061C0001F0D8FC1420FFF7A9FD00220821264880
:10062C0001F0D0FC3B6901333B61FB8804331A4673
:10063C003B699342CFD30023FB6022E01420FFF7E9
:10064C0095FD1D4B9B6803F48063002B09D0FB6860
:10065C00C3F10F03012202FA03F31A467B69134319
:10066C007B6101220821144801F0ACFC1420FFF737
:10067C007DFD00220821104801F0A4FCFB68013329
:10068C00FB60FB680F2BD9D91420FFF76FFD0022FC
:10069C000121094801F096FC00220221064801F0D4
:1006AC0091FC00220821044801F08CFC7B699BB270
:1006BC0018461837BD4680BD000C014080B586B089
:1006CC0000AF03463960FB711346BB80FB790522F2
:1006DC0002FA03F31A463B681343FB600122012123
:1006EC003F4801F06FFC1420FFF740FD00237B61B5
:1006FC0029E0FA797B69D31A0233012202FA03F357
:10070C001A46FB681340002B05D001220221344805
:10071C0001F058FC04E000220221314801F052FCA7
:10072C001420FFF723FD012208212D4801F04AFC7B
:10073C001420FFF71BFD00220821294801F042FC80
:10074C007B6901337B61FB7903331A467B699342E6
:10075C00CFD300233B6127E0BA883B69C3F10F0379
:10076C0042FA03F303F00103002B05D0012202210E
:10077C001B4801F027FC04E000220221184801F07C
:10078C0021FC1420FFF7F2FC01220821144801F08F
:10079C0019FC1420FFF7EAFC00220821104801F094
:1007AC0011FC3B6901333B613B690F2BD4D91420FD
:1007BC00FFF7DCFC00220121094801F003FC0022B8
:1007CC000221074801F0FEFB00220821044801F039
:1007DC00F9FB6420FFF7CAFC00BF1837BD4680BD8B
:1007EC00000C014080B584B000AF03460A46FB7193
:1007FC001346BB71BA79FB79023B02FA03F37B8196
:10080C0001220121264801F0DDFB1420FFF7AEFC8C
:10081C000023FB6028E07A89FB79991CFB68CB1AD2
:10082C0042FA03F303F00103002B05D0012202214D
:10083C001B4801F0C7FB04E000220221184801F01C
:10084C00C1FB1420FFF792FC01220821144801F08F
:10085C00B9FB1420FFF78AFC00220821104801F094
:10086C00B1FBFB680133FB60FB790233FA689A42F7
:10087C00D1DD002201210A4801F0A4FB0022022153
:10088C00074801F09FFB00220821054801F09AFB64
:10089C006420FFF76BFC00BF1037BD4680BD00BF66
:1008AC00000C014080B500AF012201210F4801F07E
:1008BC0089FB4FF4C870FFF759FC0C4B9B6803F491
:1008CC008063002B09D13220FFF750FC002201215C
:1008DC00064801F077FB012305E0002201210348C3
:1008EC0001F070FB0023184680BD00BF000C0140D6
:1008FC0080B500AF084BFE221A70074B01225A70CC
:10090C00054BCC229A70044B0022DA700421024869
:10091C0000F004F800BF80BDEC01002080B584B06D
:10092C0000AF78600B467B807B881946786809F0AD
:10093C00F3F90346FB7397F90F30002BF4D100BF8A
:10094C0000BF1037BD4680BD2DE9F04389B000AF24
:10095C00B96011461A460346FB730B46BB8113461E
:10096C00FB806B461E46BB89D91C4B1EBB610A46DD
:10097C000023904699464FF000024FF000034FEAD7
:10098C00C90343EA58734FEAC8020A4600231446C7
:10099C001D464FF000024FF00003EB0043EA547386
:1009AC00E2000B460733DB08DB00ADEB030D6B46B7
:1009BC0000337B617B69FE221A70BB89DAB27B69DA
:1009CC005A707B69FA7B9A700023FB610AE0FB6921
:1009DC00BA681A44FB69033311787A69D154FB69FC
:1009EC000133FB61BB89FA699A42F0DBBB890333A3
:1009FC009BB21946786909F08FF90346FB7497F995
:100A0C001330002BF2D1B54600BF2437BD46BDE8EC
:100A1C00F083000080B582B000AFB34B9B78B03B45
:100A2C00462B00F24B8301A252F823F0850E0008EE
:100A3C000F0F0008E70F0008C9100008C9100008C4
:100A4C00C9100008C9100008C9100008C910000816
:100A5C00C9100008C9100008C9100008ED0F0008E3
:100A6C00C9100008C9100008C9100008C9100008F6
:100A7C00C9100008C9100008C9100008C9100008E6
:100A8C00C9100008C9100008C9100008C9100008D6
:100A9C00C9100008C9100008C9100008550B00083F
:100AAC00C9100008C9100008C9100008C9100008B6
:100ABC00C9100008C9100008C9100008C9100008A6
:100ACC00C9100008C9100008C9100008C910000896
:100ADC00C9100008C9100008C9100008C910000886
:100AEC00C9100008C9100008C91000085B0B0008E9
:100AFC00750B0008B70B0008C9100008C9100008D6
:100B0C00C9100008C9100008C9100008C910000855
:100B1C00C9100008C9100008C9100008C910000845
:100B2C00C9100008C9100008C9100008BD0B000846
:100B3C003B0C0008CB0C00080D0D0008A30D0008A1
:100B4C00310E00087F0E0008FFF7D2FEB7E2664BAD
:100B5C001B791A46644BDB781B0213431A46634B12
:100B6C001A6000F0B7FAAAE25F4B1B791A465E4B8B
:100B7C00DB781B0213431A465C4B1A605C4B002259
:100B8C001A60322000F068FF5A4BFE221A70594B43
:100B9C0001225A70574BE2229A70564B0022DA709F
:100BAC0004215448FFF7BAFE89E200F045FB86E2C7
:100BBC000023FB700023BB7000237B7000220821F4
:100BCC004D4801F0FFF99F2000F03AFE002000F0A4
:100BDC0037FE03467B70002000F032FE0346FB70AC
:100BEC00002000F02DFE0346BB70444B9B6803F0C5
:100BFC008003002BF9D1012208213F4801F0E2F9D2
:100C0C00394BFE221A70384B03225A70364BF022A5
:100C1C009A70354AFB78D370334ABB781371324AD9
:100C2C007B78537106213048FFF778FE47E20023AA
:100C3C007B7100233B71002208212F4801F0C2F97F
:100C4C00052000F0FDFD002000F0FAFD03467B714D
:100C5C002A4B9B6803F08003002BF9D10122082159
:100C6C00254801F0AFF900220821234801F0AAF928
:100C7C00352000F0E5FD002000F0E2FD03463B715D
:100C8C001E4B9B6803F08003002BF9D10122082135
:100C9C00194801F097F9144BFE221A70124B0222DC
:100CAC005A70114BF1229A700F4A7B79D3700E4A0D
:100CBC003B79137105210C48FFF730FEFFE10A4B1D
:100CCC00DB781A06084B1B791B041A43064B5B791D
:100CDC001B021343044A927913431A46034B1A60BE
:100CEC0000F05AFBEBE100BFEC010020FC050020FA
:100CFC0004060020F40300200008014000300140ED
:100D0C009F4BDB78FB719E4B1B79BB71002208213A
:100D1C009C4801F057F9502000F092FD9A4B9B68CB
:100D2C0003F08003002BF9D101220821954801F032
:100D3C0049F9322000F090FE00220821914801F080
:100D4C0041F9012000F07CFDBB79184600F078FDDC
:100D5C00FB79184600F074FD8B4B9B6803F0800305
:100D6C00002BF9D101220821864801F02BF9322001
:100D7C0000F072FE824BFE221A70814B01225A70D7
:100D8C007F4BF3229A707E4B0022DA7004217C4850
:100D9C00FFF7C4FD93E1002208217A4801F012F913
:100DAC00062000F04DFD784B9B6803F08003002B70
:100DBC00F9D101220821734801F004F900BF00F0B9
:100DCC00C7FA034603F00203002BF8D000220821D7
:100DDC006C4801F0F7F8C72000F032FD6A4B9B68B5
:100DEC0003F08003002BF9D101220821654801F0A2
:100DFC00E9F800BF00F0ACFA034603F00203002B45
:100E0C00F8D05F4BFE221A705D4B01225A705C4B7E
:100E1C00F4229A705A4B0022DA7004215848FFF7DA
:100E2C007DFD4CE1564BDB781B021AB2544B1B79FF
:100E3C001BB213431BB29AB2544B1A80504B5A79C3
:100E4C00534B1A70534B00221A80534B00221A60DA
:100E5C004B4BFE221A704A4B01225A70484BF62219
:100E6C009A70474B0022DA7004214548FFF756FD73
:100E7C0025E100F005FB22E1414B1B791AB2404BF6
:100E8C00DB781B021BB213431BB29AB2434B1A8082
:100E9C00424B1B88B3F5006F2CD0B3F5006F2DDCE3
:100EAC00B3F5806F22D0B3F5806F27DCB3F5007FEC
:100EBC0018D0B3F5007F21DC802B03D0B3F5807FF5
:100ECC0004D01BE0364B06221A7017E02C4B5B79D2
:100EDC00002B03D1324B08221A700FE0304B072243
:100EEC001A700BE02E4B08221A7007E02C4B0A22CA
:100EFC001A7003E02A4B0A221A7000BF00F07AFB2A
:100F0C00DDE01F4B1B791AB21D4BDB781B021BB2A9
:100F1C0013431BB29AB2214B1A80204B1B88B3F59A
:100F2C00006F3FD0B3F5006F40DCB3F5806F22D07B
:100F3C00B3F5806F3ADCB3F5007F18D0B3F5007FC2
:100F4C0034DC802B03D0B3F5807F04D02EE0144B1F
:100F5C0006221A702AE00A4B5B79002B03D1104B46
:100F6C0008221A7022E00E4B07221A701EE00C4B5E
:100F7C0008221A701AE00A4B0A221A7016E000BFF7
:100F8C00EC01002000080140003001400006002068
:100F9C000206002008060020040600200C06002093
:100FAC000A060020484B0A221A7000BF464B1B78D9
:100FBC0013211846FFF716FC444BFE221A70434BC4
:100FCC0001225A70414BB2229A70404B0022DA70C7
:100FDC0004213E48FFF7A2FC71E000F05DFB6EE0DF
:100FEC003A4B1B791AB2394BDB781B021BB21343F9
:100FFC001BB29AB2364B1A80354B1B88B3F5006F77
:10100C002CD0B3F5006F2DDCB3F5806F22D0B3F587
:10101C00806F27DCB3F5007F18D0B3F5007F21DC9F
:10102C00802B03D0B3F5807F04D01BE0264B062227
:10103C001A7017E0254B5B79002B03D1224B082249
:10104C001A700FE0204B07221A700BE01E4B08227F
:10105C001A7007E01C4B0A221A7003E01A4B0A2282
:10106C001A7000BF184B1B7813211846FFF7BAFBF8
:10107C00154B1B7812211846FFF7B4FB6420FFF7C1
:10108C0075F800BFFFF70EFC0346002BFAD10E4B90
:10109C001B7810211846FFF7A5FB0C4BFE221A708B
:1010AC000A4B01225A70094BBC229A70074B002242
:1010BC00DA7004210548FFF731FC00E000BF00BFE7
:1010CC000837BD4680BD00BF0A060020EC01002099
:1010DC000C06002080B586B002AF544B1B68802BE9
:1010EC001BD1524B1B680093514B00220121A020B5
:1010FC00FFF7B2F90023FB6009E0FB689BB280228A
:10110C004B49E020FFF720FCFB688033FB60FA685A
:10111C00464B1B689A42F0D383E0444B1B68B3F5F3
:10112C00807F23D1414B1B680093414B002201214E
:10113C00A020FFF791F90023BB6011E0BB689BB2C4
:10114C0080223B49E020FFF7FFFB00BF394B1B78A7
:10115C00002BFBD0374B00221A70BB688033BB606E
:10116C00BA68324B1B689A42E8D35AE02F4B1B6883
:10117C00B3F5807F32D92D4B1B68B3F5006F2DD89A
:10118C0000237B6024E07B68DB115BB203F00E0371
:10119C005BB263F05F035BB2D8B27B689BB2DBB22D
:1011AC009AB280230093224B0121FFF755F90023BB
:1011BC0080221F49E020FFF7C7FB00BF1D4B1B78A7
:1011CC00002BFBD01B4B00221A707B6880337B609A
:1011DC007A68164B1B689A42D5D322E000233B60F9
:1011EC0019E03B689AB280230093114B0221A02096
:1011FC00FFF732F9002380220D49E020FFF7A4FB12
:10120C0000BF0C4B1B78002BFBD00A4B00221A7032
:10121C003B6880333B603A68044B1B689A42E0D3CE
:10122C00FFE700BF1037BD4680BD00BFFC050020A6
:10123C00F40300203509002080B586B002AF414B85
:10124C00DB781B021AB23F4B1B791BB213431BB248
:10125C00FB803D4B1B68B3F5807F1DD80023FB60E2
:10126C0016E0FB689AB2FB88134499B2FB689BB2F8
:10127C0005339BB2019308230093324B0122A0202B
:10128C00FFF76EF8052000F0E7FBFB680833FB6006
:10129C00FB681F2BE5DD41E02B4B1B68B3F5807F12
:1012AC002FD9294B1B68B3F5006F2AD80023BB60DC
:1012BC0023E0FA88BB681344DB11DBB203F00E03A6
:1012CC007B717B7963F05F03D8B2BB689AB2FB8801
:1012DC0013449BB2DBB299B2BB689BB205339BB291
:1012EC00019310230093174B0122FFF739F80520C7
:1012FC0000F0B2FBBB681033BB60BB681F2BD8DDA2
:10130C000CE0F98805230193202300930D4B022256
:10131C00A020FFF725F8052000F09EFB0B4BFE22CA
:10132C001A700A4B01225A70084BE2229A70074B32
:10133C000022DA7004210548FFF7F0FA00BF1037DD
:10134C00BD4680BDEC010020FC050020F40300200C
:10135C0080B582B000AF002208210D4800F032FEAB
:10136C00052000F06DFA002000F06AFA0346FB71CC
:10137C00084B9B6803F08003002BF9D10122082154
:10138C00034800F01FFEFB7918460837BD4680BDA8
:10139C00000801400030014090B583B000AF00223E
:1013AC000821324800F00EFE314B1B68B3F1807FF0
:1013BC000CD8032000F044FA002000F041FA002081
:1013CC0000F03EFA002000F03BFA0EE0132000F093
:1013DC0037FA002000F034FA002000F031FA002037
:1013EC0000F02EFA002000F02BFA00237B6029E09D
:1013FC0000233B600BE03B68DC1C032000F020FA70
:10140C0003461A461B4B1A553B6801333B603B683D
:10141C007F2BF0DD174BFE221A70164B80225A7070
:10142C00144BF2229A7083211248FFF777FA00BF0F
:10143C00114B1B78002BFBD00F4B00221A707B68D2
:10144C0080337B600A4B1B687A689A42D0D30B4B73
:10145C009B6803F08003002BF9D10122082103487B
:10146C0000F0B0FD00BF0C37BD4690BD0008014038
:10147C00FC050020F4030020350900200030014059
:10148C0080B582B000AF00237B600DE07B68DA1C76
:10149C004F4B1B8819467B680B444E49895C4E4A5E
:1014AC00D1547B6801337B604A4B5B781A467B686E
:1014BC009342EBDB474B5B781A46454B1B88134436
:1014CC009AB2434B1A80434B5B781A46434B1B68CA
:1014DC001344424A13603E4B1A88414B1B889A4274
:1014EC0061D13E4B1B683E4A12889B1A3B6000221E
:1014FC0008213C4800F066FD062000F0A1F93A4BAB
:10150C009B6803F08003002BF9D101220821354898
:10151C0000F058FD00BFFFF71BFF034603F002036A
:10152C00002BF8D0002208212E4800F04BFD0220A1
:10153C0000F086F92D4B1B78022B05D13B681B0E56
:10154C00DBB2184600F07CF93B681B0CDBB218468A
:10155C0000F076F93B681B0ADBB2184600F070F914
:10156C003B68DBB2184600F06BF91D4B1A884FF440
:10157C007A7319491E4804F039F81B4B9B6803F029
:10158C008003002BF9D101220821164800F01AFD26
:10159C0000BFFFF7DDFE034603F00103012BF8D07B
:1015AC000B4B00221A800B4BFE221A70094B0122A6
:1015BC005A70084BF6229A70064B0022DA700421FE
:1015CC000448FFF7ABF900BF0837BD4680BD00BF2C
:1015DC0008060020EC010020F40300200406002083
:1015EC0000060020000801400030014002060020E7
:1015FC001006002080B584B000AF0023FB6037E0FC
:10160C000023BB6020E0204B1B781846FB68DA0FE8
:10161C0013445B101A46BB6813441946FEF7BEFF11
:10162C000346FB80BB685B00FA88D1B2174AD154E1
:10163C00FB881B0A9AB2BB685B000133D1B2134A18
:10164C00D154BB680133BB60BB683F2BDBDD00238F
:10165C0080220E49B020FFF777F900BF0C4B1B78A6
:10166C00002BFBD00A4B00221A70FB688033FB6006
:10167C00084B1B881A46FB689342C1DB00BF00BFB6
:10168C001037BD4680BD00BF0A060020F4030020C1
:10169C00350900200C06002090B583B000AF264B16
:1016AC00DB781B021AB2244B1B791BB213431BB2FF
:1016BC007B8000237B6028E0204B18787B885B08BC
:1016CC009BB21A467B6813441C467B685B0005334F
:1016DC00194AD35C1AB27B6803335B001649CB5CA6
:1016EC001B021BB213431BB29BB21A462146FEF7D8
:1016FC00E5FF00BFFFF7D6F80346002BFAD10F2009
:10170C0000F0AAF97B6801337B607B680F2BD3DD7B
:10171C00094BFE221A70084B01225A70064BB2225A
:10172C009A70054B0022DA7004210348FFF7F6F893
:10173C0000BF0C37BD4690BDEC0100200A0600200E
:10174C0080B500AF174B184A1A60164B4FF48272D3
:10175C005A60144B00229A60124B0022DA60114B33
:10176C0000221A610F4B00225A610E4B4FF400728B
:10177C009A610C4B0822DA610A4B00221A62094B5F
:10178C0000225A62074B00229A62064B0A22DA6246
:10179C00044803F0A7FE0346002B01D0FEF7F8FE29
:1017AC0000BF80BD100600200030014080B588B01D
:1017BC0000AF786007F1100300221A605A609A603B
:1017CC00DA607B681B681B4A93422FD11A4B9B69CA
:1017DC00194A43F480539361174B9B6903F480536C
:1017EC00FB60FB68144B9B69134A43F00403936141
:1017FC00114B9B6903F00403BB60BB68A0233B61E6
:10180C0002237B610323FB6107F1100319460B488C
:10181C0000F054FA40233B6100237B610023BB6141
:10182C0007F110031946054800F048FA00BF2037AD
:10183C00BD4680BD00300140001002400008014050
:10184C0080B586B002AF0346FB7107F10F02F91D9C
:10185C004FF47A7300930123034804F00AF8FB7BDE
:10186C0018461037BD4680BD1006002080B485B0E8
:10187C0000AF154B9B69144A43F001039361124B63
:10188C009B6903F00103BB60BB680F4BDB690E4A1D
:10189C0043F08053D3610C4BDB6903F080537B60C6
:1018AC007B680A4B5B68FB60FB6823F0E063FB60C2
:1018BC00FB6843F08063FB60044AFB68536000BF25
:1018CC001437BD4680BC7047001002400000014038
:1018DC0080B400AF00BFFDE780B400AF00BFFDE7F0
:1018EC0080B400AF00BFFDE780B400AF00BFFDE7E0
:1018FC0080B400AF00BFFDE780B400AF00BFBD46B1
:10190C0080BC704780B400AF00BFBD4680BC704740
:10191C0080B400AF00BFBD4680BC704780B500AF3F
:10192C0000F07EF800BF80BD80B500AF024801F02A
:10193C00DFFC00BF80BD00BF3813002080B400AFB7
:10194C0000BFBD4680BC7047FFF7F8FF0B480C4941
:10195C000C4A002302E0D458C4500433C4188C42FF
:10196C00F9D3094A094C002301E013600432A24266
:10197C00FBD308F0B7FDFEF793FD70470000002085
:10198C007C010020CCA500087C0100204818002018
:10199C00FEE7000080B500AF084B1B68074A43F018
:1019AC0010031360032000F047F90F2000F008F833
:1019BC00FFF75CFF0023184680BD00BF00200240EB
:1019CC0080B582B000AF7860124B1A68124B1B784E
:1019DC0019464FF47A73B3FBF1F3B2FBF3F31846E9
:1019EC0000F05FF90346002B01D001230EE07B6869
:1019FC000F2B0AD8002279684FF0FF3000F027F93E
:101A0C00064A7B681360002300E001231846083760
:101A1C00BD4680BD0000002008000020040000200E
:101A2C0080B400AF054B1B781A46054B1B6813445A
:101A3C00034A136000BFBD4680BC704708000020FD
:101A4C006806002080B400AF024B1B681846BD46E8
:101A5C0080BC70476806002080B584B000AF786009
:101A6C00FFF7F0FFB8607B68FB60FB68B3F1FF3FEA
:101A7C0005D00A4B1B781A46FB681344FB6000BF69
:101A8C00FFF7E0FF0246BB68D31AFA689A42F7D810
:101A9C0000BF00BF1037BD4680BD00BF080000204E
:101AAC0080B485B000AF78607B6803F00703FB60FF
:101ABC000C4BDB68BB60BA684FF6FF031340BB608E
:101ACC00FB681A02BB68134343F0BF6343F4003353
:101ADC00BB60044ABB68D36000BF1437BD4680BCF2
:101AEC00704700BF00ED00E080B400AF044BDB6832
:101AFC001B0A03F007031846BD4680BC704700BFA5
:101B0C0000ED00E080B483B000AF0346FB7197F9A1
:101B1C000730002B0BDBFB7903F01F02064997F90A
:101B2C0007305B09012000FA02F241F8232000BFC4
:101B3C000C37BD4680BC704700E100E080B483B038
:101B4C0000AF03463960FB7197F90730002B0ADBB5
:101B5C003B68DAB20C4997F907301201D2B20B4448
:101B6C0083F800230AE03B68DAB20849FB7903F0FA
:101B7C000F03043B1201D2B20B441A7600BF0C3790
:101B8C00BD4680BC704700BF00E100E000ED00E006
:101B9C0080B489B000AFF860B9607A60FB6803F07C
:101BAC000703FB61FB69C3F10703042B28BF042364
:101BBC00BB61FB690433062B02D9FB69033B00E0D4
:101BCC0000237B614FF0FF32BB6902FA03F3DA4367
:101BDC00BB681A407B699A404FF0FF317B6901FA70
:101BEC0003F3D9437B680B40134318462437BD4697
:101BFC0080BC704780B582B000AF78607B68013BD9
:101C0C00B3F1807F01D301230FE00A4A7B68013BCB
:101C1C0053600F214FF0FF30FFF790FF054B002270
:101C2C009A60044B07221A60002318460837BD46F9
:101C3C0080BD00BF10E000E080B582B000AF7860DE
:101C4C007868FFF72DFF00BF0837BD4680BD80B513
:101C5C0086B000AF0346B9607A60FB7300237B61EA
:101C6C00FFF742FF78617A68B9687869FFF790FFEF
:101C7C00024697F90F3011461846FFF75FFF00BF79
:101C8C001837BD4680BD80B582B000AF0346FB71EE
:101C9C0097F907301846FFF735FF00BF0837BD46E8
:101CAC0080BD80B582B000AF78607868FFF7A2FF86
:101CBC00034618460837BD4680BD000080B48BB083
:101CCC0000AF7860396000237B6200233B6269E1DE
:101CDC0001227B6A02FA03F3FB613B681B68FA6919
:101CEC001340BB61BA69FB699A4240F058813B686A
:101CFC005B689A4A93425ED0984A934275D8984A48
:101D0C00934258D0964A93426FD8964A934252D0F7
:101D1C00944A934269D8944A93424CD0924A934243
:101D2C0063D8924A934246D0904A93425DD8122B84
:101D3C002AD8122B59D801A252F823F0C31D00083F
:101D4C009D1D0008AF1D0008F11D0008F71D0008BF
:101D5C00F71D0008F71D0008F71D0008F71D000807
:101D6C00F71D0008F71D0008F71D0008F71D0008F7
:101D7C00F71D0008F71D0008F71D0008F71D0008E7
:101D8C00A51D0008B91D0008794A934213D02CE018
:101D9C003B68DB683B6229E03B68DB6804333B62F1
:101DAC0024E03B68DB6808333B621FE03B68DB6880
:101DBC000C333B621AE03B689B68002B02D1042376
:101DCC003B6213E03B689B68012B05D108233B6207
:101DDC007B68FA691A6109E008233B627B68FA693F
:101DEC005A6103E000233B6200E000BFBB69FF2B9C
:101DFC0001D87B6801E07B6804337B61BB69FF2BF6
:101E0C0002D87B6A9B0002E07B6A083B9B003B612B
:101E1C007B691A680F213B6901FA03F3DB431A4013
:101E2C00396A3B6901FA03F31A437B691A603B6810
:101E3C005B6803F08053002B00F0B1804D4B9B6925
:101E4C004C4A43F0010393614A4B9B6903F0010335
:101E5C00BB60BB68484A7B6A9B08023352F823304C
:101E6C00FB607B6A03F003039B000F2202FA03F36F
:101E7C00DB43FA681340FB607B68404A934213D003
:101E8C007B683F4A93420DD07B683E4A934207D011
:101E9C007B683D4A934201D1032306E0042304E00E
:101EAC00022302E0012300E000237A6A02F003021D
:101EBC0092009340FA681343FB602F497B6A9B089E
:101ECC000233FA6841F823203B685B6803F4801303
:101EDC00002B06D02D4B9A682C49BB6913438B60A1
:101EEC0006E02A4B9A68BB69DB43284913408B6098
:101EFC003B685B6803F40013002B06D0234BDA68B5
:101F0C002249BB691343CB6006E0204BDA68BB69FE
:101F1C00DB431E491340CB603B685B6803F4003322
:101F2C00002B06D0194B5A681849BB6913434B60F8
:101F3C0006E0164B5A68BB69DB43144913404B60EF
:101F4C003B685B6803F48033002B21D00F4B1A687D
:101F5C000E49BB6913430B6021E000BF0000321037
:101F6C00000031100000221000002110000012109F
:101F7C000000111000100240000001400008014058
:101F8C00000C01400010014000140140000401400D
:101F9C000B4B1A68BB69DB43094913400B607B6A26
:101FAC0001337B623B681A687B6A22FA03F3002BCD
:101FBC007FF48EAE00BF00BF2C37BD4680BC70478F
:101FCC000004014080B483B000AF78600B467B8086
:101FDC0013467B707B78002B03D07A887B681A6160
:101FEC0003E07B881A047B681A6100BF0C37BD467E
:101FFC0080BC704780B584B000AF78607B68002BE4
:10200C0001D101232BE17B6893F83D30DBB2002B2F
:10201C0006D17B68002283F83C207868FEF762F9D1
:10202C007B68242283F83D207B681B681A687B68D8
:10203C001B6822F001021A607B681B681A687B68B7
:10204C001B6842F400421A607B681B681A687B6844
:10205C001B6822F400421A6003F05CF9F8607B689C
:10206C005B68814A934207D8FB68804A934294BFCD
:10207C0001230023DBB206E0FB687D4A934294BF48
:10208C0001230023DBB2002B01D00123E7E0FB6826
:10209C00784AA2FB03239B0CBB607B681B685B68C4
:1020AC0023F03F017B681B68BA680A435A607B685F
:1020BC001B681B6A23F03F017B685B686A4A93428A
:1020CC0002D8BB68013309E0BB684FF4967202FB7F
:1020DC0003F3694AA2FB03239B0901337A68126854
:1020EC000B4313627B681B68DB6923F44F4222F0BD
:1020FC00FF027B685B685C498B4219D8FB68591EF0
:10210C007B685B685B00B1FBF3F3591C40F6FC7316
:10211C000B40002B0AD0FB68591E7B685B685B0088
:10212C00B1FBF3F30133C3F30B0351E004234FE092
:10213C007B689B68002B11D1FB68581E7B68596823
:10214C000B465B000B44B0FBF3F30133C3F30B03FF
:10215C00002B0CBF01230023DBB212E0FB68581EDE
:10216C007B6859680B469B000B4499000B44B0FBF1
:10217C00F3F30133C3F30B03002B0CBF0123002338
:10218C00DBB2002B01D0012322E07B689B68002B83
:10219C000ED1FB68581E7B6859680B465B000B44DC
:1021AC00B0FBF3F30133C3F30B0343F400430FE031
:1021BC00FB68581E7B6859680B469B000B449900C2
:1021CC000B44B0FBF3F30133C3F30B0343F4404371
:1021DC00796809681343CB617B681B681B6823F023
:1021EC00C0017B68DA697B681B6A1A437B681B68D1
:1021FC000A431A607B681B689B6823F4034323F033
:10220C00FF037A6811697A68D26811437A68126898
:10221C000B4393607B681B68DB6823F0FF017B68D2
:10222C005A697B689B691A437B681B680A43DA60AE
:10223C007B681B681A687B681B6842F001021A6095
:10224C007B6800221A647B68202283F83D207B681F
:10225C0000221A637B68002283F83E200023184674
:10226C001037BD4680BD00BFA08601007F841E00D4
:10227C00FF083D0083DE1B43D34D621080B588B050
:10228C0002AFF860084611461A4603467B810B469E
:10229C003B811346FB80FFF7D5FB7861FB6893F815
:1022AC003D30DBB2202B40F0D9807B6900931923A1
:1022BC0001226D49F86800F0C1FC0346002B01D0E7
:1022CC000223CCE0FB6893F83C30012B01D10223B4
:1022DC00C5E0FB68012283F83C20FB681B681B6887
:1022EC0003F00103012B07D0FB681B681A68FB681D
:1022FC001B6842F001021A60FB681B681A68FB68D5
:10230C001B6822F400621A60FB68212283F83D20CE
:10231C00FB68402283F83E20FB6800221A64FB68AD
:10232C003A6A5A62FB68BA8C5A85FB685B8D9AB222
:10233C00FB681A85FB684D4ADA62F8883A89798914
:10234C007B690193BB6A00930346F86800F0F8FAC6
:10235C000346002B52D0012381E07A69B96AF868F0
:10236C0000F086FD0346002B0DD0FB681B6C042B84
:10237C0007D1FB681B681A68FB681B6842F4007283
:10238C001A6001236BE0FB685B6A1A78FB681B68B8
:10239C001A61FB685B6A5A1CFB685A62FB681B8DEE
:1023AC00013B9AB2FB681A85FB685B8D9BB2013BC3
:1023BC009AB2FB685A85FB681B685B6903F00403DF
:1023CC00042B1BD1FB681B8D002B17D0FB685B6AA1
:1023DC001A78FB681B681A61FB685B6A5A1CFB68FD
:1023EC005A62FB681B8D013B9AB2FB681A85FB682D
:1023FC005B8D9BB2013B9AB2FB685A85FB681B8DC7
:10240C00002BAAD17A69B96AF86800F079FD034605
:10241C00002B0DD0FB681B6C042B07D1FB681B68D1
:10242C001A68FB681B6842F400721A60012316E0FC
:10243C00FB681B681A68FB681B6842F400721A6020
:10244C00FB68202283F83D20FB68002283F83E20A5
:10245C00FB68002283F83C20002300E0022318468E
:10246C001837BD4680BD00BF020010000000FFFF02
:10247C0080B58CB002AFF860084611461A46034688
:10248C007B810B463B811346FB8000233B62FFF7AD
:10249C00D9FA7862FB6893F83D30DBB2202B40F020
:1024AC0044827B6A0093192301228249F86800F068
:1024BC00C5FB0346002B01D0022337E2FB6893F8DF
:1024CC003C30012B01D1022330E2FB68012283F85E
:1024DC003C20FB681B681B6803F00103012B07D031
:1024EC00FB681B681A68FB681B6842F001021A60E3
:1024FC00FB681B681A68FB681B6822F400621A6090
:10250C00FB68222283F83D20FB68402283F83E20A2
:10251C00FB6800221A64FB683A6B5A62FB68BA8E3D
:10252C005A85FB685B8D9AB2FB681A85FB68624A18
:10253C00DA62F8883A8979897B6A0193BB6B0093DC
:10254C000346F86800F092FA0346002B01D00123F1
:10255C00ECE1FB681B8D002B13D10023FB61FB68A6
:10256C001B685B69FB61FB681B689B69FB61FB6912
:10257C00FB681B681A68FB681B6842F400721A60DF
:10258C00C0E1FB681B8D012B1ED1FB681B681A6810
:10259C00FB681B6822F480621A6072B600BF0023CD
:1025AC00BB61FB681B685B69BB61FB681B689B6953
:1025BC00BB61BB69FB681B681A68FB681B6842F44B
:1025CC0000721A6062B635E0FB681B8D022B1ED1BF
:1025DC00FB681B681A68FB681B6842F400621A608F
:1025EC0072B600BF00237B61FB681B685B697B6173
:1025FC00FB681B689B697B617B69FB681B681A68BD
:10260C00FB681B6822F480621A6062B612E0FB68F9
:10261C001B681A68FB681B6842F480621A6000230E
:10262C003B61FB681B685B693B61FB681B689B69D2
:10263C003B613B6966E1FB681B8D032B00F21F813C
:10264C00FB681B8D012B23D17A6AB96BF86800F0FB
:10265C009FFC0346002B01D0012367E1FB681B683C
:10266C001A69FB685B6AD2B21A70FB685B6A5A1C07
:10267C00FB685A62FB681B8D013B9AB2FB681A859A
:10268C00FB685B8D9BB2013B9AB2FB685A8539E1C2
:10269C00FB681B8D022B52D17B6A0093BB6B002213
:1026AC000649F86800F0CAFA0346002B08D001234B
:1026BC003CE100BF020010000000FFFF040001001D
:1026CC0072B600BFFB681B681A68FB681B6842F493
:1026DC0000721A60FB681B681A69FB685B6AD2B2ED
:1026EC001A70FB685B6A5A1CFB685A62FB681B8D8C
:1026FC00013B9AB2FB681A85FB685B8D9BB2013B70
:10270C009AB2FB685A8562B600BFFB681B681A69EF
:10271C00FB685B6AD2B21A70FB685B6A5A1CFB6876
:10272C005A62FB681B8D013B9AB2FB681A85FB68E9
:10273C005B8D9BB2013B9AB2FB685A85E2E07B6AE7
:10274C000093BB6B00227B49F86800F077FA0346D4
:10275C00002B01D00123E9E0FB681B681A68FB68B9
:10276C001B6822F480621A6072B600BFFB681B689B
:10277C001A69FB685B6AD2B21A70FB685B6A5A1CF6
:10278C00FB685A62FB681B8D013B9AB2FB681A8589
:10279C00FB685B8D9BB2013B9AB2FB685A85664B1A
:1027AC001B68DB08654AA2FB03231A0A13469B002D
:1027BC001344DA00D31A3B623B6A013B3B623B6A2F
:1027CC00002B18D1FB6800221A63FB68202283F8C7
:1027DC003D20FB68002283F83E20FB681B6C43F015
:1027EC002002FB681A6462B600BFFB68002283F803
:1027FC003C2001239AE0FB681B685B6903F004032F
:10280C00042BD9D1FB681B681A68FB681B6842F45F
:10281C0000721A60FB681B681A69FB685B6AD2B2AB
:10282C001A70FB685B6A5A1CFB685A62FB681B8D4A
:10283C00013B9AB2FB681A85FB685B8D9BB2013B2E
:10284C009AB2FB685A8562B600BFFB681B681A69AE
:10285C00FB685B6AD2B21A70FB685B6A5A1CFB6835
:10286C005A62FB681B8D013B9AB2FB681A85FB68A8
:10287C005B8D9BB2013B9AB2FB685A8542E07A6A47
:10288C00B96BF86800F084FB0346002B01D00123E0
:10289C004CE0FB681B681A69FB685B6AD2B21A7061
:1028AC00FB685B6A5A1CFB685A62FB681B8D013B18
:1028BC009AB2FB681A85FB685B8D9BB2013B9AB29E
:1028CC00FB685A85FB681B685B6903F00403042BE7
:1028DC0018D1FB681B681A69FB685B6AD2B21A7064
:1028EC00FB685B6A5A1CFB685A62FB681B8D013BD8
:1028FC009AB2FB681A85FB685B8D9BB2013B9AB25E
:10290C00FB685A85FB681B8D002B7FF494AEFB682B
:10291C00202283F83D20FB68002283F83E20FB68D0
:10292C00002283F83C20002300E0022318462837BD
:10293C00BD4680BD040001000000002089B5F814DC
:10294C0080B588B002AFF860084611461A460346B7
:10295C007B810B463B811346FB80FB681B681A6826
:10296C00FB681B6842F480721A607B6A00933B6AB6
:10297C0000224FF00111F86800F060F90346002BBB
:10298C000DD0FB681B681B6803F48073B3F5807F64
:10299C0003D1FB684FF400721A6403235FE07B8958
:1029AC00DBB21A46FB681B6802F0FE021A617B6AF6
:1029BC003A6A2D49F86800F0BBF90346002B01D0A8
:1029CC0001234CE000237B61FB681B685B697B6126
:1029DC00FB681B689B697B617B697A6A396AF8685A
:1029EC0000F046FA0346002B0DD0FB681B6C042B41
:1029FC0007D1FB681B681A68FB681B6842F40072FD
:102A0C001A6001232BE0FB88012B05D13B89DAB23C
:102A1C00FB681B681A6121E03B891B0A9BB2DAB286
:102A2C00FB681B681A617A6A396AF86800F020FA48
:102A3C000346002B0DD0FB681B6C042B07D1FB68E5
:102A4C001B681A68FB681B6842F400721A60012349
:102A5C0005E03B89DAB2FB681B681A610023184653
:102A6C001837BD4680BD00BF0200010080B588B09C
:102A7C0002AFF860084611461A4603467B810B46A6
:102A8C003B811346FB80FB681B681A68FB681B685C
:102A9C0042F480621A60FB681B681A68FB681B684A
:102AAC0042F480721A607B6A00933B6A00224FF0FA
:102ABC000111F86800F0C2F80346002B0DD0FB683A
:102ACC001B681B6803F48073B3F5807F03D1FB682C
:102ADC004FF400721A640323AAE07B89DBB21A4616
:102AEC00FB681B6802F0FE021A617B6A3A6A524963
:102AFC00F86800F01DF90346002B01D0012397E084
:102B0C0000237B61FB681B685B697B61FB681B684E
:102B1C009B697B617B697A6A396AF86800F0A8F96D
:102B2C000346002B0DD0FB681B6C042B07D1FB68F4
:102B3C001B681A68FB681B6842F400721A60012358
:102B4C0076E0FB88012B05D13B89DAB2FB681B6868
:102B5C001A6121E03B891B0A9BB2DAB2FB681B6845
:102B6C001A617A6A396AF86800F082F90346002B18
:102B7C000DD0FB681B6C042B07D1FB681B681A6813
:102B8C00FB681B6842F400721A60012350E03B8919
:102B9C00DAB2FB681B681A617A6A396AF86800F065
:102BAC0067F90346002B0DD0FB681B6C042B07D177
:102BBC00FB681B681A68FB681B6842F400721A6099
:102BCC00012335E0FB681B681A68FB681B6842F43C
:102BDC0080721A607B6A00933B6A00224FF00111ED
:102BEC00F86800F02BF80346002B0DD0FB681B682F
:102BFC001B6803F48073B3F5807F03D1FB684FF43B
:102C0C0000721A64032313E07B89DBB243F00103E7
:102C1C00DAB2FB681B681A617B6A3A6A0649F86883
:102C2C0000F086F80346002B01D0012300E00023BE
:102C3C0018461837BD4680BD0200010080B584B02F
:102C4C0000AFF860B9603B601346FB7148E03B682D
:102C5C00B3F1FF3F44D0FEF7F5FE0246BB69D31A31
:102C6C003A689A4202D33B68002B39D1BB681B0CE3
:102C7C00DBB2012B0DD1FB681B685B69DA43BB68C7
:102C8C0013409BB2002B0CBF01230023DBB21A466E
:102C9C000CE0FB681B689B69DA43BB6813409BB272
:102CAC00002B0CBF01230023DBB21A46FB799A429E
:102CBC0016D1FB6800221A63FB68202283F83D20A2
:102CCC00FB68002283F83E20FB681B6C43F020025B
:102CDC00FB681A64FB68002283F83C20012323E084
:102CEC00BB681B0CDBB2012B0DD1FB681B685B694D
:102CFC00DA43BB6813409BB2002B0CBF01230023AB
:102D0C00DBB21A460CE0FB681B689B69DA43BB68B4
:102D1C0013409BB2002B0CBF01230023DBB21A46DD
:102D2C00FB799A4293D0002318461037BD4680BDDC
:102D3C0080B584B000AFF860B9607A603B6071E038
:102D4C00FB681B685B6903F48063B3F5806F23D168
:102D5C00FB681B681A68FB681B6842F400721A60F7
:102D6C00FB681B686FF480625A61FB6800221A636F
:102D7C00FB68202283F83D20FB68002283F83E206C
:102D8C00FB681B6C43F00402FB681A64FB680022AE
:102D9C0083F83C20012367E07B68B3F1FF3F41D00F
:102DAC00FEF750FE02463B68D31A7A689A4202D369
:102DBC007B68002B36D1BB681B0CDBB2012B0CD112
:102DCC00FB681B685B69DA43BB6813409BB2002B42
:102DDC0014BF01230023DBB20BE0FB681B689B696B
:102DEC00DA43BB6813409BB2002B14BF01230023B2
:102DFC00DBB2002B16D0FB6800221A63FB68202282
:102E0C0083F83D20FB68002283F83E20FB681B6C96
:102E1C0043F02002FB681A64FB68002283F83C2014
:102E2C00012321E0BB681B0CDBB2012B0CD1FB682E
:102E3C001B685B69DA43BB6813409BB2002B14BF61
:102E4C0001230023DBB20BE0FB681B689B69DA43B0
:102E5C00BB6813409BB2002B14BF01230023DBB2D1
:102E6C00002B7FF46DAF002318461037BD4680BD94
:102E7C0080B584B000AFF860B9607A6034E0F8686F
:102E8C0000F0E3F80346002B01D0012334E0BB68CB
:102E9C00B3F1FF3F28D0FEF7D5FD02467B68D31A6D
:102EAC00BA689A4202D3BB68002B1DD1FB681B6821
:102EBC005B6903F08003802B16D0FB6800221A6339
:102ECC00FB68202283F83D20FB68002283F83E201B
:102EDC00FB681B6C43F02002FB681A64FB68002241
:102EEC0083F83C20012307E0FB681B685B6903F057
:102EFC008003802BC3D1002318461037BD4680BDFC
:102F0C0080B584B000AFF860B9607A6034E0F868DE
:102F1C0000F09BF80346002B01D0012334E0BB6882
:102F2C00B3F1FF3F28D0FEF78DFD02467B68D31A24
:102F3C00BA689A4202D3BB68002B1DD1FB681B6890
:102F4C005B6903F00403042B16D0FB6800221A63A0
:102F5C00FB68202283F83D20FB68002283F83E208A
:102F6C00FB681B6C43F02002FB681A64FB680022B0
:102F7C0083F83C20012307E0FB681B685B6903F0C6
:102F8C000403042BC3D1002318461037BD4680BD63
:102F9C0080B584B000AFF860B9607A6049E0FB6836
:102FAC001B685B6903F01003102B19D1FB681B68BD
:102FBC006FF010025A61FB6800221A63FB68202232
:102FCC0083F83D20FB68002283F83E20FB681A6CD6
:102FDC00FB681A64FB68002283F83C20012330E074
:102FEC00FEF730FD02467B68D31ABA689A4202D3C8
:102FFC00BB68002B1DD1FB681B685B6903F04003A9
:10300C00402B16D0FB6800221A63FB68202283F841
:10301C003D20FB68002283F83E20FB681B6C43F0CC
:10302C002002FB681A64FB68002283F83C20012311
:10303C0007E0FB681B685B6903F04003402BAED1D3
:10304C00002318461037BD4680BD80B483B000AF56
:10305C0078607B681B685B6903F48063B3F5806FF1
:10306C001BD17B681B686FF480625A617B680022FD
:10307C001A637B68202283F83D207B68002283F84A
:10308C003E207B681B6C43F004027B681A647B68EF
:10309C00002283F83C20012300E0002318460C3763
:1030AC00BD4680BC7047F0B58BB006AF78607B68CE
:1030BC00002B01D10123F1E07B6893F8A932DBB23C
:1030CC00002B06D17B68002283F8A822786806F0D2
:1030DC0057FF7B68032283F8A9227B681B6818467C
:1030EC0002F044FE7B681B683B607E686D4606F10F
:1030FC0010040FCC0FC523682B60331D0ECB386822
:10310C0002F00EFE0346002B05D07B68022283F8EA
:10311C00A9220123C2E07B681B680021184602F03B
:10312C003FFE0023FB7340E0FB7B79685A1C13467F
:10313C009B001344DB000B44013301221A70FB7B10
:10314C0079685A1C13469B001344DB000B44FA7B32
:10315C001A70FB7B79685A1C13469B001344DB00E6
:10316C000B44033300221A70FA7B796813469B00D8
:10317C001344DB000B44383300221A60FA7B796865
:10318C0013469B001344DB000B443C3300221A60B3
:10319C00FA7B796813469B001344DB000B444033E5
:1031AC0000221A60FB7B0133FB73FA7B7B685B6844
:1031BC009A42B9D30023FB7344E0FA7B7968134637
:1031CC009B001344DB000B4403F2691300221A70BA
:1031DC00FA7B796813469B001344DB000B4403F520
:1031EC00B473FA7B1A70FA7B796813469B0013440C
:1031FC00DB000B4403F26B1300221A70FA7B796824
:10320C0013469B001344DB000B4403F5BC730022F4
:10321C001A60FA7B796813469B001344DB000B445D
:10322C0003F5BE7300221A60FA7B796813469B0083
:10323C001344DB000B4403F5C07300221A60FB7BC4
:10324C000133FB73FA7B7B685B689A42B5D37B686E
:10325C001B683B607E686D4606F110040FCC0FC5F1
:10326C0023682B60331D0ECB386802F0A5FD034696
:10327C00002B05D07B68022283F8A92201230DE0E4
:10328C007B68002283F824207B68012283F8A92222
:10329C007B681B68184605F026F80023184614377F
:1032AC00BD46F0BD80B582B000AF78607B6893F806
:1032BC00A832012B01D1022316E07B68012283F88E
:1032CC00A8227B681B68184602F03AFD0121786839
:1032DC0007F0C9F87B681B68184604F0FAFF7B6896
:1032EC00002283F8A822002318460837BD4680BD6B
:1032FC0080B588B000AF78607B681B68184604F016
:10330C00FCFFB861BB6903F40043002B03D0786861
:10331C0000F01BFB19E1BB6903F48063002B13D095
:10332C007B681B68B3F844309AB27B681B6822F444
:10333C00806292B2A3F84420786806F09CFE0021CB
:10334C00786800F005F900E1BB6903F48043002BB9
:10335C000CD07B681B68B3F844309AB27B681B684E
:10336C0022F4804292B2A3F84420EEE0BB6903F44D
:10337C000053002B0CD07B681B68B3F844309AB216
:10338C007B681B6822F4005292B2A3F84420DCE064
:10339C00BB6903F48053002B27D07B681B68B3F800
:1033AC0040309AB27B681B6822F0040292B2A3F8F8
:1033BC0040207B681B68B3F840309AB27B681B686E
:1033CC0022F0080292B2A3F84020786806F08CFE36
:1033DC007B681B68B3F844309AB27B681B6822F494
:1033EC00805292B2A3F84420AFE0BB6903F40063AF
:1033FC00002B00F083800023FB7710E07B681B68B8
:10340C001A46FB7F9B001A44FB7F128892B25B002A
:10341C0020333B4423F8182CFB7F0133FB77FB7FD5
:10342C00072BEBD97B681B68B3F840309AB27B68EA
:10343C001B6842F0010292B2A3F840207B681B6823
:10344C00B3F840309AB27B681B6822F0010292B24A
:10345C00A3F8402000BF7B681B68B3F844309BB2D4
:10346C0003F48063002BF6D07B681B68B3F8443000
:10347C009AB27B681B6822F4806292B2A3F8442053
:10348C000023FB770FE0FB7F7A6812681146FA7F06
:10349C0092000A445B0020333B4433F8183C138001
:1034AC00FB7F0133FB77FB7F072BECD97B681B6819
:1034BC00B3F840309AB27B681B6842F0080292B2B3
:1034CC00A3F840207B681B68B3F844309AB27B6841
:1034DC001B6822F4006292B2A3F844207B681B683C
:1034EC00B3F840309AB27B681B6842F0040292B287
:1034FC00A3F84020786806F0DDFD26E0BB6903F4F4
:10350C000073002B0FD07B681B68B3F844309AB261
:10351C007B681B6822F4007292B2A3F8442078688E
:10352C0006F09BFD11E0BB6903F48073002B0CD0FB
:10353C007B681B68B3F844309AB27B681B6822F432
:10354C00807292B2A3F8442000BF2037BD4680BDE4
:10355C0080B582B000AF78600B46FB707B6893F847
:10356C00A832012B01D1022313E07B68012283F8DE
:10357C00A8227B68FA7883F824207B681B68FA7889
:10358C001146184604F092FE7B68002283F8A822AC
:10359C00002318460837BD4680BD80B584B000AF07
:1035AC007860084611461A460346FB700B463B8072
:1035BC001346BB700023FB7297F90330002B0EDA15
:1035CC00FB7803F007035A1C13469B001344DB00E3
:1035DC007A681344FB60FB6801225A700EE0FB789A
:1035EC0003F0070213469B001344DB0003F5B4738E
:1035FC007A681344FB60FB6800225A70FB7803F076
:10360C000703DAB2FB681A703A88FB681A61FB6828
:10361C00BA78DA70BB78022B02D1FB6800221A71DF
:10362C007B6893F8A832012B01D102230EE07B6852
:10363C00012283F8A8227B681B68F968184602F0FF
:10364C00DBFB7B68002283F8A822FB7A1846103734
:10365C00BD4680BD80B584B000AF78600B46FB7072
:10366C0097F90330002B0EDAFB7803F007035A1C92
:10367C0013469B001344DB007A681344FB60FB6821
:10368C0001225A700EE0FB7803F0070213469B00F0
:10369C001344DB0003F5B4737A681344FB60FB68D6
:1036AC0000225A70FB7803F00703DAB2FB681A7039
:1036BC007B6893F8A832012B01D102230EE07B68C2
:1036CC00012283F8A8227B681B68F968184602F06F
:1036DC0053FF7B68002283F8A8220023184610377A
:1036EC00BD4680BD80B586B000AFF8607A603B60A7
:1036FC000B46FB72FB7A03F0070213469B00134444
:10370C00DB0003F5B473FA6813447B617B697A6858
:10371C005A617B693A689A617B690022DA617B693C
:10372C0000225A70FB7A03F00703DAB27B691A7035
:10373C00FB681B687969184603F00AF900231846E0
:10374C001837BD4680BD80B483B000AF78600B469F
:10375C00FB70FB7803F00702796813469B00134457
:10376C00DB000B4403F5C2731B6818460C37BD46CF
:10377C0080BC704780B586B000AFF8607A603B6063
:10378C000B46FB72FB7A03F007035A1C13469B0093
:10379C001344DB00FA6813447B617B697A685A61D5
:1037AC007B693A689A617B69012283F824207B69E2
:1037BC003A681A627B690022DA617B6901225A70CD
:1037CC00FB7A03F00703DAB27B691A70FB681B689B
:1037DC007969184603F0BCF8002318461837BD4623
:1037EC0080BD80B584B000AF78600B46FB70FB7871
:1037FC0003F007027B685B689A4201D901234CE015
:10380C0097F90330002B0EDAFB7803F007035A1CF0
:10381C0013469B001344DB007A681344FB60FB687F
:10382C0001225A700CE0FA7813469B001344DB001B
:10383C0003F5B4737A681344FB60FB6800225A707A
:10384C00FB6801229A70FB7803F00703DAB2FB687D
:10385C001A707B6893F8A832012B01D102231CE06B
:10386C007B68012283F8A8227B681B68F9681846DC
:10387C0004F01FFCFB7803F00703002B08D17B68D6
:10388C001A687B6803F52C731946104604F044FD46
:10389C007B68002283F8A822002318461037BD4607
:1038AC0080BD80B584B000AF78600B46FB70FB78B0
:1038BC0003F00F027B685B689A4201D9012340E058
:1038CC0097F90330002B0EDAFB7803F007035A1C30
:1038DC0013469B001344DB007A681344FB60FB68BF
:1038EC0001225A700EE0FB7803F0070213469B008E
:1038FC001344DB0003F5B4737A681344FB60FB6874
:10390C0000225A70FB6800229A70FB7803F00703C0
:10391C00DAB2FB681A707B6893F8A832012B01D1DC
:10392C0002230EE07B68012283F8A8227B681B68C7
:10393C00F968184604F00DFC7B68002283F8A82275
:10394C00002318461037BD4680BD80B596B000AF39
:10395C007860BEE37B681B68B3F84430A7F84E3040
:10396C00B7F84E30DBB203F00F0387F84D3097F801
:10397C004D30002B40F07881B7F84E3003F0100337
:10398C00002B51D17B681B681B889BB223F4E1434D
:10399C0023F07003FB817B681A68FB896FEA434351
:1039AC006FEA53439BB213807B6828337B657B683B
:1039BC001B68B3F850309BB21A467B6D1B78DB004A
:1039CC00134402335B007A681268134403F5806376
:1039DC001B88C3F309027B6DDA617B6D5A697B6DC1
:1039EC00DB691A447B6D5A610021786806F01BFB79
:1039FC007B6893F82430DBB2002B00F06A837B6D7C
:103A0C009B69002B40F065837B6893F82430DBB214
:103A1C0063F07F03DAB27B681B68A3F84C207B68E9
:103A2C00002283F8242054E37B6803F5B4737B6590
:103A3C007B681B681B88A7F84A30B7F84A3003F438
:103A4C000063002B34D07B681B68B3F850309BB2FA
:103A5C001A467B6D1B78DB00134406335B007A68D7
:103A6C001268134403F580631B88C3F309027B6D52
:103A7C00DA617B6818687B6803F52C717B6DDA88DA
:103A8C007B6DDB699BB204F097FC7B681B681B8821
:103A9C009AB240F68F7313403B827B681B683A8A5C
:103AAC0042F0800292B21A80786806F08FFA10E326
:103ABC00B7F94A30002B80F20C837B681B681B889B
:103ACC009AB240F68F731340FB837B681B68FA8BAA
:103ADC0042F0800292B21A807B681B68B3F85030B7
:103AEC009BB21A467B6D1B78DB00134406335B00DC
:103AFC007A681268134403F580631B88C3F30902C8
:103B0C007B6DDA617B6DDB69002B19D07B6D5B699A
:103B1C00002B15D07B6818687B6D59697B6DDA8832
:103B2C007B6DDB699BB204F047FC7B6D5A697B6D46
:103B3C00DB691A447B6D5A610021786806F058FAEB
:103B4C007B681B681B88A7F84A30B7F84A3003F427
:103B5C000063002B40F0BD82B7F84A3003F44053A9
:103B6C00B3F5405F00F0B5827B681B68BB617B6876
:103B7C001B68B3F850309BB21A46BB691344BB6147
:103B8C00BB6903F20C437B617B691B889BB2C3F35B
:103B9C0009039AB27B691A807B6D1B693E2B1DD978
:103BAC007B6D1B695B097B647B6D1B6903F01F03D9
:103BBC00002B02D17B6C013B7B647B691B889AB226
:103BCC007B6C9BB29B029BB213439BB26FEA434349
:103BDC006FEA53439AB27B691A8026E07B6D1B69AE
:103BEC00002B0AD17B691B889BB26FEA43436FEAB7
:103BFC0053439AB27B691A8017E07B6D1B695B0893
:103C0C007B647B6D1B6903F00103002B02D07B6C82
:103C1C0001337B647B691B889AB27B6C9BB29B02E1
:103C2C009BB213439AB27B691A807B681B681B8812
:103C3C009BB223F4804323F070037B827B8A83F452
:103C4C0080537B827B8A83F400537B827B681A6867
:103C5C007B8A43F07F4343F47F0343F4004343F0F8
:103C6C0080039BB2138034E27B681B681A4697F87A
:103C7C004D309B0013441B88A7F84A30B7F94A30E3
:103C8C00002B80F2FC807B681B681A4697F84D303D
:103C9C009B0013441B889AB240F68F731340A7F80D
:103CAC0048307B681B681A4697F84D309B001344CC
:103CBC00B7F8482042F0800292B21A8097F84D2053
:103CCC0013469B001344DB0003F5B4737A6813446A
:103CDC007B657B6D1B7B002B25D17B681B68B3F848
:103CEC0050309BB21A467B6D1B78DB0013440633B5
:103CFC005B007A681268134403F580631B88C3F376
:103D0C000903A7F85030B7F85030002B00F0928020
:103D1C007B6818687B6D59697B6DDA88B7F8503011
:103D2C0004F04AFB86E07B6DDB78022B0AD1B7F8F6
:103D3C004A301A46796D786800F0D9F90346A7F82D
:103D4C00503077E07B681B681A467B6D1B789B00B4
:103D5C0013441B889BB223F4E04323F07003A7F8B1
:103D6C0052307B681B681A467B6D1B789B001A448B
:103D7C00B7F8523043F07F4343F47F0343F40043DE
:103D8C0043F0C0039BB213807B681B681A467B6DA3
:103D9C001B789B0013441B889BB203F48043002BBD
:103DAC0024D07B681B68B3F850309BB21A467B6DED
:103DBC001B78DB00134402335B007A6812681344EF
:103DCC0003F580631B88C3F30903A7F85030B7F8D9
:103DDC005030002B2ED07B6818687B6D59697B6D39
:103DEC001A89B7F8503004F0E7FA23E07B681B68B7
:103DFC00B3F850309BB21A467B6D1B78DB00134432
:103E0C0006335B007A681268134403F580631B88E1
:103E1C00C3F30903A7F85030B7F85030002B09D082
:103E2C007B6818687B6D59697B6D5A89B7F850307F
:103E3C0004F0C2FA7B6DDA69B7F850301A447B6D26
:103E4C00DA617B6D5A69B7F850301A447B6D5A6150
:103E5C007B6D9B69002B05D0B7F850207B6D1B69DF
:103E6C009A4206D27B6D1B781946786806F0C0F82A
:103E7C0005E07B681B68796D184602F069FDB7F8A0
:103E8C004A3003F08003002B00F0238197F84D306B
:103E9C005A1C13469B001344DB007A6813447B6561
:103EAC007B681B681A4697F84D309B0013441B889F
:103EBC009BB223F4E14323F07003A7F842307B68F4
:103ECC001B681A4697F84D309B001A44B7F84230DD
:103EDC006FEA43436FEA53439BB213807B6DDB78ED
:103EEC00012B40F0A2807B6D00229A617B6D1B7BC5
:103EFC00002B00F09380B7F84A3003F04003002BFE
:103F0C0046D07B6D5B78002B26D17B681B687B626F
:103F1C007B681B68B3F850309BB21A467B6A13441B
:103F2C007B627B6D1B781A017B6A134403F204439A
:103F3C003B623B6A1B889BB2C3F309039AB23B6A90
:103F4C001A803B6A1B889BB26FEA43436FEA534368
:103F5C009AB23B6A1A8061E07B6D5B78012B5DD174
:103F6C007B681B68FB627B681B68B3F850309BB2A4
:103F7C001A46FB6A1344FB627B6D1B781A01FB6AC1
:103F8C00134403F20443BB62BB6A00221A8045E06F
:103F9C007B681B68FB637B6D5B78002B26D17B6891
:103FAC001B687B637B681B68B3F850309BB21A4666
:103FBC007B6B13447B637B6D1B781A017B6B134407
:103FCC0003F20C433B633B6B1B889BB2C3F30903AB
:103FDC009AB23B6B1A803B6B1B889BB26FEA4343D4
:103FEC006FEA53439AB23B6B1A8017E07B6D5B7898
:103FFC00012B13D17B681B68B3F850309BB21A4667
:10400C00FB6B1344FB637B6D1B781A01FB6B134436
:10401C0003F20C43BB63BB6B00221A807B6D1B78D5
:10402C001946786805F0FFFF53E0B7F84A3003F4FF
:10403C008073002B46D17B681B68B3F850309BB261
:10404C001A467B6D1B78DB00134402335B007A68E5
:10405C001268134403F580631B88C3F30903A7F8A4
:10406C0040307B6D9A69B7F840309A4207D97B6D26
:10407C009A69B7F84030D21A7B6D9A6102E07B6D79
:10408C0000229A617B6D9B69002B06D17B6D1B789E
:10409C001946786805F0C7FF1BE07B6D5A69B7F8C5
:1040AC0040301A447B6D5A617B6DDA69B7F8403049
:1040BC001A447B6DDA617B681B68796D184602F0D7
:1040CC0047FC06E0B7F84A301A46796D786800F07C
:1040DC001BF97B681B68B3F844309BB21BB2002BF6
:1040EC00FFF638AC002318465837BD4680BD80B566
:1040FC0088B000AFF860B9601346FB80FB8803F40E
:10410C008043002B7ED0FB681B68B3F850309BB209
:10411C001A46BB681B78DB00134402335B00FA6859
:10412C001268134403F580631B88C3F309037B8374
:10413C00BB689A697B8B9A4206D3BB689A697B8B66
:10414C00D21ABB689A6102E0BB6800229A61BB6814
:10415C009B69002B23D1FB681B681A46BB681B7834
:10416C009B0013441B889BB223F4804323F0700301
:10417C003B833B8B83F400533B83FB681B681A46E1
:10418C00BB681B789B001A443B8B43F07F4343F482
:10419C007F0343F4004343F080039BB21380FB88FE
:1041AC0003F04003002B1FD0FB681B681A46BB684A
:1041BC001B789B0013441B889BB223F4E04323F031
:1041CC007003FB82FB681B681A46BB681B789B005C
:1041DC001A44FB8A43F07F4343F47F0343F40043C8
:1041EC0043F0C0039BB213807B8B002B00F08780C5
:1041FC00FB681868BB685969BB681A897B8B04F02B
:10420C00DBF87CE0FB681B68B3F850309BB21A46B5
:10421C00BB681B78DB00134406335B00FA6812683A
:10422C00134403F580631B88C3F309037B83BB68CA
:10423C009A697B8B9A4206D3BB689A697B8BD21A9C
:10424C00BB689A6102E0BB6800229A61BB689B69FB
:10425C00002B23D1FB681B681A46BB681B789B009C
:10426C0013441B889BB223F4804323F07003FB831D
:10427C00FB8B83F40053FB83FB681B681A46BB68FB
:10428C001B789B001A44FB8B43F07F4343F47F0362
:10429C0043F4004343F080039BB21380FB8803F08C
:1042AC004003002B1FD1FB681B681A46BB681B78A8
:1042BC009B0013441B889BB223F4E04323F0700350
:1042CC00BB83FB681B681A46BB681B789B001A44AF
:1042DC00BB8B43F07F4343F47F0343F4004343F031
:1042EC00C0039BB213807B8B002B08D0FB68186833
:1042FC00BB685969BB685A897B8B04F05DF87B8B72
:10430C0018462037BD4680BD80B5A4B000AFF8601C
:10431C00B9601346FB80FB8803F04003002B00F0D0
:10432C00DD81FB681B68B3F850309BB21A46BB6842
:10433C001B78DB00134402335B00FA6812681344E9
:10434C0003F580631B88C3F30903A7F88630BB68A9
:10435C009A69B7F886309A4207D9BB689A69B7F858
:10436C008630D21ABB689A6102E0BB6800229A615F
:10437C00BB689B69002B40F0B980BB685B78002B55
:10438C0026D1FB681B68FB62FB681B68B3F85030D6
:10439C009BB21A46FB6A1344FB62BB681B781A017A
:1043AC00FB6A134403F20443BB62BB6A1B889BB2D7
:1043BC00C3F309039AB2BB6A1A80BB6A1B889BB20F
:1043CC006FEA43436FEA53439AB2BB6A1A801AE00E
:1043DC00BB685B78012B16D1FB681B687B63FB68A1
:1043EC001B68B3F850309BB21A467B6B13447B634B
:1043FC00BB681B781A017B6B134403F204433B63C9
:10440C003B6B00221A80FB681B687B62BB685B7885
:10441C00002B26D1FB681B68FB61FB681B68B3F89B
:10442C0050309BB21A46FB691344FB61BB681B7886
:10443C001A01FB69134403F20C43BB61BB691B8873
:10444C009BB2C3F309039AB2BB691A80BB691B8880
:10445C009BB26FEA43436FEA53439AB2BB691A802B
:10446C0017E0BB685B78012B13D1FB681B68B3F8B2
:10447C0050309BB21A467B6A13447B62BB681B7834
:10448C001A017B6A134403F20C433B623B6A002221
:10449C001A80BB681B781946F86805F0C4FDFB88C8
:1044AC0003F48043002B00F0FC82FB681B681A4667
:1044BC00BB681B789B0013441B889BB223F4E0431E
:1044CC0023F07003FB82FB681B681A46BB681B78E1
:1044DC009B001A44FB8A43F07F4343F47F0343F46D
:1044EC00404343F080039BB21380DAE2FB8803F471
:1044FC008043002B21D0FB681B681A46BB681B78D5
:10450C009B0013441B889BB223F4E04323F07003FD
:10451C00A7F88A30FB681B681A46BB681B789B009F
:10452C001A44B7F88A3043F07F4343F47F0343F4D3
:10453C00404343F080039BB21380BB6893F8243054
:10454C00012B40F0AE82BB685A69B7F886301A442A
:10455C00BB685A61BB68DA69B7F886301A44BB6825
:10456C00DA61BB681A6ABB681B699A420BD3BB68D9
:10457C001B69C7F88C30BB681A6AD7F88C30D21A12
:10458C00BB681A6217E0BB681B6A002B08D1B7F82E
:10459C008630C7F88C30BB68002283F824200AE0F0
:1045AC00BB68002283F82420BB681B6AC7F88C30D8
:1045BC00BB6800221A62BB685B78002B65D1FB6874
:1045CC001B68FB63FB681B68B3F850309BB21A4640
:1045DC00FB6B1344FB63BB681B781A01FB6B134426
:1045EC0003F20443BB63BB6B1B889BB2C3F309038D
:1045FC009AB2BB6B1A80D7F88C303E2B1DD9D7F8EA
:10460C008C305B09BB64D7F88C3003F01F03002B94
:10461C0002D1BB6C013BBB64BB6B1B889AB2BB6CFD
:10462C009BB29B029BB213439BB26FEA43436FEA6C
:10463C0053439AB2BB6B1A8044E0D7F88C30002BF2
:10464C000AD1BB6B1B889BB26FEA43436FEA53439F
:10465C009AB2BB6B1A8035E0D7F88C305B08BB6420
:10466C00D7F88C3003F00103002B02D0BB6C013364
:10467C00BB64BB6B1B889AB2BB6C9BB29B029BB29C
:10468C0013439AB2BB6B1A801CE0BB685B78012B9E
:10469C0018D1FB681B687B64FB681B68B3F850304F
:1046AC009BB21A467B6C13447B64BB681B781A0163
:1046BC007B6C134403F204433B64D7F88C309AB2FE
:1046CC003B6C1A80FB681868BB685969BB681A890F
:1046DC00D7F88C309BB203F02AFEE2E1FB681B6832
:1046EC00B3F850309BB21A46BB681B78DB001344FE
:1046FC0006335B00FA681268134403F580631B8869
:10470C00C3F30903A7F88630BB689A69B7F88630FB
:10471C009A4207D3BB689A69B7F88630D21ABB683D
:10472C009A6102E0BB6800229A61BB689B69002B0E
:10473C0040F0C080BB685B78002B26D1FB681B68FF
:10474C00FB67FB681B68B3F850309BB21A46FB6FD3
:10475C001344FB67BB681B781A01FB6F134403F20D
:10476C000443BB67BB6F1B889BB2C3F309039AB2AC
:10477C00BB6F1A80BB6F1B889BB26FEA43436FEA17
:10478C0053439AB2BB6F1A801AE0BB685B78012B5B
:10479C0016D1FB681B687B66FB681B68B3F850304E
:1047AC009BB21A467B6E13447B66BB681B781A015E
:1047BC007B6E134403F204433B663B6E00221A806B
:1047CC00FB681B687B67BB685B78002B2BD1FB6895
:1047DC001B68FB66FB681B68B3F850309BB21A462B
:1047EC00FB6E1344FB66BB681B781A01FB6E13440B
:1047FC0003F20C43C7F88030D7F880301B889BB28B
:10480C00C3F309039AB2D7F880301A80D7F88030F6
:10481C001B889BB26FEA43436FEA53439AB2D7F8B3
:10482C0080301A8017E0BB685B78012B13D1FB68D2
:10483C001B68B3F850309BB21A467B6F13447B67EE
:10484C00BB681B781A017B6F134403F20C433B6764
:10485C003B6F00221A80BB681B781946F86805F07C
:10486C00E2FBFB8803F48043002B40F01A81FB68C9
:10487C001B681A46BB681B789B0013441B889BB2B1
:10488C0023F4E04323F07003A7F88830FB681B681F
:10489C001A46BB681B789B001A44B7F8883043F063
:1048AC007F4343F47F0343F4404343F080039BB2C4
:1048BC001380F6E0FB8803F48043002B21D1FB68C6
:1048CC001B681A46BB681B789B0013441B889BB261
:1048DC0023F4E04323F07003A7F84E30FB681B6809
:1048EC001A46BB681B789B001A44B7F84E3043F04D
:1048FC007F4343F47F0343F4404343F080039BB274
:10490C001380BB6893F82430012B40F0CA80BB683D
:10491C005A69B7F886301A44BB685A61BB68DA69C1
:10492C00B7F886301A44BB68DA61BB681A6ABB6890
:10493C001B699A420BD3BB681B69C7F88C30BB68E8
:10494C001A6AD7F88C30D21ABB681A6217E0BB68A7
:10495C001B6A002B08D1B7F88630C7F88C30BB68BF
:10496C00002283F824200AE0BB681B6AC7F88C304D
:10497C00BB6800221A62BB68002283F82420FB6803
:10498C001B687B65BB685B78002B65D1FB681B687B
:10499C00FB65FB681B68B3F850309BB21A46FB6D85
:1049AC001344FB65BB681B781A01FB6D134403F2BF
:1049BC000C43BB65BB6D1B889BB2C3F309039AB256
:1049CC00BB6D1A80D7F88C303E2B1DD9D7F88C30A4
:1049DC005B09BB66D7F88C3003F01F03002B02D1A8
:1049EC00BB6E013BBB66BB6D1B889AB2BB6E9BB2A8
:1049FC009B029BB213439BB26FEA43436FEA534350
:104A0C009AB2BB6D1A8041E0D7F88C30002B0AD1DA
:104A1C00BB6D1B889BB26FEA43436FEA53439AB258
:104A2C00BB6D1A8032E0D7F88C305B08BB66D7F8C8
:104A3C008C3003F00103002B02D0BB6E0133BB663C
:104A4C00BB6D1B889AB2BB6E9BB29B029BB213438D
:104A5C009AB2BB6D1A8019E0BB685B78012B15D13B
:104A6C00FB681B68B3F850309BB21A467B6D13443D
:104A7C007B65BB681B781A017B6D134403F20C43F6
:104A8C003B65D7F88C309AB23B6D1A80FB6818687E
:104A9C00BB685969BB685A89D7F88C309BB203F054
:104AAC0046FCFB681B681A46BB681B789B001344CA
:104ABC001B889BB223F4E04323F04003BB82BB8AE8
:104ACC0083F01003BB82BB8A83F02003BB82FB689C
:104ADC001B681A46BB681B789B001A44BB8A43F0C0
:104AEC007F4343F47F0343F4004343F080039BB2C2
:104AFC001380002318469037BD4680BD80B487B024
:104B0C0000AFF8607B600B467B8113463B817B8951
:104B1C0003F080039BB2002B0BD07B8903F00703BF
:104B2C005A1C13469B001344DB00FA6813447B6148
:104B3C0009E07A8913469B001344DB0003F5B47338
:104B4C00FA6813447B613B89002B07D17B690022F7
:104B5C001A737B689AB27B69DA800BE07B6901225D
:104B6C001A737B689AB27B691A817B681B0C9AB2A8
:104B7C007B695A81002318461C37BD4680BC7047A0
:104B8C0080B586B000AF78607B68002B01D1012323
:104B9C0072E27B681B6803F00103002B00F0878036
:104BAC00924B5B6803F00C03042B0CD08F4B5B68AF
:104BBC0003F00C03082B12D18C4B5B6803F480338D
:104BCC00B3F5803F0BD1894B1B6803F40033002BEA
:104BDC006CD07B685B68002B68D101234CE27B684E
:104BEC005B68B3F5803F06D1804B1B687F4A43F46A
:104BFC00803313602EE07B685B68002B0CD17B4B01
:104C0C001B687A4A23F480331360784B1B68774A0D
:104C1C0023F4802313601DE07B685B68B3F5A02F41
:104C2C000CD1724B1B68714A43F4802313606F4B99
:104C3C001B686E4A43F4803313600BE06B4B1B68AC
:104C4C006A4A23F480331360684B1B68674A23F469
:104C5C00802313607B685B68002B13D0FCF7F2FE9B
:104C6C00386108E0FCF7EEFE02463B69D31A642B70
:104C7C0001D9032300E25D4B1B6803F40033002BC6
:104C8C00F0D014E0FCF7DEFE386108E0FCF7DAFE49
:104C9C0002463B69D31A642B01D90323ECE1534B35
:104CAC001B6803F40033002BF0D100E000BF7B68DD
:104CBC001B6803F00203002B63D04C4B5B6803F0C2
:104CCC000C03002B0BD0494B5B6803F00C03082B37
:104CDC001CD1464B5B6803F48033002B16D1434B3D
:104CEC001B6803F00203002B05D07B681B69012BAA
:104CFC0001D00123C0E13D4B1B6823F0F8027B6817
:104D0C005B69DB00394913430B603AE07B681B6934
:104D1C00002B20D0364B01221A60FCF793FE386131
:104D2C0008E0FCF78FFE02463B69D31A022B01D92F
:104D3C000323A1E12D4B1B6803F00203002BF0D0E1
:104D4C002A4B1B6823F0F8027B685B69DB00274960
:104D5C0013430B6015E0264B00221A60FCF772FE21
:104D6C00386108E0FCF76EFE02463B69D31A022B51
:104D7C0001D9032380E11D4B1B6803F00203002BB8
:104D8C00F0D17B681B6803F00803002B3AD07B68DA
:104D9C009B69002B19D0174B01221A60FCF752FEAD
:104DAC00386108E0FCF74EFE02463B69D31A022B31
:104DBC0001D9032360E10D4B5B6A03F00203002B66
:104DCC00F0D0012000F0BAFA1CE00A4B00221A6065
:104DDC00FCF738FE38610FE0FCF734FE02463B6905
:104DEC00D31A022B08D9032346E100BF001002405E
:104DFC000000424280044242924B5B6A03F0020381
:104E0C00002BE9D17B681B6803F00403002B00F036
:104E1C00A6800023FB758B4BDB6903F08053002BC2
:104E2C000DD1884BDB69874A43F08053D361854BA6
:104E3C00DB6903F08053BB60BB680123FB75824BBD
:104E4C001B6803F48073002B18D17F4B1B687E4AC0
:104E5C0043F480731360FCF7F5FD386108E0FCF750
:104E6C00F1FD02463B69D31A642B01D9032303E1FC
:104E7C00754B1B6803F48073002BF0D07B68DB68E8
:104E8C00012B06D16F4B1B6A6E4A43F00103136270
:104E9C002DE07B68DB68002B0CD16A4B1B6A694ADE
:104EAC0023F001031362674B1B6A664A23F0040369
:104EBC0013621CE07B68DB68052B0CD1614B1B6A11
:104ECC00604A43F0040313625E4B1B6A5D4A43F075
:104EDC00010313620BE05B4B1B6A5A4A23F001037C
:104EEC001362584B1B6A574A23F0040313627B6806
:104EFC00DB68002B15D0FCF7A5FD38610AE0FCF748
:104F0C00A1FD02463B69D31A41F28832934201D982
:104F1C000323B1E04B4B1B6A03F00203002BEED0D2
:104F2C0014E0FCF78FFD38610AE0FCF78BFD0246BC
:104F3C003B69D31A41F28832934201D903239BE097
:104F4C00404B1B6A03F00203002BEED1FB7D012BBF
:104F5C0005D13C4BDB693B4A23F08053D3617B6822
:104F6C00DB69002B00F08780364B5B6803F00C0389
:104F7C00082B61D07B68DB69022B46D1334B0022B6
:104F8C001A60FCF75FFD386108E0FCF75BFD024638
:104F9C003B69D31A022B01D903236DE0294B1B6803
:104FAC0003F00073002BF0D17B681B6AB3F5803FD4
:104FBC0008D1244B5B6823F400327B689B68214941
:104FCC0013434B601F4B5B6823F474127B68196AA4
:104FDC007B685B6A0B431B4913434B601B4B0122E1
:104FEC001A60FCF72FFD386108E0FCF72BFD024638
:104FFC003B69D31A022B01D903233DE0114B1B68EB
:10500C0003F00073002BF0D035E0104B00221A6037
:10501C00FCF718FD386108E0FCF714FD02463B690B
:10502C00D31A022B01D9032326E0064B1B6803F08D
:10503C000073002BF0D11EE07B68DB69012B07D1DC
:10504C00012319E000100240007000406000424251
:10505C000B4B5B68FB60FB6803F480327B681B6A5C
:10506C009A4206D1FB6803F470127B685B6A9A4221
:10507C0001D0012300E0002318461837BD4680BD3F
:10508C000010024080B584B000AF786039607B6856
:10509C00002B01D10123D0E06A4B1B6803F00703FE
:1050AC003A689A4210D9674B1B6823F0070265498E
:1050BC003B6813430B60634B1B6803F007033A68B0
:1050CC009A4201D00123B8E07B681B6803F002030D
:1050DC00002B20D07B681B6803F00403002B05D049
:1050EC00594B5B68584A43F4E06353607B681B6818
:1050FC0003F00803002B05D0534B5B68524A43F472
:10510C0060535360504B5B6823F0F0027B689B68E4
:10511C004D4913434B607B681B6803F00103002B64
:10512C0040D07B685B68012B07D1474B1B6803F4AD
:10513C000033002B15D101237FE07B685B68022BC9
:10514C0007D1414B1B6803F00073002B09D10123DD
:10515C0073E03D4B1B6803F00203002B01D10123CC
:10516C006BE0394B5B6823F003027B685B68364964
:10517C0013434B60FCF766FCF8600AE0FCF762FC3A
:10518C000246FB68D31A41F28832934201D90323B9
:10519C0053E02D4B5B6803F00C027B685B689B0053
:1051AC009A42EBD1274B1B6803F007033A689A42EB
:1051BC0010D2244B1B6823F0070222493B6813438F
:1051CC000B60204B1B6803F007033A689A4201D02E
:1051DC00012332E07B681B6803F00403002B08D02A
:1051EC00194B5B6823F4E0627B68DB681649134358
:1051FC004B607B681B6803F00803002B09D0124B33
:10520C005B6823F460527B681B69DB000E49134317
:10521C004B6000F021F802460B4B5B681B0903F056
:10522C000F030A49CB5C22FA03F3094A1360094BBA
:10523C001B681846FCF7C4FB002318461037BD4604
:10524C0080BD00BF002002400010024098A500085D
:10525C00000000200400002080B487B000AF0023C1
:10526C00FB600023BB6000237B6100237B60002379
:10527C003B611E4B5B68FB60FB6803F00C03042B6B
:10528C0002D0082B03D027E0194B3B6127E0FB68C9
:10529C009B0C03F00F03174AD35C7B60FB6803F491
:1052AC008033002B10D0114B5B685B0C03F00103B7
:1052BC00114AD35CBB607B680D4A03FB02F2BB68EE
:1052CC00B2FBF3F37B6104E07B680C4A02FB03F353
:1052DC007B617B693B6102E0054B3B6100BF3B6935
:1052EC0018461C37BD4680BC704700BF00100240FA
:1052FC0000127A00B0A50008C0A5000800093D0006
:10530C0080B400AF024B1B681846BD4680BC70478A
:10531C000000002080B500AFFFF7F2FF0246054BFE
:10532C005B681B0A03F007030349CB5C22FA03F307
:10533C00184680BD00100240A8A5000880B485B0B6
:10534C0000AF78600A4B1B680A4AA2FB03235B0A76
:10535C007A6802FB03F3FB6000BFFB685A1EFA601D
:10536C00002BF9D100BF00BF1437BD4680BC70477D
:10537C0000000020D34D621080B586B000AF78607D
:10538C0000233B610023FB607B681B6803F0010377
:10539C00002B7DD00023FB754F4BDB6903F0805352
:1053AC00002B0DD14C4BDB694B4A43F08053D3613E
:1053BC00494BDB6903F08053BB60BB680123FB7571
:1053CC00464B1B6803F48073002B18D1434B1B68AE
:1053DC00424A43F480731360FCF734FB386108E0F5
:1053EC00FCF730FB02463B69D31A642B01D903232B
:1053FC006DE03A4B1B6803F48073002BF0D0364BF6
:10540C001B6A03F44073FB60FB68002B2ED07B6897
:10541C005B6803F44073FA689A4227D02E4B1B6AE0
:10542C0023F44073FB602E4B01221A602C4B00229C
:10543C001A60294AFB681362FB6803F00103002B16
:10544C0014D0FCF7FFFA38610AE0FCF7FBFA0246CD
:10545C003B69D31A41F28832934201D9032336E0D7
:10546C001D4B1B6A03F00203002BEED01A4B1B6A78
:10547C0023F440727B685B68174913430B62FB7D16
:10548C00012B05D1144BDB69134A23F08053D361F4
:10549C007B681B6803F00203002B08D00E4B5B6883
:1054AC0023F440427B689B680B4913434B607B6839
:1054BC001B6803F01003002B08D0074B5B6823F428
:1054CC0080027B68DB68044913434B600023184659
:1054DC001837BD4680BD00BF001002400070004070
:1054EC004004424280B582B000AF78607B68002BEC
:1054FC0001D1012376E07B685B6A002B08D17B68C5
:10550C005B68B3F5827F09D07B680022DA6105E025
:10551C007B6800221A617B6800225A617B6800223A
:10552C009A627B6893F85130DBB2002B06D17B6812
:10553C00002283F850207868FCF738F97B68022247
:10554C0083F851207B681B681A687B681B6822F003
:10555C0040021A607B685B6803F482727B689B680C
:10556C0003F404431A437B68DB6803F400631A43B7
:10557C007B681B6903F002031A437B685B6903F0C9
:10558C0001031A437B689B6903F400731A437B681D
:10559C00DB6903F038031A437B681B6A03F0800352
:1055AC0042EA03017B689B6A03F400527B681B6828
:1055BC000A431A607B689B691A0C7B681B6802F0B3
:1055CC0004025A607B681B68DA697B681B6822F4EA
:1055DC000062DA617B6800225A657B68012283F8DD
:1055EC005120002318460837BD4680BD80B588B0D1
:1055FC0000AFF860B9603B601346FB800023FB777B
:10560C00FB6893F85030012B01D102232DE1FB688C
:10561C00012283F85020FCF715FAB861FB88FB8255
:10562C00FB6893F85130DBB2012B02D00223FB77DD
:10563C0016E1BB68002B02D0FB88002B02D10123A2
:10564C00FB770DE1FB68032283F85120FB680022F5
:10565C005A65FB68BA681A63FB68FA889A86FB6815
:10566C00FA88DA86FB6800229A63FB6800229A8724
:10567C00FB680022DA87FB6800225A64FB68002270
:10568C001A64FB689B68B3F5004F0FD1FB681B686D
:10569C001A68FB681B6822F040021A60FB681B68E2
:1056AC001A68FB681B6842F480421A60FB681B682E
:1056BC001B6803F04003402B07D0FB681B681A687B
:1056CC00FB681B6842F040021A60FB68DB68B3F5AC
:1056DC00006F4FD1FB685B68002B02D0FB8A012B5B
:1056EC0042D1FB681B6B1A88FB681B68DA60FB688D
:1056FC001B6B9A1CFB681A63FB68DB8E9BB2013B2D
:10570C009AB2FB68DA862FE0FB681B689B6803F093
:10571C000203022B12D1FB681B6B1A88FB681B68F7
:10572C00DA60FB681B6B9A1CFB681A63FB68DB8EE8
:10573C009BB2013B9AB2FB68DA8615E0FCF782F962
:10574C000246BB69D31A3A689A4203D83B68B3F154
:10575C00FF3F02D13B68002B06D10323FB77FB688C
:10576C00012283F851207BE0FB68DB8E9BB2002B7F
:10577C00CAD150E0FB685B68002B02D0FB8A012B7E
:10578C0044D1FB681A6BFB681B680C3312781A70D7
:10579C00FB681B6B5A1CFB681A63FB68DB8E9BB2A5
:1057AC00013B9AB2FB68DA8630E0FB681B689B68A9
:1057BC0003F00203022B13D1FB681A6BFB681B6806
:1057CC000C3312781A70FB681B6B5A1CFB681A633B
:1057DC00FB68DB8E9BB2013B9AB2FB68DA8615E064
:1057EC00FCF730F90246BB69D31A3A689A4203D8DF
:1057FC003B68B3F1FF3F02D13B68002B06D103237A
:10580C00FB77FB68012283F8512029E0FB68DB8ED3
:10581C009BB2002BC9D1BA693968F86800F062FAFA
:10582C000346002B02D0FB6820225A65FB689B685C
:10583C00002B0AD100233B61FB681B68DB683B61D2
:10584C00FB681B689B683B613B69FB685B6D002BCD
:10585C0002D00123FB7703E0FB68012283F851207F
:10586C00FB68002283F85020FB7F18462037BD468A
:10587C0080BD80B58CB000AFF860B9607A607B8079
:10588C000123FB62002387F82B30FB6893F8503020
:10589C00012B01D1022398E1FB68012283F85020EF
:1058AC00FCF7D0F87862FB6893F8513087F8233016
:1058BC00FB685B68FB617B887B8397F82330012B4B
:1058CC000FD0FB69B3F5827F07D1FB689B68002B77
:1058DC0003D197F82330042B03D0022387F82B3005
:1058EC006DE1BB68002B05D07B68002B02D07B8858
:1058FC00002B03D1012387F82B3060E1FB6893F870
:10590C005130DBB2042B03D0FB68052283F8512005
:10591C00FB6800225A65FB687A689A63FB687A8890
:10592C00DA87FB687A889A87FB68BA681A63FB681F
:10593C007A88DA86FB687A889A86FB6800221A6471
:10594C00FB6800225A64FB681B681B6803F0400369
:10595C00402B07D0FB681B681A68FB681B6842F079
:10596C0040021A60FB68DB68B3F5006F7CD1FB6802
:10597C005B68002B02D07B8B012B6AD1FB681B6B05
:10598C001A88FB681B68DA60FB681B6B9A1CFB6847
:10599C001A63FB68DB8E9BB2013B9AB2FB68DA861A
:1059AC0057E0FB681B689B6803F00203022B1BD1BA
:1059BC00FB68DB8E9BB2002B16D0FB6A012B13D13C
:1059CC00FB681B6B1A88FB681B68DA60FB681B6B37
:1059DC009A1CFB681A63FB68DB8E9BB2013B9AB284
:1059EC00FB68DA860023FB62FB681B689B6803F08C
:1059FC000103012B19D1FB68DB8F9BB2002B14D058
:105A0C00FB681B68DA68FB689B6B92B21A80FB68B8
:105A1C009B6B9A1CFB689A63FB68DB8F9BB2013B08
:105A2C009AB2FB68DA870123FB62FCF70BF802469B
:105A3C007B6AD31ABA6B9A420BD8BB6BB3F1FF3F9C
:105A4C0007D0032387F82B30FB68012283F8512001
:105A5C00B5E0FB68DB8E9BB2002BA2D1FB68DB8F21
:105A6C009BB2002B9DD180E0FB685B68002B02D0C1
:105A7C007B8B012B6FD1FB681A6BFB681B680C339B
:105A8C0012781A70FB681B6B5A1CFB681A63FB6854
:105A9C00DB8E9BB2013B9AB2FB68DA865BE0FB685B
:105AAC001B689B6803F00203022B1CD1FB68DB8E86
:105ABC009BB2002B17D0FB6A012B14D1FB681A6B1D
:105ACC00FB681B680C3312781A70FB681B6B5A1C32
