:100000000C9453000C9465000C9465000C946500EE
:100010000C9465000C9465000C9465000C946500CC
:100020000C9465000C9465000C9465000C946500BC
:100030000C9465000C9465000C9465000C946500AC
:100040000C9465000C9465000C944D020C946500B2
:100050000C9465000C9465000C9465000C9465008C
:100060000C9465000C9465000C9400000C94000046
:100070000C9400000C9400001B0732075F07070771
:100080000707070707070707070707070707070700
:1000900007070707070707071A083B085B089308C5
:1000A000B808D208F50811241FBECFEFD8E0DEBF94
:1000B000CDBF23E0A0E0B1E001C01D92AC3AB20791
:1000C000E1F70E9489020C9440090C940000219AE7
:1000D00085B185B987B187B988B188B98AB18AB93C
:1000E0008BB18BB98DB18DB98EB18EB93B9A3998E0
:1000F000419A3A9A389A08958FB780930001F894FC
:100100000895809100018FBF08951F93CF93DF93CF
:10011000C2E6D0E0188110640E947C0080E88883E9
:100120001883DF91CF911F910C948100EDEAF0E0EC
:1001300090819F7C82958073892B8083089585B1FF
:10014000837C846085B984B1837C8C6284B980E1CE
:100150008CBD1DBC8CB580648CBD08958EBDCE99C0
:10016000FECF8EB594E499BB08950CB405FC0DC088
:100170009EBDCE99FECF9EB524E429BB8EBDCE99FF
:10018000FECF8EB524E429BB08958EBDCE99FECF57
:100190008EB524E429BB9EBDCE99FECF9EB5F2CF8D
:1001A000DC01611581F08C918EBDFD01862F94E4F8
:1001B0008A9551F46150A60FB11DCE99FECF8EB530
:1001C0008C9384E489BB08953181CE99FECF2EB5FE
:1001D00099BB3EBD2193ECCFE2EFF0E090819360BC
:1001E00080E88083908390819F7980839083000052
:1001F0000000E1E6F0E0808380830895E2EFF0E024
:1002000090818295880F80769F79892B90E89083E2
:10021000808308958F708068E1E6F0E090E8908335
:1002200080830895E1E6F0E080818F7990E8908303
:10023000808308952091B9002E7F2093B9002091EA
:10024000B9002D7F2093B9009C0140E050E060E0B0
:100250007DE780E090E00E94F908822F203118F0BD
:10026000269588EF820F8093B800089580E991E089
:100270000E941A01ECEBF0E0808184608083109290
:100280000101808181608083808180648083089502
:100290001092C00086E08093C20088E98093C1007C
:1002A0001092C50080E18093C40008959091C00031
:1002B00095FFFCCF8093C6000895CF93DF93EC01A8
:1002C0008991811103C0DF91CF9108950E94560159
:1002D000F7CF84EA8093BC008091BC0087FFFCCFFD
:1002E000089584E98093BC0008958093BB0084E85E
:1002F0008093BC008091BC0087FFFCCF08950C94D4
:10030000750184EC8093BC008091BC0087FFFCCF1A
:100310008091BB00089584E88093BC008091BC006C
:1003200087FFFCCF8091BB0008956F927F928F92E0
:100330009F92AF92BF92CF92DF92EF92FF920F9374
:100340001F93CF93DF93A82ED62FB72EC42F39013A
:10035000680147010E9469018A2D0E947501C2301F
:1003600018F08B2D0E9475018D2F0E947501E301FD
:10037000C80DD91D812C912C5401E12CF12C8C1429
:100380009D04AE04BF0498F084E98093BC0080E033
:10039000DF91CF911F910F91FF90EF90DF90CF9061
:1003A000BF90AF909F908F907F906F9008958991AC
:1003B0000E9475018FEF881A980AA80AB80ADFCF41
:1003C0004F925F926F927F928F929F92AF92BF9265
:1003D000CF92DF92EF92FF920F931F93CF93DF9311
:1003E000D82E662EC42E752EE901470158010E94B1
:1003F00069018D2D0E94750182E0681618F0872D25
:100400000E9475018C2D0E9475010E9469018D2D3D
:1004100081600E9475016E01E12CF12C870124019D
:100420003501E1E04E1A510861087108E414F50441
:1004300006051705E8F081E0881A9108C80DD91D56
:100440000E948B01888384E98093BC0080E0DF9167
:10045000CF911F910F91FF90EF90DF90CF90BF90C1
:10046000AF909F908F907F906F905F904F90089586
:100470000E948101F60181936F01FFEFEF1AFF0ADD
:100480000F4F1F4FD3CF0E94EC000E9467000E94C5
:1004900048010E949F000C9436011F921FB61F92C4
:1004A00011242F938F939F93EF93FF932091050136
:1004B0008091C600E22FF0E0EA5FFE4F80832F5F5D
:1004C00020930501233021F48091070180930301DB
:1004D00080910301811581F090E003962817190699
:1004E00059F41092050110920301809108018D3397
:1004F00061F481E080930201FF91EF919F918F91D0
:100500002F911F901FBE1F90189581E080930401CA
:10051000F3CF0E944302789480910401811521F069
:100520000E94F506109204010000F6CF0F931F936E
:10053000CF93DF93EC018C01060F111DC017D1077B
:1005400029F4DF91CF911F910F91089589910E9415
:100550005601F4CFE6E0F1E08EEF808381E0818305
:100560008CEC8283138264E0CF010C949602EF92AC
:10057000FF920F931F93CF93DF93D82F8B01C42F3C
:1005800079018EEF0E9456018C2F0E9456018D2F0B
:100590000E9456010E0D1F1DE12CF12CD0E0EC162F
:1005A000FD0638F0DF91CF911F910F91FF90EF90F2
:1005B0000895F80181918F010E945601FFEFEF1A13
:1005C000FF0AEDCF8F929F92AF92BF92EF92FF9270
:1005D0000F931F938091A8019091A901A091AA0166
:1005E000B091AB0180389105A105B10599F510E8EE
:1005F000E12EF12C00E010E02CEA31E040E050E088
:1006000061E080EA0E94E001812C912C54018091EC
:10061000A8019091A901A091AA01B091AB018816FF
:100620009906AA06BB0648F01F910F91FF90EF9024
:10063000BF90AF909F908F900895940140E86CEA2E
:1006400071E080EE0E94B70220E8820E911CA11C8E
:10065000B11CDDCF811521E09207A105B10579F527
:10066000E12CF12C8701F3942CEA31E040E050E0DA
:1006700061E080EA0E94E001812C912C540180917C
:10068000A8019091A901A091AA01B091AB0188168F
:100690009906AA06BB0640F6940140E86CEA71E0B0
:1006A00080EE0E94B702809102018115E1F3109261
:1006B000020180E8880E911CA11CB11CE0CF815082
:1006C0009140A109B109812C912C540181159740C9
:1006D000A105B10508F454C08091A8019091A90129
:1006E000A091AA01B091AB0188169906AA06BB0693
:1006F00008F09ACF10E8E12EF12C00E010E02CEA8F
:1007000031E0A40162E080EA0E94E00120E030E0F4
:1007100040E86CEA71E080EE0E94B702809102012D
:100720008115E1F31092020120E8820E911CA11CB8
:10073000B11CD2CFC401880F892F881F990B8E70EE
:1007400010E8E12EF12C00E010E02CEA31E0A401E9
:10075000552761E0806A0E94E00120E030E040E837
:100760006CEA71E080EE0E94B7028091020181156F
:10077000E1F31092020180E8880E911CA11CB11CCB
:100780008091A8019091A901A091AA01B091AB011B
:1007900088169906AA06BB0668F246CFCF92DF926A
:1007A000EF92FF920F931F93CF93DF93C0910901B4
:1007B000D0910A01DC27CD27DC278091A8019091F8
:1007C000A901A091AA01B091AB01813021E092076B
:1007D000A105B105B0F565E0C62ED12C760108E083
:1007E00010E026E031E041E0BE0180EA0E94950180
:1007F0008FEF99EF20E0815090402040E1F700C05A
:100800000000289688E0C80ED11C95E2C916D104D4
:1008100029F78EEF8093060181E08093070182EE35
:10082000809308011092090164E086E091E0DF9175
:10083000CF911F910F91FF90EF90DF90CF900C948C
:10084000960281509140A109B10981159740A105F7
:10085000B105D0F5BE017727CE01880F892F881FFB
:10086000990B91958E7035E0E32EF12C00E110E0AC
:1008700026E031E041E0806A0E9495018FEF96E723
:1008800021E0815090402040E1F700C000006096D8
:10089000BE017727CC0FCD2FCC1FDD0BD195CE70AD
:1008A00055E1E52EF12C26E031E041E08C2F806A05
:1008B0000E9495018FEF96E721E081509040204003
:1008C000E1F700C00000A5CF85E0E82EF12C00E2A2
:1008D00010E026E031E042E0BE0180EA0E9495018E
:1008E0008FEF90E722E0815090402040E1F7E9CF80
:1008F000299885E00E94AE0080E00E94AE00299A0F
:100900000895CF92DF92EF92FF92CF93DF932998D1
:100910008091A8019091A901A091AA01B091AB0189
:100920000197A105B14020F583E00E94AE0080E070
:100930000E94AE0080E00E94AE0080E00E94AE0007
:10094000C12CD12C76018091A8019091A901A09190
:10095000AA01B091AB01C816D906EA06FB0668F0F9
:10096000299ADF91CF91FF90EF90DF90CF9008957B
:1009700083E30E94AE0080E0D8CFCCEAD1E08FEFD5
:100980000E94AE00899382E0CC32D807C1F720E004
:1009900030E040E86CEA71E082EF0E94B70280919B
:1009A0000201811541F01092020120E8C20ED11C13
:1009B000E11CF11CC8CF0000F2CFCF92DF92EF9282
:1009C000FF92CF93DF9340910701842F90E06091D5
:1009D0009F017091A001E9E0F1E0DB01A455BE4F59
:1009E00020E030E0281739070CF46CC0860F971F01
:1009F0009093A00180939F01C090A101D090A2018B
:100A0000E090A301F090A401C40ED11CE11CF11CE4
:100A1000C092A101D092A201E092A301F092A401A0
:100A20002091A6013091A70182179307A9F5C81A52
:100A3000D90AE108F108299886E00E94AE00299AB7
:100A40000E94780481FFFCCF299882E00E94AE00CA
:100A50008091A501823019F48F2D0E94AE008E2D59
:100A60000E94AE008D2D0E94AE008C2D0E94AE0023
:100A7000CCEAD1E0E12CF12C8091A6019091A70164
:100A8000E816F90620F1299A0E94780480FDFCCF2F
:100A90001092A00110929F018EEF8093060181E0D9
:100AA0008093070186EF809308011092090164E0AA
:100AB00086E091E0DF91CF91FF90EF90DF90CF90B3
:100AC0000C94960251915D932F5F3F4F8BCF89918C
:100AD0000E94AE008FEFE81AF80ACECF90E0AC018A
:100AE0004F5F5F4F26E030E002C0220F331F4A9570
:100AF000E2F7660F771F262B372B409A45ED4A9574
:100B0000F1F70000039661E070E0AB01082E02C02F
:100B1000440F551F0A94E2F742235323452B79F1E2
:100B2000429A45ED4A95F1F70000439A45ED4A9502
:100B3000F1F700004398019740F720E030E080E0B3
:100B400090E040E050E865ED6A95F1F70000319BD8
:100B500009C0BA01022E02C0769567950A94E2F7A1
:100B6000862B972B439A65ED6A95F1F70000439821
:100B70002F5F3F4F2031310531F74098089542985B
:100B8000D0CFCF92DF92EF92FF920F931F93CF932C
:100B9000DF93C0E0D0E080919C0190919D01C81747
:100BA000D90748F0DF91CF911F910F91FF90EF90FF
:100BB000DF90CF9008956E01D594C7949CEAE92EFA
:100BC00091E0F92E00E010E0B601600F711F8091F6
:100BD0009E010E946E05F701808391830F5F1F4F76
:100BE000F2E0EF0EF11C0034110571F720E030E067
:100BF00040E86CEA71E080EB0E94B702809102014C
:100C00008115E1F310920201C058DF4FC4CFFA0101
:100C1000282F30E045E050E0DA0102C0AA0FBB1FE8
:100C20008A95E2F7CD01862B972B409AB5EDBA95C0
:100C3000F1F700002E5F3F4F61E070E0AB01022E44
:100C400002C0440F551F0A94E2F748235923452B4D
:100C5000A1F1429A45ED4A95F1F70000439AA5EDBE
:100C6000AA95F1F7000043982150310938F780E048
:100C700090E040E050E89A01082E02C03695279592
:100C80000A94E2F72E233F23232BC9F0429A25ED45
:100C90002A95F1F70000439AA5EDAA95F1F7000017
:100CA000439801968031910531F740988FE193E0A8
:100CB0000197F1F700C0000008954298CBCF429809
:100CC000E6CF90E070E09C012250310902C0660F2F
:100CD000771F2A95E2F7409A25ED2A95F1F7000053
:100CE000029641E050E09A01082E02C0220F331F05
:100CF0000A94E2F726233723232BA9F0429A25ED05
:100D00002A95F1F70000439A25ED2A95F1F70000A6
:100D10004398019740F740988FE193E00197F1F7EE
:100D200000C0000008954298EACF409A8FE79CE007
:100D30000197F1F700C00000319909C08FE891E0F8
:100D40000197F1F700C00000409881E008954098B5
:100D500080E00895EF92FF920F931F93CF93DF935C
:100D6000C0910901D0910A01DC27CD27DC27D69557
:100D7000C79596E0E92E91E0F92E00E010E0F7012A
:100D800086814581582FB8016C0F7D1F80919E018F
:100D90000E9407060E9495068111FCCFFFEF26E70F
:100DA00081E0F15020408040E1F700C000000F5F7B
:100DB0001F4F92E0E90EF11C0031110501F78EEF93
:100DC0008093060181E08093070182EB8093080104
:100DD0001092090164E086E091E0DF91CF911F91CC
:100DE0000F91FF90EF900C949602CF93DF93E091D8
:100DF0000801E73F60F4E03E68F4E23B09F4CAC052
:100E000088F4E03B09F45FC0E13B09F48BC0DF915B
:100E1000CF910895E05EE731D0F7F0E0E45CFF4F5A
:100E20000C941809EC3B09F4B9C0EC3C81F7DF9154
:100E3000CF910C94AA028091090190910A01982700
:100E400089279827092E000CAA0BBB0B8093A801B9
:100E50009093A901A093AA01B093AB01DF91CF9128
:100E60000C94E2028091090190910A019827892748
:100E70009827092E000CAA0BBB0B8093A801909316
:100E8000A901A093AA01B093AB011092A101109205
:100E9000A2011092A3011092A4018EEF809306018B
:100EA00081E08093070182EE80930801109209018E
:100EB00064E086E091E0DF91CF910C949602DF919F
:100EC000CF910C94CE038091090190910A0198274B
:100ED0008927982790939D0180939C01811522E09A
:100EE0009207E1F054F48038910581F0811591402A
:100EF00089F0DF91CF910C94C105811524E0920710
:100F000019F081159840A9F78AE001C086E0809326
:100F10009E01EFCF80910B01811102C088E0F7CFD5
:100F200087E0F5CF8091090190910A0198278927E0
:100F3000982790939D0180939C01811522E0920750
:100F400029F19CF480389105C9F081159140D1F0C8
:100F500063E180919E010E9461068EEF80930601FD
:100F600081E08093070182EB9FCF811524E09207F7
:100F700019F08115984061F78AE001C086E08093FE
:100F80009E01E6CF80910B01811102C088E0F7CF6E
:100F900087E0F5CFDF91CF910C94AA0680910901EB
:100FA00090910A0198278927982790939D01809313
:100FB0009C01811522E09207C9F13CF5803891052A
:100FC00069F18115914071F163E180919E010E9468
:100FD000610662E180919E010E9461068FE193E0CB
:100FE0000197F1F700C000000E9495068111FCCF27
:100FF00060E180919E010E9461068EEF8093060160
:1010000081E0809307018CEB4FCF811524E092079C
:1010100019F081159840C1F68AE001C086E08093FE
:101020009E01D2CF80910B01811102C088E0F7CFE1
:1010300087E0F5CF29988FE90E94AE0080E00E94FA
:10104000AE00C82F80E00E94AE00D82F80E00E9442
:10105000AE00299A9EEF9093060193E090930701CA
:1010600090EF90930801D093090180930A01C093F7
:101070000B0166E01ECF299885E00E94AE0080E05B
:101080000E94AE00C82F299A299885E30E94AE00DD
:1010900080E00E94AE00299A9EEF9093060192E0B4
:1010A0009093070191EF90930801C09309018093F9
:1010B0000A0165E0FECE40910A0150E0542F44271A
:1010C000052E000C660B770B8091090190E0982F9C
:1010D0008827092E000CAA0BBB0BDC019927882757
:1010E000762F652F542F4427842B952BA62BB72BB7
:1010F00040910B0150910C01542745275427052E90
:10110000000C660B770B842B952BA62BB72B8093AB
:10111000A8019093A901A093AA01B093AB01DF911C
:10112000CF910C948104C0910901D0910A012998B2
:1011300080E50E94AE00299A0E94780481FFFCCFCE
:10114000299881E00E94AE008D2F0E94AE008C2F66
:101150000E94AE00299A299884E00E94AE00299A44
:101160008EEF8093060181E08093070183EF9CCE90
:10117000299886E00E94AE00299A0E94780481FF97
:10118000FCCF299887EC0E94AE00299A0E9478042F
:1011900081FFFCCF8EEF8093060181E080930701F1
:1011A00084EF82CE8091090190910A0198278927C6
:1011B00098279093A7018093A60180910B018093BB
:1011C000A5011092A00110929F011092A10110920E
:1011D000A2011092A3011092A4018EEF8093060148
:1011E00081E08093070186EF5FCEDF91CF910C9471
:1011F000DD04052E97FB1EF400940E94100957FD94
:1012000007D00E941E0907FC03D04EF40C9410096D
:1012100050954095309521953F4F4F4F5F4F089522
:1012200090958095709561957F4F8F4F9F4F089552
:10123000EE0FFF1F0590F491E02D0994A1E21A2E04
:10124000AA1BBB1BFD010DC0AA1FBB1FEE1FFF1F6A
:10125000A217B307E407F50720F0A21BB30BE40BBA
:10126000F50B661F771F881F991F1A9469F7609501
:101270007095809590959B01AC01BD01CF010895BB
:04128000F894FFCF10
:00000001FF
