:100000006F100054000000004A0100004C01000085
:1000100000000000000000000000000000000000E0
:1000200000000000000000000000000000000000D0
:100030003E150000000000003E150000000000001A
:100040003E1500003E1500003E1500003E15000064
:100050003E1500003E1500003E1500003E15000054
:100060003E1500003E1500003E1500003E15000044
:100070003E1500003E1500003E1500003E15000034
:100080004E0100003E1500003E1500003E15000028
:100090003E1500003E1500003E1500000000000067
:1000A000511126C022C206C4828282441244A24058
:1000B000310182802A86014593F6150091C232955E
:1000C00085810606F5F9828000000000634E050276
:1000D00063C305042E86AA857D5515C285466378BF
:1000E000B6006356C00006068606E36CB6FE014500
:1000F00063E4C500918D558D85820582F5FA828075
:100100008682C93F2E8582823305A04063D70500D1
:10011000B305B040C1B7B305B0408682653F330533
:10012000A0408282868263C70500634905005D376F
:100130002E858282B305B040E35B05FE3305A04007
:10014000513F3305B0408282000001A001A071112F
:1001500022C0374401409305505213050480EF102C
:10016000F01521CD938571909C2137070020035510
:100170004480130687033E96850793F7F70F08A27E
:100180009CA1138671908D45130787039386519028
:100190006394B7000C338CA28C2285C18D05639EBD
:1001A000B700382323000600238006009307D003FE
:1001B0006319F70005472383E1900244110173009E
:1001C000203005472382E190CDBFEFF27FED111182
:1001D00085453705200002C602C802CA02CC02C00B
:1001E00002C202C4EF10407485454145EF10E07132
:1001F000E1679387076A3EC6B707FFBF3EC8B707E8
:100200000004375400409387070A3ECA6C00916788
:1002100013050440FC84EF1080431305044085451A
:10022000EF100051F1473EC48D473EC28A85994781
:10023000371501407C80EF1020397101BDB5EFF218
:100240003FE63754004093040440B705020026857A
:10025000EF10A0577DF9854513050440EF10C04EFF
:10026000A9B5EFF2FFE3375500408545130505407A
:10027000EF10204F1DBDEFF2BFE2370403007111F4
:10028000AA870504B7540040A285138504403EC0E8
:10029000EF10405282477DD5014693F5F70F138545
:1002A000044037040700EF10C04F130424083755EB
:1002B0000040A28513050540EF10C04F6DD9110114
:1002C000EDB3EFF2FFDD9375F50F375500401305E1
:1002D000054037040700EF10004C1304440837555D
:1002E0000040A28513050540EF10C04C6DD975BBC9
:1002F000EFF21FDB41112EC432C2BE842AC63684FF
:100300003AC0353F324562056185B53712468547AB
:10031000A24563F9C70013D58500620561852EC229
:100320004D379245139585016185613F81470247AD
:1003300063E6E7003D370145410185BB3387F400A3
:100340002297030507003EC2AD3F92478507C5B718
:10035000EFF21FD55111B75700403AC42A842EC07E
:10036000B28436C2138707403A85B7050200EF1002
:10037000C045B7570040138707407DF585453A854E
:10038000EF10803CB7070300850737570040BE8554
:1003900013050740EF100042B7070300375700402E
:1003A000850765D50146A28513050740EF10603F1C
:1003B000B70707009387270837570040BE85130506
:1003C0000740EF10203FB7070700375700409387DB
:1003D00027087DD18246854763F8D70293D58400EC
:1003E00013050740EF10203BB70707009387470826
:1003F00037550040BE8513050540EF10A03BB707F9
:100400000700938747086DD53755004093F5F40FE3
:1004100013050540B7040700EF10E0379384440844
:10042000B757004013850740A685EF10A038B7578F
:1004300000407DD5854513850740B7040300EF10C4
:10044000A0308504B757004013850740A685EF10FC
:100450006036B75700407DD5A28505461385074015
:1004600037040300EF10E033090437550040A2853C
:1004700013050540EF1000346DD9A2470144FD1764
:100480003EC08247637FF402B704001093840404E3
:1004900031A0854513850740EF10402EB757004027
:1004A00013850740A685EF104032B757004075D13D
:1004B00013850740EF10602E9247A29788A305048A
:1004C000C9B73704001013040404B7540040A285D0
:1004D00013850440EF10602F15C192470247138522
:1004E00004403384E700EF10402B08A085451385B6
:1004F0000440EF1000270145310145BE81451385B9
:100500000440EF10A027D1B7EFF29FB90545EF10D7
:10051000E02EEF00D070EF10205EEF001077EF00BC
:1005200070516531092883C7419089C7EF00F00DEC
:1005300023820190CDBFEFF2BFB65111854513055F
:100540000002EF10803C9147371401407C808D47BA
:100550003EC28A85C147130504403EC423110100F1
:10056000EF108006A1478A85130504407C80EF10B8
:10057000A00585478A85130504407C80EF10C004E0
:1005800089477C808A8593078004130504403EC414
:10059000EF1080031305044001468545EF10800AE3
:1005A000130504400146A145EF10C00901469145DD
:1005B00013050440EF1000093101C5BCEFF25FAE36
:1005C000930715009944B394F40086052A843715DF
:1005D0000140CD8C13050540711105468545EF108E
:1005E0006006C20413058002C180EF102054F15749
:1005F0006316F406BD478144371401401305800299
:100600003EC0EF10A052032784408247098B01CBE4
:1006100005453315F500458D93140501C180054648
:10062000A145130504403EC0EF10C0011305800230
:10063000EF10C04F0146A14513050440EF108000A4
:1006400082477D57FD17E39BE7FA130504400146F7
:100650008545EF00307F2685110181BC930734006A
:10066000B3D7F440858B054691E301463715014029
:10067000914513050540EF00F07C13058002EF1053
:10068000E04AB7170140138507400546A145EF0032
:10069000707B13058002EF106049B71701400146D7
:1006A000A14513850740EF00F0797D1489B7EFF27B
:1006B0003F9F95447111B394A4002A8437150140DB
:1006C00032C0CD8C1305054005468545EF00907777
:1006D000C20413058002C180EF104045F557631630
:1006E000F406BD443714014082470546B3D797400E
:1006F000858B91E30146914513050440EF0090740A
:1007000013058002EF1080420546A1451305044001
:10071000EF00507313058002EF1040410146A145E0
:1007200013050440EF001072FD14FD57E39EF4FA28
:100730000146854513050440EF00D07013054006BF
:10074000EF10C03E11016FF05F9693072400B3D7FE
:10075000F440858B054691E30146371501409145EC
:1007600013050540EF00106E13058002EF10003CEA
:10077000B7170140138507400546A145EF00906C6F
:1007800013058002EF10803AB71701400146A145DA
:1007900013850740EF00106B7D1489B7EFF25F906F
:1007A0009304E5FF2A843715014013050540B394EF
:1007B000950005468545EF00F06813058002EF10AF
:1007C000E036F5576310F4023715014001468545C0
:1007D00013050540EF00106713054006EF100035C4
:1007E0006FF0BF8C93970401C18313072400B3D724
:1007F000E740858B054691E3014637150140914559
:1008000013050540EF00106413058002EF1000325D
:10081000B7170140138507400546A145EF009062D8
:1008200013058002EF108030B71701400146A14543
:1008300013850740EF0010617D1461B7EFF25F860A
:10084000371401400546854513050440EF00905FCD
:1008500013050019EF10802D130504401C450146B7
:100860008545EF00305E01456FF03F84EFF25F8316
:100870001305E00FEF00304B0545EF00D04A13059C
:10088000C00CEF00504A0145EF00F0496FF0FF81C6
:10089000EFF21F817111AA8401446345B400110174
:1008A0006FF0BF80B387840088232EC00504EF005B
:1008B00090478245DDB7EFF2AFFE61112AC2130502
:1008C000E00F3284AE8436C0EF00F0451375F40FAC
:1008D000EF00704592473E85EF00F0448147824625
:1008E00063C5870021016FF04FFC3387F600269720
:1008F00008233EC236C0EF00104392478507C5B7B4
:10090000EFF20FFA83A741911307000871111384C6
:100910004191639EE7029386C19101468545130587
:10092000000AEFF0FFA28144184063E5E4001101E2
:100930006FF0AFF793960401C18213060008938508
:10094000C1911305000E853F93840408F1BF13077E
:1009500000106392E7049386C19101468545130513
:10096000000AEFF0FF9E81441840E3F2E4FC939606
:1009700004019385C191C182130600081305000E7E
:100980001D3F03C761901377F70F65DF2383019045
:1009900093840408D1BF9387F7EF1307F06F636B5D
:1009A000F708814713D57740398913F6F70F1307F6
:1009B00000089386C19185451365050A3EC0EFF096
:1009C0003F998146130600089385C1911305000ED7
:1009D000DD35824703C761901377F70F65DF184055
:1009E0002383019093870708E3EEE7FA89B713960C
:1009F0000701130700089386C191418289451305B9
:100A0000000A3EC0EFF0DF9481461306000893858C
:100A1000C1911305000E4535824703C761901377D6
:100A2000F70F65DF23830190938707081840E3E001
:100A3000E7FCF5BD8147DDBFEFF28FE6B70400208C
:100A400093878403A033CC2383A741912204130707
:100A500000104D8C636CF704268381449395040148
:100A6000C18193875500A295C207C205C183930631
:100A7000830321470546C1811305000AEFF05F8714
:100A80001545EF10400EA104930700023703002024
:100A9000E396F4FCB707E2009387E71F23AEF190DB
:100AA00091451385C191ED336FF02FE09387F7EFF8
:100AB0001307F06F6367F70413557440398995473E
:100AC00041479386840305469375F40F1365050A21
:100AD000EFF01F821545EF1000099305040113D5AF
:100AE00075403989D547414793868403054693F578
:100AF000F50F1365050AEFF0AFFF1545EF10A006DF
:100B000051BF954713070002938684030946A285C7
:100B10001305000ACDB7EFF2AFD80146C14537152E
:100B20000140EF0030321545EF0020790145EF001C
:100B3000C0782A840546C14537150140EF00903042
:100B400022856FF08FD6EFF2AFD571110146C14506
:100B500037150140EF00102F03A741919386419173
:100B6000B707000136C063ECE7020D45EF00E07403
:100B70000145EF0080740145EF0020740145EF004E
:100B8000C07381448247944363E0D4020546C14563
:100B900037150140EF00102B11016FF00FD14D45BB
:100BA000EF00A0710145D9B71384C1910D45EF0045
:100BB000C07028B09386C19905041386C191E317CC
:100BC000D4FEE1769386E60F16A293053008C95647
:100BD0001385C19134A26D3983C6619093F6F60FE7
:100BE000E5DE238301909384040869BFEFF24FCBC5
:100BF000B7040020938784036111803383D78190E9
:100C00001386819032C09386840301471386C19175
:100C10008506634F870CA2970247C207C1831EA3B4
:100C20001387C1901443369400C383D60191138770
:100C300001913AC26398D7080146C1453715014072
:100C40001D8CEF0030201945EF0020670546C14597
:100C500037150140EF00101F7D3D098975DD014604
:100C6000C14537150140EF00F01D0945EF00E06474
:100C700003C7819189476316F70013558401EF007C
:100C8000C063135504011375F50FEF00006313558E
:100C900084001375F50FEF0040621375F40FEF0039
:100CA000C061014492479E23634BF4040546C1454D
:100CB00037150140EF001019B93D058975FD8247D0
:100CC0002390070037070020F95793068703238CEA
:100CD000F40285479CB2D957BCA29145930787037C
:100CE00013858403A3810700653621016FF0EFBBF4
:100CF000A822B385E700B29588A1050711BF9387A5
:100D0000C191A297882305044D2B69BFEFF24FB91B
:100D10005111014483D761B26345F40031016FF092
:100D2000CFB813561440420641829386C1910147C1
:100D3000B305E60003C541B2C205C18136C43AC25B
:100D400032C0EFF0BF87A24612479305000488A285
:100D5000218188B2050789060246E31BB7FC81465C
:100D6000130600089385C1911305000BEFF0BFB483
:100D700083C7619093F7F70FE5DF23830190130496
:100D8000040849BFEFF2CFB137070020930687036D
:100D9000BC32D4226111A207D58F85833EC2930451
:100DA000870301443AC0FC20D0301247A2075D8E71
:100DB000B305870003C541B2C205C181EFF03F8F83
:100DC000EFF0DFA775FD3D45EF00F0590504C14781
:100DD0008904E31AF4FC0247F9579145230CF70202
:100DE000370700209306870385479CB2930720FBB3
:100DF000BCA293078703A38107008247138587035B
:100E0000EFF01FA921016FF04FAAEFF26FA9B7060B
:100E100000201384860338201306200E611163031B
:100E2000C716938486036369E6069306C00B630CBA
:100E3000D73663E6E6049306100B630CD72E9306B1
:100E4000200B6300D7369306000B6314D704B83029
:100E5000D4202207558F420741872393E1B293069E
:100E600000206306D72C63CDE628930600086303B1
:100E7000D72A930600106303D72A493D19A8930780
:100E8000000E6304F70A63E1E70C9307C00C630BE1
:100E9000F70821016FF06FA11306300F6307C71623
:100EA0006366E6069307100F6301F70E63E0E7142D
:100EB0009307000FE31FF7FC0146C14537150140BA
:100EC000EF0040781305F009CD2E0145FD26AA84D8
:100ED0000145E5262AC20145CD262AC00546C14561
:100EE00037150140EF0000767956B706002012470B
:100EF0008247238CC6020D4610B0415630A038B050
:100F00005CA044B099451385860395A81306500F3D
:100F10006304C71C6362C7169307600FE31BF7F6F1
:100F2000F13185BFEFF09F94ADB75C203830A20758
:100F3000D98F13978700A183D98FC207C18323AAB2
:100F4000F190EFF0FF9BB1B75C2038301305200320
:100F5000A207D98F13978700A183D98FC207C183B6
:100F600023AAF19023A60190EF00F03FB707E2001B
:100F70009387E71F23AEF19091451385C191EFF060
:100F80003F9101BFEFF05FAB29B70146C14537156F
:100F90000140EF00206B15450D260145392E2AC072
:100FA0000546C14537150140EF00C0690146C145FE
:100FB00037150140EF00006913055003FD2C014572
:100FC000ED2CAA84C145054637150140EF00806726
:100FD0007957B70600208247238CE602094718B0EC
:100FE000455738A03CB044A0954531BF3C3058200F
:100FF000E2074207D98F7820D98F58302207D98F3E
:1010000023AAF190EFF03FB469B55C200146C145D9
:10101000371501403EC02430EF00C06213050005C3
:10102000692C0546C14537150140292D13052003BC
:10103000EF0070330146C1453715014021250545B4
:10104000AD2C82473E85952C2685852C0546C145CD
:1010500037150140C52B13052003EF00D030F95799
:10106000B7060020238CF60285471CB0CD573CA064
:10107000A3010400914541BD0146C145371501401A
:10108000D12319451D2C0546C145371501405D2B5F
:10109000EFF07FA809896DDD0146C1453715014094
:1010A00055231305700C112C0546C1453715014019
:1010B000512BEFF05FA609896DDD7957B707002046
:1010C000238CE702054798B05157B8A0A3810400CC
:1010D00091451385870365B53C305820A207D98F09
:1010E0002398F1905830238CE1902394019023A60B
:1010F0000190F957238CF60285471CB0D95785BF5C
:10110000930700406306F70013070780E31707D62D
:10111000294711A019472382E1B285B3D8309387BC
:1011200041B201E7214798A389BB1D47EDBF214785
:10113000DDB7B830D420130600202207558F4207B0
:1011400041872393E1B2938641B26308C7046348A1
:10115000E60213060008630DC70213060010630CB5
:10116000C7028822CD45EFF06FE37957B70700201B
:10117000238CE702054798B0130720FBB9B7130685
:1011800000406305C7001307078061FF294711A0CE
:10119000194798A2F9B7D83019E32147DDBF1D4799
:1011A000CDBFCD36FDB1B830D4202207558F4207D0
:1011B00041872393E1B293060020138441B2630771
:1011C000D70663C7E60493060008630CD7049306AA
:1011D0000010630BD7040820CD45EFF02FDC08206A
:1011E000C945EFF0AFDB13054006EF003014EFF018
:1011F000EFE475FD0820C145EFF04FDA7957B707E6
:101200000020238CE702054798B01307C0FB75BD8B
:10121000930600406305D700130707804DFF294759
:1012200011A0194718A045BFD83019E32147DDBFE9
:101230001D47CDBFEFE2DFE605650111854541059C
:10124000E925930700060D447C808A85E147371520
:10125000014022C23EC42311010002C602C802CAD4
:1012600002CC231E01008D26930700087C808A850E
:101270009147371501403EC4812EC1477C808A8545
:10128000C1473715014022C23EC43D2EB7070401B5
:101290003EC6B70700023ECA930780033ECC6C00EF
:1012A0009D4737350140FC8602C8712D854537358D
:1012B0000140D92505616FE05FDFEFE27FDE2A8420
:1012C000894537350140D12D65DDA285373501408F
:1012D000C925854537350140C92565DD37350140CC
:1012E0005D2D1375F50F6FE05FDCEFE27FDB3714E8
:1012F00002401C403707FFF8611193E717001CC03C
:101300005C404145F98F5CC01C403707F7FE7D17F4
:10131000F98F1CC01C403707FCFF7D17F98F1CC0DC
:101320005C4041777D17F98F5CC0B7079F001CC4F4
:101330001D231C4C3706020093E707021CCCB7178D
:10134000014003A70740938607401377F7F023A0D7
:10135000E74003A707401367070823A0E740894732
:101360009CCA02C002C21C4C37070140A16693E729
:1013700017001CCC5C43D58F5CC31C404167B7167B
:101380000240D98F1CC009679C42F18F3EC2824740
:1013900085073EC0924781E78247E397E7FEB7178C
:1013A00002409C431397E7006359070685473EC2F6
:1013B000124785476310F706B72702409843C17666
:1013C000FD16719B98C398431367170098C3B7170E
:1013D0000240D843D8C3D843758FD8C3D843C16619
:1013E000558FD8C39843B7060001558F98C39843CB
:1013F00093166700E3DD06FED843B7160240719BE3
:10140000D8C3D84313672700D8C32147DC42B18B28
:10141000E39EE7FE21016FE05FC902C251BFEFE228
:101420003FC8371702405C43370400209146B18B18
:10143000130404016385D700A1466382D704B7373C
:101440006E01938707601CC0B7160240DC4208405B
:10145000918313F7F700B707002093870700BA9727
:101460008C23DC4293F5F50F93F707083357B5004B
:1014700081E7EFE03FC62A8718C06FE01FC35C43D7
:10148000B777DC02938707C07DBFEFE27FC11165AC
:101490001301C1FD85451305050202C402C602C839
:1014A00002CA02CC02CE02D002C002C2B9299307FE
:1014B00000027C84371401408D473EC62C00E14772
:1014C000130504403EC80922930700047C842C00C5
:1014D0009147130504403EC8C52837440140B7175B
:1014E0000E0005463ECA13050480B7070C0093059D
:1014F00050523ECE02CC2310010271234C0813053A
:1015000004804D21930700127C8085475C810A8509
:1015100085473EC2FD24854513050480912B1301A8
:1015200041026FE09FB8B74701402392A780374739
:1015300001408357078093F70708E5DF828001A009
:1015400097F1FF1F9381812F138181FC1705000004
:101550001305456597F5FF1F9385C5AA17F6FF1F6D
:101560001306C6AD63FAC5008322050023A055000B
:1015700011059105E3EAC5FE17F5FF1F130505AC3C
:10158000938501B36377B500232005001105E36D52
:10159000B5FEB722000093820288739002308D421C
:1015A0007390428097F2FFFF9382C2A593E23200CC
:1015B00073905230EFF07FD397F2FFFF938202F5E2
:1015C0007390123473002030944593F7060193F220
:1015D000F60081C7DC41B3E2F20083D3050093F744
:1015E000F30FA5C303230500611122C226C0814762
:1015F000130480029304800405473316F70033F781
:10160000C3006312E602939527003D473317B700E6
:101610001347F7FF33736700B395B20033E36500F8
:10162000639D860050C985072147E397E7FC124474
:1016300023206500824421018280E39696FE10C932
:10164000DDB7828019C20CC982804CC98280EFE26A
:101650003FA5111146212A8428002EC03124C246FC
:10166000C204C18093F404FCB7450F0093850524A0
:101670003685C20436C2C180EFE0DFA5458D420544
:1016800041814AA01E209246C207C183F99BC2072E
:10169000C1831EA082479043E1679387076A931531
:1016A000160063E6C7043685EFE0DFA2AA8742058D
:1016B000418191466373D50091471395070141819C
:1016C0004AAC1E20024793E717001EA01E20562397
:1016D0003227C207C183D18E93F757BFD58F1EA083
:1016E00016275E27D58F1EA471016FE01F9C8247CD
:1016F000EA23B167FD176310F502B2953685EFE076
:101700007F9D420541819317450199E313651500BB
:10171000A1675D8D75B7B387C5008E07B385C70018
:101720003685EFE03F9B4205418191675D8DE1BFCA
:101730001E2189C593E717001EA18280C207C183BD
:10174000F99BC207C183CDBF1E2189C593E707104E
:101750001EA18280C207C18393F7F7EFC207C1833E
:10176000C5BF1E2189C593E707201EA18280C2073D
:10177000C18393F7F7DFC207C183C5BF1E2189C5A7
:1017800093E707401EA18280C207C18393F7F7BF8A
:10179000C207C183C5BF0EA982800A291375F50F40
:1017A000828093F7E50F19C293E71500C207C18342
:1017B0001EA982805E290A2D42055D8D6D8D220550
:1017C00021810D8D133515008280611102C002C286
:1017D00093D7C5012AC23EC08247A205A18199CBF9
:1017E0009247D1073EC29247884321016D8D333520
:1017F000A00082809247C181E107EDB723A4A1B286
:10180000828083A681B2854718216390F6021C313D
:10181000639CD7023C219A0793E707F8B7E600E0FC
:1018200093F7F70FBA962380F640854693575700F3
:101830003397E600544189CE938707048A07B7E6B9
:1018400000E0B69798C38280EDF33C219A07F9B780
:1018500093870706E5B7371702401C430E0593F739
:1018600077F05D8D08C38280EFE29F8337170240D7
:101870005C4391462A84B18B6385D700A14663807F
:10188000D708B7376E01938707601CC0B7160240B0
:10189000DC42918313F7F700B70700209387870294
:1018A000BA978C23DC42184093F5F50F93F707089D
:1018B0003355B70081E73A85EFE0DF8148C008C4BF
:1018C00048C4B7170240DC438D46AD83FD8B13D768
:1018D00037008A07F18BD98F13F6370113F73700DA
:1018E00063F4C600138747FFB707002093874701BB
:1018F000BA978C23EFE00FFE08C86FE00FFB5C4344
:10190000B777DC02938707C049B799C537170240FC
:101910001C4F5D8D08CF8280B7170240984F13454A
:10192000F5FF798D88CF828099C5371702405C4FCB
:101930005D8D48CF8280B7170240D84F1345F5FF21
:10194000798DC8CF82801A218D6793870704B621CD
:101950007D8F9E21D58FD621D58FF621D58F9625C7
:10196000D58FB625D58FD625D58FF625D58FD98F8E
:101970001EA19E291EA982801E2189C593E7070406
:101980001EA18280C207C18393F7F7FBC207C18300
:10199000C5BF4EA582804A2582800A256D8D3335CC
:1019A000A0008280EFE2CFEF1629F577FD17F58FC3
:1019B000F621DA252111D58F1EA95625FD779387AB
:1019C000379FF58FD6212A842EC0D58F9625D58FA7
:1019D000B625D58F5EA55E29C207C18393F7F7CFE1
:1019E0005D8F5AA948004935B74701409387078062
:1019F00082456312F406C2475A24139517003E9598
:101A000042070E0541873E958C41635807048605C1
:101A1000EFE04FEC930540062AC0EFE0AFEB8247C2
:101A200093144500930540063E85EFE06FED5E247C
:101A3000C207C18763D507020E059305400613054B
:101A40002503EFE02FE91D89C98CC204C18006A4DB
:101A500061016FE08FE5B24745B78A0555BF1205B2
:101A60009305400613052503EFE0CFE63D89E9BF66
:101A700091C55E250967D98F5EA582805A25F977C1
:101A8000FD17F98FD5BF13F7F50F85471583B3956C
:101A9000B7006319F7009307C500984301CED98DAD
:101AA0008CC38280894693074501E318D7FE9307CC
:101AB0000501E5B793C5F5FFF98DDDB713F7F50F10
:101AC00085461583B397B6006311D7025A25F98F5F
:101AD0001A2101454207418381CB0545A181B315F8
:101AE000B5006D8F3335E000828089466314D700DE
:101AF0001A29F1BF5A29E1BFEFE28FDAB7070020B8
:101B000003A50701B7157A0093850520EFE08FDC68
:101B10001375F50F2387A1B293175500898F8A0794
:101B20003E950E052396A1B26FE02FD8EFE24FD776
:101B300037F400E05C40AA85F99B5CC003C5E1B2C4
:101B4000EFE04FD708C8232404001C4093E7170098
:101B50001CC0B7F700E0D843058B75DF9843799B2D
:101B600098C36FE08FD4EFE2AFD337F400E05C406E
:101B7000AA85F99B5CC003D5C1B2EFE0AFD308C81A
:101B8000232404001C4093E717001CC0B7F700E0B3
:101B9000D843058B75DF9843799B98C36FE0EFD0EE
:101BA00001020304050607080102030405060708ED
:101BB000006CDC020204060804080C10081018204F
:101BC0001020304020406080010203040506070811
:081BD0000102030405060708E9
:00000001FF
