:100000000C9434000C9451000C9451000C94510049
:100010000C9451000C9451000C9451000C9451001C
:100020000C9451000C9451000C9451000C9451000C
:100030000C9451000C9451000C9451000C945100FC
:100040000C9451000C9451000C945F010C945100DD
:100050000C9451000C9451000C9451000C945100DC
:100060000C9451000C94510011241FBECFEFD8E026
:10007000DEBFCDBF11E0A0E0B1E0ECE2F2E102C0F2
:1000800005900D92A430B107D9F712E0A4E0B1E0D9
:1000900001C01D92AE3AB107E1F70E94A5010C9490
:1000A00014090C9400003B9A3998419A3A9A389A6C
:1000B000089588E48093B800089584EA8093BC0092
:1000C0008091BC0087FFFCCF089584E98093BC0039
:1000D00008958093BB0084E88093BC008091BC00AD
:1000E00087FFFCCF08958093BB0084E88093BC0019
:1000F0008091BC0087FFFCCF089584EC8093BC0006
:100100008091BC0087FFFCCF8091BB00089584E8FC
:100110008093BC008091BC0087FFFCCF8091BB0026
:100120000895EF92FF920F931F93982F84EA809384
:10013000BC008091BC0087FFFCCF9093BB0084E89B
:100140008093BC008091BC0087FFFCCF423048F018
:100150007093BB0084E88093BC008091BC0087FF53
:10016000FCCF6093BB0084E88093BC008091BC000E
:1001700087FFFCCFF901EE0DFF1D20E030E040E0ED
:1001800050E0780100E010E094E80EC08081809398
:10019000BB009093BC008091BC0087FFFCCF2F5F19
:1001A0003F4F4F4F5F4F31962E153F054007510788
:1001B00068F384E98093BC0080E01F910F91FF9069
:1001C000EF900895AF92BF92CF92DF92EF92FF929D
:1001D0000F931F93982FD9015701680184EA8093E8
:1001E000BC008091BC0087FFFCCF9093BB0084E8EB
:1001F0008093BC008091BC0087FFFCCF623048F048
:100200005093BB0084E88093BC008091BC0087FFC2
:10021000FCCF4093BB0084E88093BC008091BC007D
:1002200087FFFCCF84EA8093BC008091BC0087FFED
:10023000FCCF91609093BB0084E88093BC008091D8
:10024000BC0087FFFCCF20E030E040E050E08601BA
:1002500075010894E108F1080109110994EC10C036
:100260009093BC008091BC0087FFFCCF8091BB00C5
:10027000FD01E20FF31F80832F5F3F4F4F4F5F4F12
:100280002E153F054007510758F384E88093BC00C2
:100290008091BC0087FFFCCF8091BB00AA0DBB1DE5
:1002A00011978C9384E98093BC0080E01F910F919B
:1002B000FF90EF90DF90CF90BF90AF9008951F9286
:1002C0000F920FB60F9211242F933F938F939F930A
:1002D000EF93FF938091C0008C7161F590910401C0
:1002E0008091C600E92FF0E0E85FFD4F8083292F61
:1002F0002F5F20930401233021F480910902809321
:100300000601809106018823A9F030E090E0039671
:100310002817390779F41092040110920601809190
:100320000A028D3321F481E08093070103C081E04C
:1003300080930501FF91EF919F918F913F912F91B4
:100340000F900FBE0F901F9018950E9453000E94AF
:10035000F10880E060E00E94D70880E00E94590028
:10036000409842984398789480910501882321F021
:100370000E94880610920501F7CF08951F93CF932E
:10038000DF9390E0019646E050E0082E02C0440F53
:10039000551F0A94E2F7660F771F462B572B409A9A
:1003A0002AE62A95F1F720E030E0BC016E5F7F4F2E
:1003B000FB01A1E0B0E01AE61BC0CF01821B930B4A
:1003C000ED0102C0CC0FDD1F8A95E2F7CE01842338
:1003D0009523892B11F0429A01C04298812F8A956A
:1003E000F1F7439A812F8A95F1F743982F5F3F4F9A
:1003F0006217730714F740E050E02FE030E0EAE6C0
:1004000061E070E08E2F8A95F1F7439A319B09C025
:10041000CB01022E02C0880F991F0A94E2F7482BE5
:10042000592B8E2F8A95F1F74398215030408FEF4A
:100430002F3F380739F74098CA01DF91CF911F91BC
:100440000895EF92FF921F93CF93DF93EA0190E01C
:10045000E5E0F0E0082E02C0EE0FFF1F0A94E2F77D
:10046000E62BF72B409A2AE62A95F1F720E030E0B8
:10047000BC016E5F7F4FDB0141E050E01AE61BC01C
:10048000CD01821B930B7A0102C0EE0CFF1C8A95F2
:10049000E2F7C7018E239F23892B11F0429A01C0F6
:1004A0004298812F8A95F1F7439A812F8A95F1F727
:1004B00043982F5F3F4F6217730714F72FE030E028
:1004C00061E070E0EAE6CB01022E02C0880F991FBE
:1004D0000A94E2F78C239D23892B11F0429A01C0E4
:1004E00042988E2F8A95F1F7439A8E2F8A95F1F7CD
:1004F0004398215030408FEF2F3F380721F7409825
:1005000080E991E00197F1F7DF91CF911F91FF9082
:10051000EF9008951F93CF93DF9390E070E00297E0
:10052000082E02C0660F771F0A94E2F7409A2AE667
:100530002A95F1F720E030E0AC014C5F5F4FFA0103
:10054000A1E0B0E01AE61BC0CF01821B930BED01C6
:1005500002C0CC0FDD1F8A95E2F7CE0186239723D8
:10056000892B11F0429A01C04298812F8A95F1F7A8
:10057000439A812F8A95F1F743982F5F3F4F421797
:10058000530714F7409880E991E00197F1F7DF9164
:10059000CF911F910895409A80E496E00197F1F77A
:1005A00086B1409880E00895299885E060E00E9437
:1005B000E90880E060E00E94E908299A0895AF9276
:1005C000BF92CF92DF92FF920F931F93CF93DF934F
:1005D000F82E6B015A0189018EEF0E94FF088A2DC7
:1005E0000E94FF088F2D0E94FF08C00ED11EC0E0A0
:1005F000D0E006C0F60181916F010E94FF082196AC
:10060000CA15DB05B8F3DF91CF911F910F91FF90D1
:10061000DF90CF90BF90AF900895EF92FF920F932D
:100620001F93CF93DF93EE24FF2421C08091A0027B
:10063000B8010E94BE01888399830F5F1F4F2296E5
:1006400081E0C838D80791F780EB68E071E040E8B6
:1006500050E020E030E00E94DF0280910701882313
:10066000E1F31092070180E890E0E80EF91E809116
:10067000AC029091AD02E816F90630F487011595A9
:100680000795C8E0D1E0D2CFDF91CF911F910F91B4
:10069000FF90EF900895EF92FF920F931F93CF93E7
:1006A000DF9329988091A1029091A202A091A302C8
:1006B000B091A40281509040A040B14010F483E07A
:1006C00005C083E360E00E94E90880E060E00E94EA
:1006D000E90880E060E00E94E90880E060E00E94B4
:1006E000E90880E060E00E94E908EE24FF24870129
:1006F00020C083E060E00E94E908899381E0C83867
:10070000D807B9F782EF68E071E040E850E020E0F8
:1007100030E00E94DF02809107018823E1F310920C
:10072000070180E890E0A0E0B0E0E80EF91E0A1FA3
:100730001B1F8091A1029091A202A091A302B091EF
:10074000A402E816F9060A071B0718F4C8E0D1E06E
:10075000D0CF299ADF91CF911F910F91FF90EF9009
:100760000895AF92BF92CF92DF92EF92FF920F93D4
:100770001F93CF93DF938091A1029091A202A09149
:10078000A302B091A40280389105A105B10579F5C5
:1007900080EA61E040E050E028E031E0B0E8EB2E94
:1007A000F12C012D112D0E94E200EE24FF2487017F
:1007B00010C080EE68E071E040E850E097010E94D0
:1007C000DF0280E890E0A0E0B0E0E80EF91E0A1F2A
:1007D0001B1F8091A1029091A202A091A302B0914F
:1007E000A402E816F9060A071B0718F3B4C0803004
:1007F00021E0920720E0A20720E0B207A1F580EAFD
:1008000061E040E050E028E031E0E12CA1E0FA2E88
:10081000012D112D0E94E200EE24FF248701C0E289
:10082000DEE413C080EE68E071E040E850E097013C
:100830000E94DF02CE010197F1F780E890E0A0E08E
:10084000B0E0E80EF91E0A1F1B1F8091A1029091D3
:10085000A202A091A302B091A402E816F9060A0729
:100860001B0700F378C081509140A040B0408050F9
:100870009740A040B04030F0AA24BB246501C0E2FC
:10088000DEE45CC0AA24BB246501C0E2DEE427C02C
:10089000220F232F221F330B822F8E70A501507041
:1008A000806A61E028E031E0E0E8EE2EF12C012DD5
:1008B000112D0E94E20080EE68E071E040E850E017
:1008C00020E030E00E94DF02CE010197F1F780E8DE
:1008D00090E0A0E0B0E0A80EB91ECA1EDB1E950194
:1008E0008091A1029091A202A091A302B091A402D2
:1008F000A816B906CA06DB0658F22DC080EA62E0E7
:10090000A50128E031E070E8E72EF12C012D112D32
:100910000E94E20080EE68E071E040E850E020E0F4
:1009200030E00E94DF02CE010197F1F780E890E00D
:10093000A0E0B0E0A80EB91ECA1EDB1E8091A10285
:100940009091A202A091A302B091A402A816B906A8
:10095000CA06DB0698F2DF91CF911F910F91FF90AD
:10096000EF90DF90CF90BF90AF900895EF92FF92FD
:100970000F931F93CF93DF937C01C0E0D0E0062F4D
:1009800010E007C0F701EC0FFD1F80810E94FF08F7
:100990002196C017D107B4F3DF91CF911F910F912A
:1009A000FF90EF900895AF92BF92CF92DF92EF92B7
:1009B000FF920F931F93CF93DF9390910B0280E0F0
:1009C00020910C02C22FD0E0C82BD92BD695C79509
:1009D0000DE012E090E4A92E96E0B92E80E6C82E34
:1009E0008AEED82EF801F180EE24408150E04E29A5
:1009F0005F298091A002BE010E942102409AC50198
:100A00000197F1F786B14098C6010197F1F70E5FA3
:100A10001F4F2196F2E00D321F0721F7F801B5971D
:100A20008EEF808381E08093090282EB80930A023B
:100A300010920B02CF0164E00E94B604DF91CF91C7
:100A40001F910F91FF90EF90DF90CF90BF90AF90EC
:100A50000895EF92FF920F931F93CF93DF9390919E
:100A6000090260919E0270919F02EBE0F2E0EB01BF
:100A7000C85FDE4F292F30E0A9014E0F5F1F02C073
:100A800081918993E417F507D9F7620F731F70936B
:100A90009F0260939E022091A8023091A90240918A
:100AA000AA025091AB02290F311D411D511D209307
:100AB000A8023093A9024093AA025093AB028091FE
:100AC000A5029091A6026817790709F04FC0CB01E3
:100AD000A0E0B0E079018A01E81AF90A0A0B1B0BC1
:100AE000299886E060E00E94E908299A0E94D402D1
:100AF00081FFFCCF299882E060E00E94E9088091A4
:100B0000A702823039F4812F9927AA27BB2760E0FA
:100B10000E94E908C801AA27BB2760E00E94E908F3
:100B2000BB27A12F902F8F2D60E00E94E9088E2D0A
:100B300060E00E94E908C0E0D0E008C0FE01E85F84
:100B4000FE4F808160E00E94E90821968091A50215
:100B50009091A602C817D90788F3299A0E94D40257
:100B600080FDFCCF10929F0210929E028EEF809328
:100B7000080281E08093090286EF80930A021092B6
:100B80000B0288E092E064E00E94B604DF91CF910E
:100B90001F910F91FF90EF900895AF92BF92CF9267
:100BA000DF92EF92FF920F931F93CF93DF93909179
:100BB0000B0280E020910C02A22EBB24A82AB92AA5
:100BC0008091A1029091A202A091A302B091A402EF
:100BD000813021E0920720E0A20720E0B207D8F49C
:100BE000C0E0D0E030E4C32E3CE9D32EBE016A0D54
:100BF0007B1D259680EA41E028E032E008E010E025
:100C00007E010E949100C6010197F1F72396C03240
:100C1000D10561F751C081509140A040B040805053
:100C20009740A040B04098F5C501880F892F881FD4
:100C3000990B91958E70B5017070806A41E028E043
:100C400032E000E110E095E0E92EF12C0E949100E5
:100C5000B0E6CB2EBAEEDB2EC6010197F1F7B50157
:100C6000605F7F4FCB01880F892F881F990B91956B
:100C70008E707070806A41E028E032E0F5E1EF2E7E
:100C8000F12C0E949100C6010197F1F715C080EA8E
:100C9000B50142E028E032E000E210E0E5E0EE2EAF
:100CA000F12C0E9491008AEF90E020E931E0F901F7
:100CB0003197F1F70197D9F78EEF8093080281E021
:100CC0008093090282EE80930A0210920B0288E060
:100CD00092E064E00E94B604DF91CF911F910F91E2
:100CE000FF90EF90DF90CF90BF90AF9008958EEF80
:100CF0008093080281E0809309028CEC80930A02C1
:100D000010920B0288E092E064E00E94B60408951D
:100D1000AF92BF92CF92DF92EF92FF920F931F9309
:100D2000DF93CF9300D000D0CDB7DEB700910A0299
:100D3000023E09F470C0033EB8F40C3B09F4E1C074
:100D40000D3B50F4013B09F49CC0023B09F4D6C0B2
:100D5000003B09F01DC262C0003E11F1013EB8F532
:100D60000C3C09F015C219C0033F09F49CC1043FB3
:100D700050F4013F09F43DC1023F08F05FC1003F5C
:100D800009F006C210C1053F09F4D3C1053F08F4BC
:100D9000B4C1063F09F0FCC1F9C10E947706F8C151
:100DA00090910B0280E020910C0230E0822B932B7B
:100DB000AA2797FDA095BA2F8093A1029093A20233
:100DC000A093A302B093A4020E94B103E1C1909149
:100DD0000B0280E020910C0230E0822B932BAA279B
:100DE00097FDA095BA2F8093A1029093A202A093A1
:100DF000A302B093A4021092A8021092A90210922A
:100E0000AA021092AB028EEF8093080281E08093D9
:100E1000090282EEB1C10E94CD05BAC190910B02C8
:100E200080E020910C0230E0282B392B3093AD026A
:100E30002093AC0242E020303407D9F052E0213058
:100E4000350738F42038310561F020503140B1F4D5
:100E50000AC0E4E020303E0771F02050384071F4C1
:100E60000AC086E009C080910D02882311F087E056
:100E700003C088E001C08AE08093A0020E940D03B5
:100E800087C190910B0280E020910C0230E0282B6A
:100E9000392B3093AD022093AC0242E0203034076E
:100EA000D9F052E02130350738F42038310561F0AF
:100EB00020503140B1F40AC0E4E020303E0771F028
:100EC0002050384071F40AC086E009C080910D02BC
:100ED000882311F087E003C088E001C08AE0809396
:100EE000A0028091A00263E10E948A028EEF8093AB
:100EF000080281E08093090282EB3EC10E94D30484
:100F000047C190910B0280E020910C0230E0282B29
:100F1000392B3093AD022093AC0242E020303407ED
:100F2000D9F052E02130350738F42038310561F02E
:100F300020503140B1F40AC0E4E020303E0771F0A7
:100F40002050384071F40AC086E009C080910D023B
:100F5000882311F087E003C088E001C08AE0809315
:100F6000A0028091A00263E10E948A028091A00207
:100F700062E10E948A0280E991E00197F1F7409ACC
:100F800080E496E00197F1F786B140988091A00245
:100F900060E10E948A028EEF8093080281E08093D4
:100FA00009028CEBE9C029988FE960E00E94E9080A
:100FB00080E060E00E94E908E82E80E060E00E94A6
:100FC000E908182F80E060E00E94E908299A9EEF66
:100FD0009093080293E09093090200930A02109301
:100FE0000B0280930C02E0920D0288E092E066E032
:100FF000CAC0299885E060E00E94E90880E060E0CE
:101000000E94E908182F299A299885E360E00E9438
:10101000E90880E060E00E94E908299A9EEF909339
:10102000080292E09093090200930A0210930B02C7
:1010300080930C0288E092E065E0A5C0F0900B027E
:10104000EE245701CC24B7FCC094DC2C30910C0268
:1010500020E0442737FD4095542F90910D0280E009
:1010600060910E0270E0862B972BAA2797FDA09522
:10107000BA2F542F432F322F2227822B932BA42BAE
:10108000B52BA50133272227822B932BA42BB52B1D
:101090008093A1029093A202A093A302B093A40212
:1010A0000E944B0375C000910B0210910C0229980D
:1010B00080E560E00E94E908299A0E94D40281FF3D
:1010C000FCCF299881E060E00E94E908812F60E070
:1010D0000E94E908802F60E00E94E908299A299877
:1010E00084E060E00E94E908299A8EEF809308026C
:1010F00081E08093090283EF3FC0299886E060E099
:101100000E94E908299A0E94D40281FFFCCF299805
:1011100087EC60E00E94E408299A0E94D40281FFD3
:10112000FCCF8EEF8093080281E08093090284EF68
:1011300023C090910B0280E020910C0230E0822BC2
:10114000932B9093A6028093A50280910D02809329
:10115000A70210929F0210929E021092A802109273
:10116000A9021092AA021092AB028EEF809308029D
:1011700081E08093090286EF80930A0210920B02AD
:1011800088E092E064E00E94B60402C00E94290553
:101190000F900F900F900F90CF91DF911F910F91B3
:1011A000FF90EF90DF90CF90BF90AF900895219A7D
:1011B00084B1886284B984B18B7E84B92A9A219AD9
:1011C00080E58CBD299A08958EBD0DB407FEFDCF34
:1011D00008958EBD01C000000DB407FEFCCF8EB592
:1011E00008951092C00088E98093C10086E0809342
:1011F000C2001092C50080E18093C4000895982F2A
:101200008091C00085FFFCCF9093C6000895FC013B
:1012100007C08091C00085FFFCCF9093C600319637
:0C12200090819923B1F70895F894FFCF56
:04122C00640000005A
:00000001FF
